:10000000D84300207D57000035F401000D56000054
:100010000D5600000D5600000D5600000D56000054
:100020000D5600000D5600000D5600002D52000028
:100030000D5600000D560000D95100001BF40100C0
:100040003D5700003F2202003D5700003D57000091
:100050003D5700003D5700003D5700003D57000050
:100060003D5700003D5700003D5700003D57000040
:100070003D5700003D5700003D5700003D57000030
:100080003D5700003D5700003D5700003D57000020
:100090003D5700003D5700003D5700003D57000010
:1000A0003D5700003D5700003D5700003D57000000
:1000B0003D5700003D5700003D5700003D570000F0
:1000C0003D5700003D5700003D5700003D570000E0
:0C00D0003D5700003D5700003D57000068
:0400DC00FFFFFFFF24
:1000E0007BB972B90029BEBF00204FF0004106E085
:1000F00008BF00281CBF6FF000414FF0FF3000F038
:1001000057B8ADF1080C6DE904CE002909DB002BCE
:100110001ADB00F062F8DDF804E0DDE9022304B048
:100120007047404261EB4101002B1BDB00F055F8AA
:10013000DDF804E0DDE9022304B0404261EB410157
:10014000524263EB43037047524263EB430300F0B8
:1001500044F8DDF804E0DDE9022304B0404261EB3D
:1001600041017047524263EB430300F036F8DDF87B
:1001700004E0DDE9022304B0524263EB430370471D
:1001800053B94AB9002908BF00281CBF4FF0FF31FE
:100190004FF0FF3000F00CB8ADF1080C6DE904CE63
:1001A00000F01BF8DDF804E0DDE9022304B070473D
:1001B000704700BF430803F05533C01A00F03333D3
:1001C000800800F03330184400EB10104FF001337A
:1001D00000F00F305843000E70472DE9F04F099F93
:1001E000154604468E461E46002B40F0CC808A42BF
:1001F000B2FA82FC4CD9BCF1000F0BD0CCF1200834
:1002000001FA0CFE20FA08F802FA0CF548EA0E0E84
:1002100000FA0CF44FEA15491FFA85F8BEFBF9FA0B
:10022000210C09FB1AE30AFB08FB41EA03439B4547
:100230002AD9EB180AF1FF3004D29B4502D9AAF162
:1002400002002B44A3EB0B03A4B2B3FBF9F209FBAE
:10025000123302FB08F844EA0344A04516D92C19CE
:1002600002F1FF3303D2A04501D9931E2C44A4EB25
:10027000080443EA004027B124FA0CF400233C6050
:100280007B603146BDE8F08F5046DBE71346EEE772
:1002900002B9FFDEBCF1000F2ED18B1A01264FEA06
:1002A000154EAAB2B3FBFEF8210C0EFB183308FB67
:1002B00002F941EA0343994561D9EB1808F1FF308F
:1002C00004D2994502D9A8F102002B44A3EB0903FB
:1002D000A4B2B3FBFEF10EFB11334A4344EA0344DC
:1002E000A2424ED92C1901F1FF3303D2A24201D907
:1002F0008B1E2C44A41ABCE7CCF1200E02FA0CF59C
:1003000021FA0EF901FA0CF320FA0EFE4EEA03036D
:100310004FEA154800FA0CF4B9FBF8F11FFA85FE14
:1003200008FB1192180C01FB0EF640EA02429642BD
:1003300021D9AA1801F1FF3003D2964201D9881EB3
:100340002A44921B9BB2B2FBF8F908FB192209FB65
:100350000EFE43EA02439E450FD9EB1809F1FF3622
:1003600004D29E4502D9A9F102062B44A3EB0E0349
:1003700046EA004693E70846E3E74E46F6E740467E
:10038000A4E70B46B6E78B4205D90FB1C7E90001D8
:100390000026304675E7B3FA83FCBCF1000F0FD19D
:1003A0008B4201D3824209D8841A61EB030E0120EB
:1003B000002F6AD0C7E9004E002662E76046F7E7E3
:1003C000CCF1200E03FA0CF322FA0EF521FA0EF40A
:1003D0001D4301FA0CF320FA0EF10B434FEA154AC4
:1003E00000FA0CF6B4FBFAF91FFA85F80AFB19407B
:1003F0001C0C09FB08F144EA0044A14202FA0CF289
:100400003FD92C1909F1FF3004D2A14202D9A9F138
:1004100002002C44641A9BB2B4FBFAF90AFB19449B
:1004200009FB08F843EA044188452CD9691809F109
:10043000FF3304D2884502D9A9F10203294443EAD3
:100440000040A1EB0801A0FB02894945C2464C4689
:1004500002D306D1464504D2B8EB020A69EB050483
:10046000013897B1B6EB0A0361EB040606FA0EFEFB
:1004700023FA0CF34EEA030326FA0CF6C7E900361A
:100480009AE74846C6E74B46D9E73E46F9E60000FC
:100490002DE9F04FC44D1C462B7C8FB00646884694
:1004A0009BB101234FF0000163F30701BF4AC04B2A
:1004B000C0489B1ADB0863F38F111DF0C2FF404058
:1004C00080F311884FF0040002DF94F820300733E6
:1004D000DBB22B7494F91D30002B09DAE36B616CED
:1004E00002FB03330B44216C994294BF6164636443
:1004F000278D94F85C303A44678C92B222853A4456
:1005000097B294F85D209A4259D194F8D0305A07A6
:1005100055D494F8A92094F8A8309A424FD00520D9
:1005200018F01EFDD5F880310BB19C4247D194F8EC
:10053000AA3003F00703052B00F22881DFE813F04F
:1005400006005500FA003F003F003F009A4821F0A6
:10055000EAFA014698B394F8AA30042262F302033F
:1005600084F8AA30037943F003030371182343711D
:100570000F23C371B4F8AC300381B4F8AE304381BB
:10058000B4F8B0308381B4F8B230C381002303746F
:10059000C37403754FF0FF3343758375C3750376DA
:1005A00043768376C376037743778377A0F8117019
:1005B000204621F01EFD638EC5F88041A38694F885
:1005C0005D2094F85C309A4200F03881052018F0E4
:1005D000C7FC94F85E30013B032B00F2D780DFE8C4
:1005E00013F0EF00020345039E0394F8AB90B9F1BA
:1005F000000F1DD0704821F096FA01460028DED089
:10060000037943F0030303711123C371032343717F
:100610000F23037294F8AB304372204621F0E9FCBB
:1006200094F8A83084F8A9300023C5F88031C6E7D3
:1006300094F91D30002B3ADB94F85D1094F85C308F
:100640008B42BCD194F8AA30C4F86C90052262F3B6
:10065000020394F8B42084F8AA30012384F870309F
:1006600012B3B4F8AC30B3FBF2F3013313FB02F373
:100670009BB2A4F86230D4F8B030636694F860306E
:10068000022262F3010394F8AA2082F00802C2F366
:10069000C00262F3820384F860300139012384F8D8
:1006A0005E3084F85D108AE7B4F8AE30E1E7424886
:1006B00021F039FA0146002881D0037943F0030381
:1006C0000371182343711023C371B4F8AC30038154
:1006D000B4F8AE304381B4F8B0308381B4F8B230AE
:1006E000C38194F8B4300374B4F8B630A0F8113074
:1006F000B4F8B830A0F81330B4F8BA30A0F8153018
:10070000B4F8BC30A0F81730B4F8BE30A0F81930F7
:10071000B4F8C030A0F81B30B4F8C230A0F81D30D7
:10072000204621F066FC94F8A83084F8A930C5F87A
:10073000809144E794F8D0301B073FF540AF02208A
:1007400017F002F900283FF43AAF94F8AA300322D8
:1007500062F3020384F8AA30238CC380022303715E
:10076000037A13430372182343720F23C372B4F83E
:10077000AC308381B4F8AE30C381B4F8B0300382BA
:10078000B4F8B230438217F09DF918E701234FF017
:10079000000163F30701054A054B08489B1ADB0873
:1007A00063F38F1189E600BF680D0020EC3302006F
:1007B0001C34020021890200BC0E00202A820200A3
:1007C000D5F880310BB9C5F8804194F8603013F04A
:1007D00003036CD0CC4821F0A6F9014670B394F81D
:1007E000603002796FF3010384F86030E38C3B449E
:1007F00006339BB242F00302A4F8683002710C2267
:1008000042710022C27194F870200272E26E40F2CE
:10081000E240B2FBF0F2A1F80920B4F86220A1F89E
:100820000B20B4F86420A1F80D20B4F86620A1F8DC
:100830000F20A1F81130204621F0DBFB94F899201D
:1008400094F898309A421DD0052018F089FBAE48E4
:1008500021F069F90146A8B194F8983084F89930EC
:10086000037943F00303037102234371C37194F8C6
:100870009A300372204621F0BCFBE38D012B98BF18
:100880000133A386A14B0394029394F820300733DD
:10089000DBB20193A36800932246231D41463046F4
:1008A000013718F06BFB67840FB0BDE8F08FB4F828
:1008B0006890A7EB090292B210040B92BED494F890
:1008C0005C2084F85D2094F8A81094F8A9208A424E
:1008D00008D094F8AA2002F00702052A04BF84F881
:1008E000A910A386D5F880210023944208BFC5F83B
:1008F00080312B74B4F86220A38C9A4214D1B4F8DE
:100900006410E38C99420FD140F2E2435A43B4F8A9
:10091000663042F2107101FB0323013B93FBF2F3BB
:10092000E28D9BB29A4221D0022017F00DF860B9F7
:1009300001234FF0000163F30701754A754B7648B8
:100940009B1ADB0863F38F11B7E5238CC3800A235E
:10095000037100230372B4F862304381B4F8643049
:100960008381B4F86630C38117F0ACF8D4E9000B8A
:10097000002808DA20F00040A3682060361A9B4562
:100980002CBF5E44F6180B9AA38CB4F862A0DFF873
:10099000A08113FB02F39BB2B3FBFAF18AB20C9273
:1009A0001AFB02F292B2934240F2E24080F0C2801F
:1009B000D31A584380FB080151A3D3E90023FFF762
:1009C000DFFB20F07F4006440C9BA9EB07071F4488
:1009D0002368B4F828909B4538BF9B4694F91D3096
:1009E000CDF834B04F44002B40F2E2492785D4F8CB
:1009F0006CB009FB0AF780F2AA80626C0B99E36B7A
:100A00000C9803FB112395F82021444931F812502A
:100A100094F83820C2F3820231F8122094F8701052
:100A200015447D4305F574253D4A09FB01F105F2A6
:100A30003F25B5FBF2F57A086843963A0344E16432
:100A40000021E5632264A165934294BF63646264FC
:100A5000A0FB08012AA3D3E90023FFF791FB361A74
:100A6000BBFBF9F009FB00F025A3D3E90023A0FBB1
:100A70000801FFF785FB20F07F430B937D1BB4F843
:100A80006430E384B4F86630A4F824A042F2107213
:100A900002FB0373013BB3FBF7F3E385214B3B44BC
:100AA000B3FBF7F794F86030678613F0040308BFD0
:100AB00023860121002019F04FFF00220C90012114
:100AC000104615F065F894F82070174B0737FFB201
:100AD000002100973A46084615F032FE30F0020A2F
:100AE00042D001234FF0000163F30701084A094B8C
:100AF0000E489B1ADB0863F38F11DEE4AFF300802E
:100B00008D49FD1A07000000BC0E0020B1860100CF
:100B1000EC3302001C34020095870200D83F02002B
:100B200040420F00FF596202E97B01008883020006
:100B300000CA9A3B0AFB113189B24843A4A3D3E906
:100B4000002380FB0801FFF71BFB361A3CE7A0A33C
:100B5000D3E90023ABFB0801FFF712FB20F07F4035
:100B6000431C0B933D468AE7A5FB088998A3D3E96C
:100B7000002340464946FFF703FB41F652430893E2
:100B80008F4B0D9ACDE906438E4B0593E3681A44CB
:100B90008D4B20F07F44A4FB03BC072303FB04CC54
:100BA000B8EB0B0069EB0C01CDE903A200234FF475
:100BB0007A72FFF7E5FA0B9B0093CDE901403346CB
:100BC0003A465146504615F029FD30F0020088D1D2
:100BD0000C9B002B3FF468AE012211460FB0BDE81C
:100BE000F04F14F0D5BF94F8603013B3774820F07D
:100BF0009AFF054600283FF421AE002384F86030B8
:100C0000E38C3B440633A4F86630037943F00303D6
:100C10000371082343710123C37104F161010522AB
:100C200008301EF0F1FCB4F86630A5F80D30294606
:100C300001E6B4F86630FB1A19043FF5FFAD94F8ED
:100C40005C3084F85D3004F11705052204F1610180
:100C500028461EF0D9FC0521284620F0CAFF637FF4
:100C600060F30503637701232377E7E594F83810F1
:100C700011F0200924D094F85C3084F85D30022013
:100C800016F062FE054600283FF452AE238CC38066
:100C900002230371037A43F00303037209234372AF
:100CA000C372082200210C301EF0D8FCD4F88C301E
:100CB0002B731A0A1B0C6A73AB7316F003FFBDE5A6
:100CC000424820F030FF054600283FF4B7AD94F8C5
:100CD0005C3084F85D304FF4C773C4F88C3003790E
:100CE00043F0030303710923437194F91D30002B72
:100CF000ACBF08230E230822C371494610441EF0DE
:100D0000ADFCD4F88C302B721A0A1B0C6A72AB72D1
:100D10002946204621F06DF9638EA3868EE594F86E
:100D20009030DA0724D4294820F0FDFE014600283F
:100D30003FF484AD94F85C3084F85D3094F89030E2
:100D400043F0010384F89030037943F00303037107
:100D5000062343710C23C371092303726FF00E0342
:100D60004372052383724FF0FF33C3720373D0E7DE
:100D70009B077FF50BAD94F85C3084F85D30022062
:100D800016F0E2FD00283FF4D3AD238CC38002238C
:100D90000371037A43F003030372062343720C23A7
:100DA000C37294F891300373B4F89230A0F80D3008
:100DB000B4F89430A0F80F307FE700BFAFF30080A5
:100DC000D57B0100910400008D49FD1ABC0E002066
:100DD0008D49FD1A070000002DE9F04F91B019F080
:100DE00049FBC6B23EB319F065FBC3B20A9319F0D2
:100DF000E7FBC5B219F0EEFB19F072FD19F05EFDCC
:100E000019F0A6FB5FFA80F8754C19F01DFB19F07C
:100E1000E7FB19F0CDFB19F057FD19F091FB677D49
:100E2000052F01F20084DFE817F066008E000A004B
:100E3000300A300A300AB04635460A96E4E7012304
:100E4000637519F0B3FC0546962019F0D9FB237D94
:100E5000013BCB35032B01F2E683DFE803F0022BE5
:100E60004F4F00231A461946184619F041FB19F056
:100E70002FFB19F0BFFA19F0F3FA044660B1012311
:100E80004FF0000163F30701564A574B57489B1A2E
:100E9000DB0863F38F113DE2014621F0D7FA2146CA
:100EA0000544204621F0CEFA281A19F039FC19F031
:100EB0006FFC20E0002319461A46184619F018FB6B
:100EC00094F83921D4F8343153F82200083019F05D
:100ED00091FA19F0C5FA04460028D0D1014621F054
:100EE000B5FA21460544204621F0ACFA281A19F03B
:100EF00017FC19F015FB11B0BDE8F08F00231A465E
:100F00001946184619F0F4FA94F83921D4F8343116
:100F1000D4F8140153F82210083120F0E8FF19F03A
:100F20009FFA04460028AAD1014621F08FFA2146F3
:100F30000544204621F086FA281A19F0F1FB012019
:100F400017F0DAF9D7E726B90323637519F06AFABF
:100F5000D1E7237DDBB2022B00F0F681032B00F0FA
:100F6000C782012B41F05F830A9B002BECD019F064
:100F7000AFFA94F878202A234FF0270A1AFB023A96
:100F8000027802F00F03032B064604EB0A072FD169
:100F900043780C2BD8D194F82930190701D5002DAE
:100FA000D2D014F80A30C3F38013B3EBD21FCBD1E5
:100FB000062206F10801B81C1EF0FFFAC0B903238F
:100FC000637519F09FFA94F8C800272303FB0040CB
:100FD0007A3019F015FA19F043FA00288BD04EE751
:100FE000680D0020EC3302001C34020089840200EA
:100FF000337803F00F03052BA6D17378222BA3D1EE
:1010000014F80A3003F00F03012B40F08D813146B4
:10101000384620F040FF88B1337814F80A20C3F333
:101020008013B3EBD21F40F07D810622B11C07F183
:1010300008001EF0C2FAB0FA80F04009002883D000
:1010400094F87A3133B194F8783194F879219A424E
:101050007FF47AAFD4F8CC30002B3FF475AF032087
:1010600016F072FC814600283FF46EAF4FF0040B7F
:1010700084F815B019F0D6F9D4F8CC50D4F808118A
:1010800000274FF496722846C4F8CC7020F07CFDFF
:1010900006F112012884032205F114001EF0B4FAAF
:1010A00005F1100318465A4606F10E0105F117081E
:1010B0000A931EF0A9FA052206F11E0140461EF011
:1010C000A3FA0521404620F094FD6A7F0A9B60F355
:1010D00005026A7796F82320C2F30402AA77B6F8CD
:1010E0001880A5F8248040F2E24202FB08F8F17E65
:1010F000B27E42EA0122EA8419465A4605F15400BA
:101100001EF082FAB38B42F2107202FB0383013BA2
:10111000B3FBF8F3EB85C44B4344B3FBF8F36B86A6
:101120002B8CA9F806300823314689F804304FF497
:101130008073A9F8083011F8023BC3F3801389F8D3
:101140000A30062209F10B001EF05EFA727E337E31
:1011500043EA0223A9F81230F27EB37E43EA022367
:10116000A9F81430727F337F43EA0223A9F81630BE
:1011700096F82330C3F3421389F81830288C16F000
:10118000F3FC16F09FFC96F8232095F83830A74919
:10119000520962F3840385F8383094F8203131F82D
:1011A000122031F81330134408FB03F303F57423C2
:1011B0009F4A03F23F23B3FBF2F3EB634FEA58037A
:1011C000963B2B64737D40F2E2425343C5E91373AF
:1011D0003946384621F038F99649834600F25240A4
:1011E0008FA3D3E90023A0FB0101FEF7C9FFD4F8C8
:1011F0007C316B602722934238BF13469946EB6BD4
:101200002A6020F07F40A8EB0303E860AF600A93F8
:1012100019F0C6FAF68A40F2E2428046394638466C
:1012200002FB062621F00EF9303E40F2AD43B044F9
:10123000A8EB0008009305227F4B3946384615F08D
:101240007FFA40F2AE4116F0F5FC14F80A30DFF8F0
:10125000E4A103F00F03012BA8EB0B0806D10097C4
:101260003B4603223946384615F06AFA0A9BA3FB2F
:101270000A6730466AA3D3E900233946FEF780FFA8
:10128000A36895F82040A3EB09030A9340F2C543F5
:1012900008936A4BCDE90653694B0593EB684B44C1
:1012A0000493684B20F07F45A5FB03BC072303FB99
:1012B00005CCB6EB0B0067EB0C014FF000094FF4C7
:1012C0007A720023CDF80C90FEF75AFF54A3D3E9AD
:1012D0000023CDE90150A8FB0A01FEF751FF0734B6
:1012E00020F07F40E4B200900A9B224649464846DF
:1012F00015F094F930F002033FF4FDAD01234FF0F7
:10130000000163F30701504A504B51489B1ADB0818
:1013100063F38F111DF095F8404080F311884FF072
:10132000040002DF002089E694F82930C3F3C103EA
:101330009A0700D535B13146384620F0ACFD00F0B3
:1013400001007BE62846FAE70A9B002B00F0A48008
:1013500094F8E1309B0702D5002D00F09D8094F8B1
:101360003921D4F8343153F822502A7A12F00F037D
:1013700001D0062B70D194F8E110CF0741D5D4F8F5
:10138000001100293DD1404620F0F1FD074600281C
:1013900040F0828019F09CF803782E49032262F312
:1013A000030303702A7ADBB2C2F3801262F3C7131D
:1013B0000C22427094F8E120C2F3001262F386130B
:1013C0000646062200F8023B1EF01EF9062205F131
:1013D0000A0106F108001EF017F994F8E03043F016
:1013E000020384F8E03096200223637519F008F9AF
:1013F000384619F071F8304619F002F819F0C8F9BA
:10140000E9E54BBB00216B7A002B45D0D4F80031C5
:10141000002B41D1404620F0AAFD3DE0AFF3008013
:101420008D49FD1A07000000FF596202D83F0200F3
:1014300040420F0000CA9A3B357C0100DF1E0200CB
:10144000910400008D49FD1AEC3302001C340200A7
:10145000888302004A0E0020012B28D02B7A03F04B
:101460000B02022ACED003F00F03042B14D194F800
:10147000E030980710D519F02BF82B7A0278C3F3D7
:101480008013B3EBD21F07D1062205F10A01083001
:101490001EF093F80028B5D00323637518F0C2FF3F
:1014A00094F8E0306FF3410384F8E03023E594F8DA
:1014B000E130C3F30013B3EBD21F10D094F8E13046
:1014C000C3F341039E07C9D595F90830002BC5DA4F
:1014D0006B7D03F0C003402BC0D1012193E70622AE
:1014E00005F11001BF481EF068F800288AD0E5E732
:1014F00094F8183194F839210A99013384F8183195
:10150000D4F8343153F82260D4F814310222327105
:10151000002900F0D58593F8D020307A02F001013F
:10152000C0F38000884200F0B18081F0010161F3D6
:10153000000283F8D020227D032A02BF93F83820CE
:1015400042F0010283F8382093F8D020110600F110
:101550009980D3F8148193F8290108F1040C0CEB5D
:10156000000999F80150002D3CD14FF00009D4F842
:10157000142192F8293192F828112B44DBB29942B8
:1015800082F8293159D04FF00008B9F1000F7FD00F
:10159000D4F8140116F000FF0027C4F8147119F0F4
:1015A000EBF818B919F0DCF819F0E0F88E4CD4F823
:1015B0001431002B3FF49FACB8F1000F03D041462B
:1015C000188C16F05DFE002F3FF495ACD4F8143162
:1015D000188C16F0C9FAD4F814311B8CF38016F06D
:1015E00071FA88E492060AD5D3F80221D3F80611DD
:1015F000013241F10001C3F80221C3F806111CF8C1
:10160000003003F00303032BAFD199F80320022A23
:10161000ABD1637518F006FF18F022FF00287FF4A5
:101620002EAC99F80410D4F81401132908BF162120
:1016300016F0D0FF4FF0010999E7D2E945130020D9
:101640009942A2F8280112D1B8F1000F9BD0D2F82C
:101650001C310D68C2F8145199420CBFC2E9460012
:10166000C2F818516149404620F076FA8BE7D2F86B
:101670002031994204BF0B68C2F820310B68C2F8D0
:10168000143182E76FF3C71283F8D0204FF00008BF
:10169000D4F81431327A93F8D030C2F3C002C3F3D5
:1016A00040039A4240F0B381032016F04DF9002820
:1016B00000F0AD8194F87A3183B3D4F84431D4F892
:1016C0004821934205D194F8782194F879119142F8
:1016D00024D0D4F84821934200F0998194F87831CD
:1016E00094F879219A4200F0928194F87831D4F8F4
:1016F000142123B9B4F87611138C99420ED094F8C2
:101700007831002B00F0838194F8783104EB4303A7
:10171000B3F87011138C994240F0798196F80990D2
:10172000B9F1000F00F05381D4F8143193F8D09040
:1017300019F0100916D019F099F860B901234FF08B
:10174000000163F307012A4A2A4B2B489B1ADB0846
:1017500063F38F11DEE5D4F8143193F8D030DD0651
:101760004CD4B946D4F8145195F8D0300C9313F0FA
:10177000040F337A10D003F00301032942D195F905
:101780001DC00C9AF17ABCF1000F02F0400060DB42
:1017900000284BD1022959D1C3F30103D9B25BB25E
:1017A000002B00F07F84022940F2BC8096F80BA049
:1017B00006F1080BBAF1110F00F25F84DFE81AF0AE
:1017C0005700D3000B015D045D045D045D0401045A
:1017D000140131015D045D0457015D042901B90163
:1017E0001A039D034A0E0020680D0020BC0E002045
:1017F000EC3302001C340200AC84020019F054F8EF
:101800000028AED10323637518F00CFE18F028FEF3
:10181000074600287FF433ABD4F814013D2116F0BD
:10182000D9FED4F8140116F0B7FDB6E6881EC0B292
:1018300009280BD840F2052C2CFA00F0C007ABD4D5
:10184000C54820FA01F1CA07A6D4DBE71129D9D887
:10185000F6E738B907299FD002299DD01129D1D8A0
:10186000BE48EEE7881E012896D90B29F5E795F9C1
:101870001D30002B80F20184717A002016F03EF8B2
:10188000002800F0FA83B6F815106B8CCB1A1F04F1
:1018900044D495F85D3095F85C209A4261D1D4F833
:1018A00080210AB9C4F88051327B85F87020B6F8DF
:1018B0000D0040F2E2424243EA66307CF27B42EAAB
:1018C0000022A5F86220B07C727C42EA0022A5F8D2
:1018D0006420F27C307DA5F8681042EA0022A5F869
:1018E000662095F8602022F00702013B85F8602011
:1018F000012285F85E2085F85D3095F8A82095F8DE
:10190000A930934207D095F8AA3003F00703042BBF
:1019100001D185F8A9200023AB8602E0282385F8B1
:101920009B3057468E4BD3F8143193F8D02082F079
:10193000020283F8D020B9F1000F0AD0D3F8E120D9
:10194000D3F8E510013241F10001C3F8E120C3F8FA
:10195000E510834B002583F81951D3F814311D8607
:10196000C2E32A23DBE795F91D30002B80F2858343
:10197000717A012015F0C2FF002800F07E83B6F8CE
:1019800011306A8C9B1A1C041ED495F85C2095F8C3
:101990005D309A421DD1052206F10C0105F161006E
:1019A0001DF032FE737CB27C43EA0223A5F8663058
:1019B000022385F85E3095F85D300027013B85F8FD
:1019C000607085F85D30ADE7282385F89B300027EF
:1019D000A8E72A23F9E7717A022015F08FFF002883
:1019E00000F04B83337BF0E795F91D30002B80F23C
:1019F0004483717A082015F081FF002800F03D83B0
:101A00005946284617F0E2FC074600288AD00027EE
:101A10009FE795F91D30002BC0F22F83717A0E20BD
:101A2000E9E7717A092015F069FF002800F02583A5
:101A3000B37B727B1B0443EA0223327B134343F0E4
:101A40007F4343F47E03D5F88C2043F4435343F0A3
:101A500010031340C3F31003C5F88C3095F83830E9
:101A600043F0200385F838300023AB865AE7717ABB
:101A70000C2015F043FF002800F0FF8295F890300D
:101A800013F001074FD1374820F04DF801460028E8
:101A9000BDD095F8903043F0010385F8903003797C
:101AA00043F003030371062343710C23C37109231D
:101AB00003726FF00E034372052383724FF0FF33FE
:101AC000C3720373284620F0C2FA95F8D03043F071
:101AD000800385F8D03018F0F7FC037847700122B6
:101AE00062F30103D5F814210370DBB2C2B143F0F5
:101AF00010030370337B85F89130B27B737B43EA2C
:101B00000223A5F89230F37B327C43EA0223A5F846
:101B1000943095F8903043F0020385F8903001E757
:101B200067F30413E5E713F002037FF450AFAB86CD
:101B3000E0E7717A0F2015F0E1FE002800F09D82A9
:101B4000D4F880310B937BB19D420DD020220F2120
:101B5000284617F07DFC57E7602002004020020075
:101B6000680D0020BC0E002095F91D1095F8A9B055
:101B700095F8A8300029C0F2A0809B4509D095F8BF
:101B8000AA3013F0070302D0043B012B01D8232213
:101B9000DDE795F85C1095F85D30994201D02A2276
:101BA000D5E7B6F80CA01FFA8AF3052B22D9B6F8B0
:101BB0000EE01FFA8EF1B1F5486F1BD88B4219D891
:101BC000B6F810C01FFA8CF0B0F5FA7F12D2738A03
:101BD000ADF834309BB2A3F10A04A4B240F67642C9
:101BE000944207D800FB0114B4EB830F02DA347D72
:101BF000A14201D21E22AAE7BDF83420A5F8ACA06C
:101C0000A5F8AEE0A5F8B0C0A5F8B22085F8B440BC
:101C100096F816C0747D44EA0C24A5F8B64096F8F0
:101C200018C0F47D44EA0C24A5F8B84096F81AC010
:101C3000747E44EA0C24A5F8BA4096F81CC0F47EE1
:101C400044EA0C24A5F8BC4096F81EC0747F44EA10
:101C50000C24A5F8BE4096F820C0F47F44EA0C247A
:101C6000A5F8C04096F8214096F822C044EA0C241A
:101C7000A5F8C240AC8CA14211D1E98C81420ED1B1
:101C800040F2E2416143481E42F2107404FB030338
:101C9000B3FBF1F3E98D9BB2994200F0A2800C9B5B
:101CA00013F0080F95F8AA3000F08A80022262F340
:101CB000020385F8AA30002787E09B4504D095F8F9
:101CC000AA30980740F0AF84B6F80CA01FFA8AF348
:101CD000052B8FD9B6F80EE01FFA8EF2B2F5486FD9
:101CE00088D8934286D8B6F810C01FFA8CF1B1F5A7
:101CF000FA7FBFF47FAF738AADF830309BB2A3F1A7
:101D00000A0080B240F67644A0423FF673AF01FB72
:101D10000220B0EB830FBFF66DAF307D8242FFF43F
:101D200069AFBDF83040A5F8ACA0A5F8AEE0A5F8C5
:101D3000B0C0A5F8B24085F8B400B47D707D40EA2B
:101D40000420A5F8B600347EF07D40EA0420A5F812
:101D5000B800B47E707E40EA0420A5F8BA00347F53
:101D6000F07E40EA0420A5F8BC00B47F707F40EA12
:101D70000420A5F8BE0096F82040F07F40EA042039
:101D8000A5F8C00096F8210096F8224040EA042009
:101D9000A5F8C200A88C824210D1E88C88420DD1EF
:101DA00040F2E2414A43511E42F2107000FB03131D
:101DB000B3FBF2F3EA8D9BB29A4212D095F8AA30A7
:101DC000032262F3020385F8AA300BF1FF3385F892
:101DD000A9300B9B002B7FF4A5ADB34BC3F880510A
:101DE000A0E5B5F8AA3003F0F00343F00103A5F82D
:101DF000AA3060E795F91D30002BC0F23E81717A60
:101E0000102015F07BFD002800F0378195F8A82000
:101E100095F8A9309A423FF4DAAD95F8AA3003F06C
:101E20000703042B7FF4D3ADB6F80CE01FFA8EF352
:101E3000052B1ED9B6F80EC01FFA8CF2B2F5486F0A
:101E400017D8934215D8348AA3B2B3F5FA7F10D2CB
:101E5000708A87B2A7F10A0189B240F6764A5145E5
:101E600007D803FB0223B3EB870F02DA337D9A42D4
:101E700002D21E2210216BE60027AF86A5F8ACE047
:101E8000A5F8AEC0A5F8B040A5F8B20085F8B4300A
:101E9000B27D737D43EA0223A5F8B630327EF37D2E
:101EA00043EA0223A5F8B830B27E737E43EA0223E8
:101EB000A5F8BA30327FF37E43EA0223A5F8BC309E
:101EC000B27F737F43EA0223A5F8BE3096F8202044
:101ED000F37F43EA0223A5F8C03096F8222096F853
:101EE000213043EA0223A5F8C23095F8AA30012236
:101EF00062F3020385F8AA3014E5717A112015F017
:101F0000FDFC002800F0B98095F8A80095F8A930EC
:101F100083423FF45CAD337B0F2B7FF458AD95F9D2
:101F20001D30727B002B15DB1A2A13D195F85D301A
:101F300095F85C1099427BD001234FF0000163F3C8
:101F400007015A4A5A4B5B489B1ADB0863F38F110F
:101F5000FFF7E0B9232A1DD0D4F880118D420DD0AF
:101F600001234FF0000163F30701504A504B5248E0
:101F70009B1ADB0863F38F11FFF7CCB900218B426A
:101F8000B8BFD5F8CC30C4F8801185F8A900A9866F
:101F9000B8BFAB6595F8AA3013F008033FF417AD4E
:101FA0003272EA8C0A233371AB8CB281EA8D738171
:101FB0005A437D2353434FF47A7293FBF2F3F38138
:101FC000B0E4717A072015F099FC002855D095F8F7
:101FD000A82095F8A93093423FF446AD95F8AA3071
:101FE00043F0100385F8AA3095F91D30002B9DDAD7
:101FF000D4F880319D42B3D10023C4F8803195F8E4
:10200000AA3085F8A92013F008034BD00A233371B6
:102010001A233372EA8CAB8CB281EA8D73815A43F6
:102020007D2353434FF47A7293FBF2F3F3811BE564
:1020300095F8AA30052262F30203B5F8AE20A5F8A0
:102040006220D5F8B0206A6695F8602085F8AA303D
:10205000012083F0080360F30102C3F3C0030027EB
:1020600063F38202013985F87000EF6685F860201D
:1020700085F85E0085F85D1054E410481FF053FDAC
:10208000014600283FF4C3AC037980F808A043F070
:1020900003030371022343710723C37128461FF012
:1020A000A8FF94E41F463DE4680D0020EC330200D5
:1020B0001C340200C2840200F4840200BC0E002022
:1020C00094F8191109B984F8192194F81951013DAE
:1020D000EDB284F819511F8EB5FA85F56D09002F00
:1020E0007FD1DA8D1A86B846C24AD2F8149199F88F
:1020F000D03013F0800F4FEAD31B924608D1D9F8A5
:10210000140128B11907D9F818C16FD584456DD0CD
:1021100099F8D03043F0800389F8D03018F0D4F922
:102120000378012262F3010300224270D9F81421DE
:1021300003700446DBB2002A55D043F0100323702D
:1021400023786FF3471323700023A370A94B5A7DA4
:10215000032A00F08280002D7DD10A9A2AB1327ABA
:10216000D20602D46278002A75D0D3F8142192F8EE
:102170009B50002D6FD1022296205A7518F040FA1C
:10218000284618F0A9F918F003FBDAF8145123785F
:1021900095F8D020C2F3000262F3C30395F8D02073
:1021A000C2F3400262F3820300212370084618F054
:1021B000AFF895F8D0309B064FF001025FD51F2194
:1021C000082018F0EBF8214605F1F20018F028FB82
:1021D00018F016F918F044F900283FF4E0A9FEF7CA
:1021E0004EBE00277FE762F30413A8E799F8292180
:1021F00099F82831011D8C1813B9637889F82831B2
:102200002AB18B5C4FF0010E6EF301038B5499F8E9
:1022100028319B1ADBB2637011F802E01B2B6FF3BD
:10222000041E01F802E005D91B2363708B5C43F0A8
:1022300010038B5403681BB18B5C43F010038B5469
:10224000BCF1000F7FF47CAFD9F82031984218BF61
:10225000C9E9460074E703225A751A7D042A0BD196
:10226000D3F8143193F8D0206BF3C71283F8D02041
:1022700018F0D8F8FFF793B918F044F985E708206B
:102280001B2118F08BF82046A2E7237D032B00F2D8
:10229000CA81DFE813F0A601040051009700032F64
:1022A00009D194F828305E0705D016F00DF918F022
:1022B000B3F8FEF7FCBD18F071F9637D032B63D111
:1022C00094F8283013F040035ED160684268556886
:1022D0001DB102220DF13E01A847BDF83E1040F2AB
:1022E0004712B1FBF2F302FB131341F25F0200212C
:1022F00006920133404A05921BB2CDE90311CDE9A4
:102300000111009105220846ADF83E3014F0D0F9D5
:1023100030F0020338D0A37C052B35D001234FF0D9
:10232000000163F30701354A354B36489B1ADB0839
:1023300063F38F11FEF7EEBF032F19D1962018F02B
:102340005FF9002319461A46184618F0D1F8D4F858
:10235000343194F8392153F82200083018F04AF843
:1023600018F0DEF80123637518F050F8FEF79FBDF2
:1023700018F014F9637D052B06D100230093042285
:102380001946184614F0DCF9002525756575657445
:1023900018F0BAF92A46294628461B4B13F020FCB0
:1023A0000546002800F0338101234FF0000163F35C
:1023B0000701124A124B15489B1ADB0863F38F1171
:1023C000FEF7A8BFD4F814010028DDD090F89B10C8
:1023D000F1B1237D032B03D090F83830DD0717D5FA
:1023E00016F0F8F8D4F8140115F0D6FF0023C4F85D
:1023F0001431C9E7680D00208D7C0100EC33020028
:102400001C3402001D850200A07D002029880200E6
:10241000B0F82A9094F8185109F10107BFB2002DC5
:1024200072D0237D032B63D118F0A6F9834618F0F0
:10243000A9F9D4F81451DFF830A2ABEB00018046C3
:10244000A86C00F1580399420A9385A3D3E90023AD
:1024500040D8A0FB0A01FDF793FE0A9B984420F0A8
:102460007F46A8EB0B007EA3D3E90023A0FB0A0163
:10247000FDF786FE20F07F43D5F814110022AA64F0
:102480002A6579B3497911B995F8291101B16A859D
:10249000D4F8142100219185D4F81401028EBAB128
:1024A000974280F09680D21B92B20021062A0286C3
:1024B000418540F29080227D032A09D1B9F1000FB5
:1024C00040F08980416D4A0811F0010136D1426522
:1024D000002136E0A1FB0A01FDF752FE022320F0A5
:1024E0007F46C9E795F83820D207D1D5EA8CCEE7E8
:1024F00041B190F8383043F0010380F838300023C0
:102500001E46C5E70B46FBE7838D83B19F4204D28D
:10251000DB1B83852B461E46BEE73E2116F05AF88C
:10252000D4F8140115F038FFC4F814512CE7018ECB
:102530000029F0D1C38D03860B46ECE742F0004240
:102540004265828E1AB1974247D2D71B878690F890
:102550005D5090F85C20954206D090F85E20013ADC
:10256000012A9CBF00224285458D09B94D4536D0D0
:102570000135ADB256EA030203D115B900293FF483
:1025800003AF90F8202000930732D7B22E4A069767
:10259000CDE90412002133460395CDE901113A46F5
:1025A000084614F085F830F002033FF4EDAEA37C4A
:1025B0009F423FF4E9AE01234FF0000163F30701AE
:1025C000224A234B23489B1ADB0863F38F11FEF743
:1025D000A1BE082104E70121B3E7222100E70D464F
:1025E000C8E7043FFFB2012F0DD901234FF00001CE
:1025F00063F30701154A164B17489B1ADB0863F370
:102600008F11FEF787BE00236375FEF774BC206848
:10261000436829465B68984701221146284613F013
:10262000B7FAFEF768BC01234FF0000163F307011E
:10263000064A074B09489B1ADB0863F38F11FEF724
:1026400069BE00BFAFF30080D57C0100EC3302000F
:102650001C3402007B850200E18502002A82020010
:102660008D49FD1A0700000000CA9A3B00000000D7
:102670002DE9F04FA04F8FB002230D9397F928302A
:102680008DF82F10002B804692463E4601DA0C252D
:1026900023E097F879202A234FF0270919FB023904
:1026A00017F8093013F00E0F40F0E280D7F8CC5045
:1026B000002DECD107F586701FF035FA044600288E
:1026C00000F0148107F5A0701FF02DFA48B907F546
:1026D000867120461FF040FA072528460FB0BDE856
:1026E000F08F4FF6FF732362637FE57703F03F03BC
:1026F00063F07F0363770623A38594F83830A562DF
:1027000023F0230384F838304FF4C773C4F88C30B7
:1027100094F89030258623F0030384F8903094F8E1
:10272000AA30A58665F30413C4E91155A565A4F87C
:102730005C50A4F8985084F89B50C4F89C00A4F80E
:10274000A85084F8AA3084F8D050C4E94555C4E9AB
:102750004755C4F82451A4F8285116F0FBFDC7F8DA
:10276000CC4096F829309DF82F2062F302036AF3DB
:10277000C40386F82930D6F87C31F3612723B3618E
:10278000012100230DF12F0033621FF032FA17F8F8
:10279000093003F00F03012B6CD14FF4277358431A
:1027A00000F59C70554952A3D3E90023A0FB010119
:1027B000FDF7E6FCD6E906239A4238BF1A46706256
:1027C00093461FF0D0FA8246B8F1000F5AD117F89D
:1027D000093003F00F035A1E5342534196F8285014
:1027E000474F484A63F38615736A86F828500DF1FF
:1027F000340915F040055B44CDE907794AD0002043
:10280000CDE90520CDE90303CDE901300090534621
:102810000522032113F002FF022837D00D9800286B
:1028200057D102230D93384B0690CDE90779CDE9B6
:102830000200CDE9040303224AF2FE330093019023
:102840005346114613F0EAFE02283ED00D9D002D9E
:102850003FD196F8283043F0800386F8283096F868
:10286000E030DB073FF539AF01201FF0E4FC34E72F
:10287000002476E7022B0CBF4FF4297340F2FC537F
:1028800058438FE70023A9E71FF0F3FA0D9B022BB3
:10289000FAD0C3E71D4802951FFA88F8CDE9035323
:1028A000A8FB00019123CDE9052503FB081110A326
:1028B000D3E90023FDF764FC5346CDE9005005221F
:1028C00003212846BEE71FF0D4FA0D9B022BFAD055
:1028D000BCE7002C3FF4DBAED4F89C000C491FF0A1
:1028E0003BF90C4920461FF037F9D0E60925F4E6FC
:1028F0008D49FD1A07000000680D002000CA9A3BB0
:102900007B1E020035910100A5910100002AE78499
:10291000A80E0020740E00202DE9F047504C94F8CA
:10292000E0508CB01F4615F001054FF002030E4633
:102930000B93114604D00C2528460CB0BDE8F08757
:1029400094F8E13060F3000366F30413062204F107
:10295000E20084F8E130434E1CF056FEBDF85020F2
:102960004FF0910AA2FB06010AFB02113AA3D3E938
:102970000023FDF705FC94F8E1309DF85420D4F8CD
:102980007C91C4F8F00062F34203BAB2A2FB06677E
:102990000AFB027784F8E130272300F10908C4F824
:1029A000D030C4F8D4902CA3D3E90023C4F8D85075
:1029B00030463946FDF7E4FBA0F12703984594BF64
:1029C000C4F8DC80C4F8DC3082461FF0CCF90BABD5
:1029D0000893254BCDE90653244B0593D4F8DC30FE
:1029E000B9F1270F2CBF4B4427338046CDE9035361
:1029F000304619A3D3E900233946FDF7C1FB104641
:102A000019464FF47A720023FDF7BAFB0095CDE921
:102A100001A0434606220321284613F0FFFD0228A9
:102A200013D00B9D002D86D194F8E03043F00103C4
:102A300084F8E03094F92830002BFFF67DAF0220B7
:102A40001FF0F9FB78E71FF014FA0B9B022BFAD06A
:102A5000E7E700BFAFF300808D49FD1A07000000D3
:102A6000680D0020002AE7847B1E02006D910100A2
:102A70002DE9F84F4FF08052254E057BD6F804958E
:102A8000D2F81080044615B11FF06DF905460223F7
:102A9000C6F8043518F05AFADFF874B0DFF874A0FD
:102AA00000276368CBF8083518F050FAA368A3EB49
:102AB0000803A360636843446360237B013773B9F1
:102AC000A368002BEDD1124BC3F8049518F03EFA21
:102AD000A068003018BF01204042BDE8F88F1FF009
:102AE00042F929461FF041F9B0FBF7F60644606948
:102AF00005A3D3E90023A0FB0A01FDF741FB20F069
:102B00007F408642DCD9DEE78D49FD1A07000000D0
:102B100000E0014000CA9A3B2DE9F04F8FB0D0F899
:102B200004A0DFF8D8900DF1370180460DF1360092
:102B30001FF097FB9DF836300A939DF837300B93C2
:102B40001FF011F9DAF81040A4FB094526A3D3E9D8
:102B500000230027834629462046FDF711FBCDE9D7
:102B60000777234B0593CDF818800646DAF8140052
:102B70001DA3D3E90023A0FB0901FDF701FB1D4BB9
:102B800026F07F46A6FB039A20F07F400723CDE97D
:102B9000037003FB06AAB4EB090065EB0A014FF4CE
:102BA0007A720023FDF7ECFA5B46CDE901600097ED
:102BB0000B9A0A98032113F031FD30F002030AD179
:102BC00045F6B3110C4819F079FB38B9D8F808006C
:102BD0000FB0BDE8F08F6FF04700F9E76FF03B00F2
:102BE000F6E700BFAFF300808D49FD1A0700000033
:102BF000A1AF01008D49FD1AF41A002000CA9A3BCA
:102C00002DE9F347057B044615B11FF0ACF80546E6
:102C1000676817F003007CD0A268216827F00307DB
:102C2000C0F1040696423B68019328BF164601ABEB
:102C3000324618441CF0E8FC18F088F9019B3B6010
:102C4000636833446360236833442360A3689E1B36
:102C5000237BA660002B5CD01FF085F829461FF06F
:102C600084F83349460060692FA3D3E90023A0FB11
:102C70000101FDF785FA20F07F40864249D918F01E
:102C800065F94FF0FF3002B0BDE8F08718F05EF94B
:102C900023681A6863681A60636804336360236892
:102CA00004332360A368043BA360237B08F101087D
:102CB00093B11FF058F829461FF057F8B0FBF8F908
:102CC0008144606932463B46A0FB0A01FDF758FA91
:102CD00020F07F408145D2D8A268032AD6D8A2B17D
:102CE000636821681B68019301A81CF08DFC18F033
:102CF0002DF96368019A1A60D4E9012123680B4415
:102D00000A44236000236260A36018F01FF90020CA
:102D1000B9E74FF00108DFF818A003A7D7E900676B
:102D2000DAE700BFAFF300808D49FD1A070000000D
:102D300000CA9A3B70B5064610460C461FF0A2FC2E
:102D4000054630460BF060FC2B46A28801880248FD
:102D5000BDE870401AF02EBAAB41020010B50A4629
:102D60000C46014602481AF025FA024B1C8010BDA1
:102D70001B420200F41C002008B5014602481AF06C
:102D800019FA002008BD00BF0C42020008B5024835
:102D90001AF010FA002008BDFB41020070B588B09F
:102DA00003AB4FF4E022CDE9062305930E46856977
:102DB00004460BF029FC2A7801880C481AF0FAF92D
:102DC00048F2042105A81EF008FA297805A81FF08A
:102DD000EBFB0023009305AA314620461EF026FA9D
:102DE00010B103481AF0E6F908B070BD03410200C3
:102DF0001D41020013B5014620B114481AF0DAF95A
:102E000002B010BD12481AF0D5F9124912481DF04F
:102E1000BDFC044610B101461048EFE701F022FC6A
:102E20006946204605F03CFD48B10D481AF0C2F94C
:102E3000032008F0D9FA0B481AF0BCF9E0E70622A3
:102E40000DF1010108481CF0DFFBF1E7E83F02004B
:102E500008400200F8350200503602001F40020010
:102E60004240020060400200747F0020F8B5154621
:102E700020F0E4F81B4B1C4E1A68306002F5FA7221
:102E800082421F4601D91860F8BD184C227822B939
:102E90004FF47A71164819F0D1FC217815481AF0D0
:102EA00089F92378B5F5804F03F10103237011D020
:102EB00008D8B5F5005F03D029460F481AF07AF913
:102EC000002308E0B5F5004F0AD0B5F5803FF3D1F7
:102ED000032300E00123094A137033683B60D3E702
:102EE0000223F8E770020020B40200204C1D0020ED
:102EF000840200209E400200B740020074020020BD
:102F000010B5124C217801F1FF3CDCF1000242EBDC
:102F10000C0200F80F2C0E481AF04CF900230D4952
:102F20002370BFF35B8F51E8003F43F0010241E89B
:102F300000200028F7D1BFF35B8FDB0705D40839E9
:102F40000548BDE810401FF01EBE10BD4C1D0020FE
:102F50007240020080020020741C0020F8B58368D3
:102F600084691E69054610461FF08CFB20702846B8
:102F70000BF04AFB2278018816481AF01BF96068AA
:102F800023784268B3FA83F35768A27800215B097B
:102F9000B8476178227891421AD0AB689B88BBB160
:102FA0000D481AF007F92378637048F2042130467F
:102FB0001EF013F9217830461FF0F6FA28460BF080
:102FC000E3FC014620B10548BDE8F8401AF0F2B82C
:102FD000F8BD00BF534102006D4102008D41020067
:102FE00070B5244A10F8043C128888B00546D2B95E
:102FF0002149ADF8102051F823404FF4803001A949
:10300000CDE90601059105A815F8031CCDE90222BA
:10301000ADF80C301FF0C8FA05AA02A92046FFF748
:103020009DFF08B070BD154A52F82360B468A188AE
:103030000029F6D010F8032C11481AF0BBF848F21A
:10304000022120691EF0C9F815F8031C20691FF041
:10305000ABFA0C4B206919784A1C1A701FF0A4FABD
:1030600030460BF091FC01460028DAD006481AF0F1
:10307000A1F8D6E7F41C0020E4740020D4740020EA
:10308000D54002004D1D00208D41020070B5044660
:103090000D46164607481AF08DF832462946204656
:1030A000FFF75CFF324629462046BDE87040FFF737
:1030B00075BE00BF4441020070B506460B4C084681
:1030C000154618F0F9FA04EBC6042946606040F290
:1030D000011219F0BFFC606843685C682A46A44688
:1030E00001230021BDE87040604700BFF474002058
:1030F00010B53448344C1AF05DF81FF09FFF334B85
:1031000033491860334B34480022C0E90232426030
:1031100010301FF0AFFF314818F0CEFA4FF4917223
:103120000D21206019F096FC4FF491720E21206859
:1031300019F090FC4FF491720F21206819F08AFC6D
:1031400010214FF49172206819F084FC2449254B1A
:1031500020684B604FF4F0338B604368DB680BB141
:10316000012298470D21206819F06BFC0E21206880
:1031700019F067FC0F21206819F063FC102120680A
:1031800019F05FFC112215490020FFF795FF12226C
:1031900012490120FFF790FF132210490220FFF788
:1031A0008BFF0E4914220320FFF786FF0E4804F020
:1031B00059FF014620B10D48BDE8104019F0FABF93
:1031C00010BD00BFE3410200B002002070020020E9
:1031D000012F0000E12F000074020020F4410200E2
:1031E000180200206D2E0000F52D0000E83F0200BF
:1031F00010B5094C0A44914200D110BD11F8013BB1
:1032000043401809205C80EA0310C3B21809205C0F
:1032100080EA0310C0B2EEE7514202000B680133AE
:103220000B60014B1B681847487600202DE9F04FD2
:1032300085B09B460E9CDFF890A0012CB8BF0124FE
:10324000012B0CBF3023202315468046894601946C
:10325000029301260A2700220AF101040AB9AA45AD
:103260001FD2B5FBF4F049463030C0470136012289
:10327000013F012FB5FBF4F14FF00A0304FB115598
:10328000BAFBF3FAE8D1494605F13000C047BBF17B
:10329000030F03D1019B9C1B002C0FDC05B0BDE884
:1032A000F08F019BBB42E3DBBBF1020FE0D8494644
:1032B000029803920136C047039AD9E74946202075
:1032C000C047013CE8E700BFFFC99A3B014B1860CB
:1032D000704700BF4876002007B5002301930246DF
:1032E0000B46034801A919F014FE03B05DF804FB76
:1032F0001D3200000CB430B585B008ABCDE901013A
:1033000053F8042B00930446002501A906480395B1
:1033100019F0FFFDDDE902309842B8BF255405B031
:10332000BDE8304002B07047EDCE010010B54FF05F
:103330002003EFF3118483F3118800F0F1F9094AB7
:103340000123C2F840354FF08042C2F87835064B71
:103350004FF0FF329A62DA6284F31188BFF36F8F05
:10336000002010BD00E0014000ED00E020B1034B63
:10337000800143F001031847704700BFF035020099
:10338000014B1868704700BF4C760020F0B508224A
:1033900089B00C4606461AF0D9F8CB6A03930B6B3A
:1033A00004934B6B05938B6B0693CB6B07930027B2
:1033B00008236A4669466846CDE90177009719F007
:1033C000CAFF082305466A463146304619F0C3FF56
:1033D000236B0393636B0493A36B0593E36B054427
:1033E000CDE906376A4608236946684619F0B3FFF7
:1033F0003146054408236A46304619F0ACFF236A7B
:103400000093636A0193A36A0293A36B0693E36B31
:103410000793054408236A463046CDE904770397AD
:1034200019F099FF636A0093A36AA26B0193E36AA0
:1034300002930492636BE26B0393CDE90523236A45
:103440000793054408236A46304619F084FFE36A6F
:103450000093236B0193636B0293236A0693A36A21
:103460000793054408236A463046CDE9047703975D
:103470001AF0A2F8236B0093636B0193A36B029382
:10348000E36B0393636A0693E36A07932D1A082399
:103490006A463046CDE904771AF08EF8636B0093E4
:1034A000A36B0193E36B0293236A0393636A049310
:1034B000A36ACDE90537236B07932D1A08236A46C3
:1034C00030461AF079F8A36B0093E36BCDE901372E
:1034D000636A0393A36A0493E36ACDE90537636BD8
:1034E00007932D1A08236A4630461AF065F82D1AFC
:1034F0000D4C0FD435B90822314620461AF032F867
:1035000001280FD008232246314630461AF054F8DD
:103510002D1AEFE7082322463146304619F01BFFEB
:103520002D18F7D409B0F0BDA8360200F0B5284E2A
:1035300007460C460FCE8DB001AD0FC50FCE0FC59F
:1035400096E8070085E80700002F3CD0002C3CD00F
:10355000381F2146024610344B780D781B0443EA8D
:103560000563CD782B438D78043143EA05238C42E3
:1035700042F8043FF0D1174C04218A07036918D19F
:103580004FEA33631A0EA55CDAB2A25C42EA056226
:10359000C3F30745C3F30723655DE35C42EA0542D5
:1035A00042EA03220CAD21F003032B4453F82C3CD8
:1035B000534050F8042F013153402C290361DCD1D2
:1035C00001200DB0F0BD3846FBE72046F9E700BF0B
:1035D00040350200744202002DE9F043154689B0DF
:1035E0000746002859D000295AD0002A5AD0102363
:1035F0000A466846194619F0EBFD29466846DFF889
:10360000A8901AF0F0FC05F11006C846A0356C46EB
:103610006A4610231178013B19F8011002F8011BCA
:10362000F8D168461AF024FD694604A81AF059FD3D
:1036300001A905A81AF055FD02A906A81AF051FD26
:1036400003A907A81AF04DFD102319460DEB03023C
:10365000684619F0BDFD3146684610361AF0C3FCC5
:10366000AE42D4D110262378013E18F8033004F876
:10367000013BF8D168461AF0FBFC294668461AF06F
:10368000B2FC102319466A46384619F0A1FD684677
:103690001022314619F0A9FD012009B0BDE8F083E0
:1036A0000846FAE71046F8E7744202000C4B1B7814
:1036B000062B10D10B4B1B681A070CD10A4B18684C
:1036C00000F0F003302B08D000F0E000A0F1400340
:1036D000584258417047002070470120704700BF92
:1036E000E00F00F0E40F00F0E80F00F0094B1B784A
:1036F000062B0CD1084B1B681A0708D1074B18681A
:1037000000F0F000A0F1300358425841704700200B
:10371000704700BFE00F00F0E40F00F0E80F00F08A
:1037200008B5FFF7C3FF28B1784B794A1B68C3F38C
:1037300004231360FFF7DAFF10B1764B764A1A6064
:10374000FFF7B4FF28B1754B754A1B68C3F34233CA
:103750001360FFF7CBFF20B1724AD36823F0807368
:10376000D360FFF7A3FF40B14FF080430022C3F8BE
:103770000C21C3F81021C3F83825FFF7B7FF10B1AB
:10378000694B03221A60FFF7B1FF40B1674B052276
:103790001A6001229A6700229A603F225A60644BA5
:1037A0001B78062B50D1634B1B6819074CD1624B19
:1037B0001B6803F0F003502B46D14FF080525F4B53
:1037C000D2F80414C3F82015D2F80814C3F824154D
:1037D000D2F80C14C3F82815D2F81014C3F82C151D
:1037E000D2F81414C3F83015D2F81814C3F83415ED
:1037F000D2F81C14C3F84015D2F82014C3F84415AD
:10380000D2F82414C3F84815D2F82814C3F84C157C
:10381000D2F82C14C3F85015D2F83014C3F854154C
:10382000D2F83414C3F86015D2F83814C3F864150C
:10383000D2F83C14C3F86815D2F84014C3F86C15DC
:10384000D2F84424C3F87025FFF730FF28B13C4B71
:103850003C4A1B6803F04F031360FFF727FF48B192
:103860004FF08043D3F80024D20744BF6FF0010229
:10387000C3F80024344B1B68062B08D1334B1B685C
:10388000062B01BF324A136843F4806313604FF084
:103890001023D3F80022002A03DBD3F80432002BD4
:1038A0002FDA2C4B0122C3F80425D3F80024002A78
:1038B000FBD04FF010221521C2F80012D3F80024DB
:1038C000002AFBD04FF010231522C3F80422214B0D
:1038D0001A46D3F800140029FBD00021C3F80415C0
:1038E000D2F80034002BFBD0BFF34F8F1A491B4B8B
:1038F000CA6802F4E0621343CB60BFF34F8F00BF8E
:10390000FDE7174B174A1A6008BD00BF24030010DB
:103910004035014074C007400DF0ADBA44020010BC
:103920003C050040F0ED00E0A005004010560040CE
:10393000E00F00F0E40F00F0E80F00F000C00040DE
:1039400058020010E40E0040300100103401001055
:103950003C17004000E0014000ED00E00400FA05E3
:10396000507600200090D00310B5114C114AA2618E
:103970000323C4E90433104BE36122664FF48063F0
:103980000E4A23626266002310220D49A362E01DE5
:103990006362E3622367E3666367A2661BF0CFFDA1
:1039A000084920461BF0CBFD2023A37110BD00BFAA
:1039B000B8020020744302005E1D00204E1D00204E
:1039C0007D43020081430200DFF888C018232DE9FF
:1039D000F04703FB00C78A46BE6A7C6AA6421546CA
:1039E0002DD8D7F82090A9EB040808F1FF3E9645A2
:1039F00009D300FB03339C44DCF8040020441BF093
:103A000003FE2C440DE07644B24221D800FB033380
:103A10000CEB0306904570682044144405D91BF054
:103A2000F3FD7C620120BDE8F0874246A4EB090467
:103A30001BF0EAFD22460AEB08017068EFE7013E41
:103A4000361BB24204D800FB033363445868D5E701
:103A50000020E8E7B8020020F8B5184C182300FB56
:103A6000033503FB00402544C46A012C0F4616466B
:103A700011D024B1022C1BD000242046F8BD2846CA
:103A80001AF06DFCB042F8D33246394628461AF097
:103A900074FC3446F1E728461AF061FC864234464D
:103AA00028BF04462246394628461AF066FCE4E759
:103AB0002846BDE8F8401AF07ABC00BFB8020020E2
:103AC000034A182303FB00239A6A586A801A704736
:103AD000B802002007B5002201A90848019217F09A
:103AE0001FFF10B100F0FCF90190019818B10123FB
:103AF00043600023038103B05DF804FB0004002051
:103B000030B50C4D0C4987B000240E23CDE902439B
:103B10004FF44072094BCDE90444CDE900442846F6
:103B200018F058FC284606491FF0A8F9204607B0AF
:103B300030BD00BF9003002048230020F13D00006D
:103B40008843020008B500F0C1F909481AF05FFC8B
:103B500004232822074808491EF06EFF074B084A35
:103B60001A604FF40040BDE8084000F0CBBB00BF36
:103B70006C030020740300201855002054760020A8
:103B80003FE40100F8B50F4BBFF35B8F002553E80E
:103B9000007F43E80052002AF9D1BFF35B8F0A4C43
:103BA0000A4E361B3611B54200DBF8BD63685B79FF
:103BB0002BB12368DB6813B139462046984701359D
:103BC0001034F0E7640300201C3502003C3502008D
:103BD000234B1B782DE9F041054603B950B34FF054
:103BE0002003EFF3118483F311881E481AF01FFCA1
:103BF000074684F31188BFF36F8F78B1BFF35B8FF3
:103C0000194B53E8002F013A43E800210029F8D16D
:103C1000BFF35B8F8DB138461AF0F1FC25B9134B19
:103C20001B680BB1FFF7AEFF0E481AF0FEFB051C38
:103C300018BF01252846BDE8F0810D4C0D4E361BFE
:103C40003611A846B045E6DA63685B7923B123688C
:103C500039461B682046984708F101081034F1E7FF
:103C60005E2100206C03002060030020640300201C
:103C70001C3502003C350200194B70B51B684181B0
:103C800005469847174CE860BFF35B8F54E8003F48
:103C9000013344E80032002AF8D1BFF35B8F4FF0C4
:103CA0002003EFF3118683F311880F4829461AF099
:103CB000B2FB86F31188BFF36F8F0C4B1B7823B1D7
:103CC0000020BDE87040FFF783BF23680A2B06D1B0
:103CD000074B186818B1BDE8704018F09DBA70BD68
:103CE00054760020600300206C0300205F21002038
:103CF000FC030020064BBFF35B8F53E8002F01321B
:103D000043E800210029F8D1BFF35B8F704700BF63
:103D100064030020044A054B9B1AB1EBD30F34BF58
:103D200052F8310000207047EC3302001C350200CD
:103D3000064B4268C31A1B110133137142680123F9
:103D400011605371024A1370704700BF1C350200A6
:103D50005E21002070B5114BBFF35B8F53E8005F0D
:103D60006A1C43E800210029F8D1BFF35B8F2DB90D
:103D70000B4C0C4E361B3611B54200DB70BD237B5D
:103D800043B123685B6903B19847042200212046B0
:103D9000FFF7CEFF01351034EEE700BF68030020C7
:103DA0001C3502003C350200F8B50E4F3D7875B960
:103DB0000D4C0E4EFFF7CEFF361B3611B54207DB1A
:103DC0000020FFF705FF0028FAD101233B70F8BD62
:103DD00063685B791BB1236820461B6998470135EE
:103DE0001034EBE75F2100201C3502003C35020057
:103DF00008B5FFF7AFFF18F031FA094A106028B193
:103E0000084B1B68092B01DD18F006FA0020FFF7AC
:103E1000DFFE0028FAD14FF47A7018F0B9F9F5E70F
:103E2000FC0300206003002037B50546002201A9ED
:103E3000104817F075FD0446D0B90122019BBFF36D
:103E40005B8F53E8001F43E800200028F9D1BFF33F
:103E50005B8F01981F22294604301BF07AFB0198E2
:103E60007E2380F8233080F82440043003B030BD36
:103E70000148FBE77403002090430200054B984281
:103E800005D3783398428CBF002001207047002072
:103E9000704700BF1C55002007B504380190BFF3E0
:103EA0005B8F50E8003F5A1E40E800210029F8D1FE
:103EB000BFF35B8F012B03D101A9034817F05AFD13
:103EC00003B05DF804FB00BF7403002020231A46F2
:103ED000014902481EF0B0BDB85500200004002082
:103EE00037B50023094D01930120FFF771FE044609
:103EF000FFF700FF002201A9284617F011FD08B1C5
:103F0000002CF1D1019803B030BD00BF00040020A7
:103F100007B5002201A90648019217F001FD10B172
:103F2000FFF7DEFF0190019803B05DF804FB00BFCE
:103F3000000400207FB5047A457A019014F0010452
:103F40004FEA15150ED0019B1A7A920704D55B69CA
:103F5000104C0393039BB3B901A90E4817F00AFD57
:103F600004B070BD002DEED0A5420198EBD92146DA
:103F70001AF028FB0646FFF781FF10B13046FFF725
:103F80008BFF0134F0E71D6803A9204617F0F2FC0F
:103F90000395DFE7000400200EB403B503AB014630
:103FA00053F8042B0448019318F0B3FF002002B02B
:103FB0005DF804EB03B07047CDE901002DE9F04F47
:103FC00085B011F00204064690469DF8387001F065
:103FD000010901F0080507D011F0440F34D11A4649
:103FE0003049FFF7D9FF0446B9F1000F0AD02E4B34
:103FF0002E4953F827202E4B3046002A08BF1A4678
:10400000FFF7CAFF3DB12B4B2B4953F82720304611
:10401000FFF7C2FF0546B8F1000F41D0274B284AF1
:10402000042F14BF1F461746BDF840109DF83C00F2
:10403000FFF770FE394602463046FFF7ADFF2844D1
:10404000204405B0BDE8F08F1E4A146834B31E4A00
:104050004FF4616E1168B3FBF1F34FF47A7CB3FB5C
:10406000F4F1B1FBFEF20EFB121E04FB11310CFB4E
:1040700001F14FF03C0AB1FBF4FB04FB1B110CFBFC
:1040800001F1BEFBFAF3B1FBF4F40AFB13E100917A
:10409000CDE901B40D49FFF77FFFA4E72046A2E771
:1040A000064FC1E7F443020054370200695802008A
:1040B000E64302006837020019440200EB430200A5
:1040C000F04302001C04002020040020FD430200F5
:1040D0002DE9F8439846089B1746DA0604460E4633
:1040E00005D49B064CBF21492149FFF755FFDFF856
:1040F00088900025454528DBDFF88080DFF8809038
:104100000025AF4227D9725D49462046FFF744FF9C
:104110000135082DF5D11749DFF85C80DFF8649090
:104120002046FFF739FF0025AF4219D9725DA2F191
:1041300020035F2B28BF2E2249462046FFF72CFF85
:104140000135082DF0D1BDE8F88349462046FFF738
:1041500023FF0135CEE741462046FFF71DFFD7E795
:1041600041462046FFF718FFEAE700BFAB430200D5
:10417000AA430200B7430200B5430200B343020062
:10418000AD430200B943020038B50C46E1070546CD
:1041900003D5084A0849FFF7FFFEE20608D4A30644
:1041A00028464CBF05490649BDE83840FFF7F4BE34
:1041B00038BD00BFE643020069580200AB4302006D
:1041C000AA4302002DE9F0478B7A13F00704174643
:1041D00088B005460E460A7A1CD04989C3F3C2034B
:1041E0008909D2430291CDE9004302F00102F3684C
:1041F0003946FFF7E3FE8146337ADA070CD42946C5
:1042000030461AF079FA4CB3224639462846FFF771
:10421000BBFF23E0A146EFE734BB2746EB680693DC
:1042200006AA3B46A96830461AF052FA069A6B680D
:104230001A603AB1AB68134413F8014CA4F10A03B5
:104240005C425C4128461AF0B4FB069B1F44002BDD
:10425000E4D11CB114492846FFF79EFE28461AF007
:10426000A8FB08B0BDE8F08730461AF0DBF90F492B
:1042700002462846FFF790FE4FF000084FF0080A6C
:1042800005AA434606A93046CDF814A01AF020FA34
:10429000059A002AB8D04B46009706A92846FFF792
:1042A00017FF059B9844EBE7BC43020069580200E6
:1042B00073B5D0E900435D680F4A42F20F738B4239
:1042C00028BF0B466846052101F012FF2B46064623
:1042D0000B22204609491AF002FA2B46324669465B
:1042E00020461AF0FCF92B461B22054920461AF0FD
:1042F000F6F902B070BD00BFC9570200DA430200F0
:10430000BE430200084A10B50123084C1360002187
:10431000A04204D801B11360054B186010BD4008DD
:104320005B000121F4E700BF2004002040420F00A1
:104330001C04002008B5034817F0BEF9024B586072
:1043400008BD00BF3F4402002C04002001481AF0C1
:1043500030BB00BF943702000148FFF7A9BF00BF80
:104360009437020010B508460C461AF01BF9214696
:1043700004480F22FFF726FF2046BDE810401AF040
:104380003EB900BF94370200034B01221A70034B61
:1043900000221A60704700BF712100204C040020E9
:1043A00008B503481AF005FB024B01221A6008BD4C
:1043B000BC3702004C0400200148FFF779BF00BF62
:1043C000BC37020010B508460C461AF0EBF821463F
:1043D00004480F22FFF7F6FE2046BDE810401AF011
:1043E0000EB900BFBC370200044B1B681BB141F281
:1043F00088301EF041BD052017F0CABE4C040020D5
:104400002DE9F84F214FDFF88C9082460E460424A8
:10441000B8463B6823B94FF0FF31484617F080FBA0
:10442000324651460020FFF7CFFAD8F800308346D5
:1044300013B9484617F0E0FB154DBBF1000F18D03B
:1044400001232B70D8F8003033B93046BDE8F88F1F
:104450005CB92C704FF0FF340020FFF731FB0028CF
:10446000F3D02B78002BF3D1EFE7013CFFF7BCFF33
:10447000F2E72B7813B1013C04D12C702B78002B80
:10448000C7D1E2E7FFF7B0FFF8E700BF4C04002018
:1044900071210020C880002013B5114CBFF35B8F41
:1044A0002068BFF35B8F60B90E4817F005F9BFF3C2
:1044B0005B8F54E8003F44E80002002AF9D1BFF3C3
:1044C0005B8F436804221B680DEB020198470028AC
:1044D00002DA00F035FE0190019802B010BD00BF75
:1044E0005004002067440200084B30B51D68084B9B
:1044F000196800239D4202DC0022104630BD1C01D9
:104500000A190C5D8442F8D00133F3E71C3802002D
:1045100058760020084B1B6810B50C462BB1FFF7EE
:10452000E3FF28B12060002010BD6FF00C00FBE716
:104530006FF00100F8E700BF5876002030B589B071
:104540000C4615460190FFF7CFFFB0B143680293C8
:1045500083682268C068CDE903350023CDE90623CE
:10456000059317F0A9F801AA05491EF02FFA07983C
:1045700008B9059B236009B030BD6FF01500FAE75C
:10458000C9F001002DE9FF41114B1D6806460F4699
:104590009046BDB16B680024CDE90001CDE902244D
:1045A0001B680C496A4628469847039B012B0CD090
:1045B0006B683A469C68314643462846A04704B09B
:1045C000BDE8F0816FF00100F9E72046F7E700BF92
:1045D0005C040020EDF1010010B5002304461AF040
:1045E0006BFE024680B101214FF0000361F3070327
:1045F00006480749091AC90861F38F13054821467F
:10460000BDE8104019F03EBF10BD00BFEC33020002
:104610000C350200844402000E4B10B51C680021CA
:10462000224632B941B904605A6818605AB95860D4
:1046300009E011461268F4E70C683CB902605A6858
:1046400012B9C3E9000010BD1060F0E70460086013
:10465000F9E700BF54040020014B1860704700BF09
:104660005C04002038B5094B1C684CB1084D6368E8
:1046700020461B680022294698472468002CF6D162
:104680000020BDE8384000F043B800BF54040020CB
:10469000D9450000024B0022C3E90022704700BF49
:1046A0005404002038B5074B1C68054614B9002493
:1046B000204638BD616828461AF073FF0028F7D0FD
:1046C0002468F3E76004002010B5054C237833B963
:1046D000044AC2E90033FFF7DDFF0123237010BD58
:1046E000722100206004002010B504464068FFF7E6
:1046F000D9FF40B9054B1A6822605A681C600AB994
:104700005C60104610BD6FF01000FBE760040020F5
:1047100030B504468BB068B102AA01A91AF0C1FDF8
:10472000B0B103691BB9002420460BB030BD9847D7
:104730000446F9E7084B1D68002DF4D02B691BB126
:104740009847002C08BF04462D68002DF6D1EBE7F2
:104750006FF01504E8E700BF6004002073B5204D3A
:104760002A78002A38D1FFF7AFFF09231D4A0093AA
:1047700069460320FFF7E2FE38B10C3005D0404017
:1047800080F311884FF0050002DF174C009B637324
:10479000204600F003FAA8B101A90320FFF7BAFEF2
:1047A00001460028EBD1019882681AF0F2FC064617
:1047B00001981AF0A7FC002EE1D1204600F0EEF996
:1047C0000028DCD1084800F013FA0028D7D10648A9
:1047D00000F018FA01232B70002002B070BD00BF5A
:1047E00073210020680400205C7600202DE9F04F42
:1047F00089B0CDE90023264B93F80CA007468946E3
:104800001546984665B92E46009B5D1B019B1D60B1
:10481000129B002B3AD086F0010009B0BDE8F08F62
:10482000102397FBFAFB0AFB0BFB0393D8F800401D
:10483000139803AB04AA5946A047064618BB039C2D
:10484000A7EB0B0B04ABA4EB0B049B44129BAC42F9
:1048500028BF2C4643B12246197858461AF020FF4B
:1048600010B1A0EB0B0401262246594648461AF027
:10487000CBFE039A0F2AA5EB0405C5D9002EC3D1A0
:10488000A1442744BEE76FF00400C6E71298C4E7CE
:10489000B00400202DE9F04FDFF8B8A087B09AF8F7
:1048A0000C7001938346894690461AF073FEB0FB64
:1048B000F7F407FB1404051B2B465A460199109880
:1048C000DAF80460B047019B2B4401932CB12246D7
:1048D0000BEB050102A81AF097FE06AB23443D221C
:1048E00003F8102C01340F2C0DD90025234602AA01
:1048F00001991098DAF80460B04730BB3DBB019BCA
:10490000234401932C46B8F1000F0FD0C4F11005D9
:10491000454528BF454602AB494618192A461AF0B4
:1049200073FEA944A8EB05082C44DCE7B4FBF7F5BB
:1049300007FB15453DB17D1B02AB18192A464146C0
:104940001AF08CFE2C440125D0E76FF0040007B06C
:10495000BDE8F08FB0040020034B10B59B680446FF
:1049600008469847001B10BDB00400202DE9F04711
:1049700086B0124F0E9C8146884692461E461CB950
:10498000204606B0BDE8F087102C234628BF102330
:10499000019302AA01AB314650463D68A847002862
:1049A000EFD1019B7D6802AA41464846A8470028EE
:1049B000E7D1019B1E449844E41AE0E7B0040020CC
:1049C00010B5034CC4E90001A260237310BD00BF01
:1049D000B00400202DE9F04FBFB0054605929B467C
:1049E0000F4629B96FF0150528463FB0BDE8F08F96
:1049F000194638461AF09EFC5B4B5C4A04909B1AA1
:104A0000C3F3C90303934FF000086B7B013B43459D
:104A1000E8DD05F1080409AE3246BDF81010204665
:104A20001AF011F8021D034640F08780204619F065
:104A3000EEFF064610B108F10108E6E7286C1AF00F
:104A4000CEFB2B6C1293CDE90E66494E0EA9204683
:104A50001AF0B7FA98B120461AF0CBFA01460028AE
:104A6000E9D02AF03F0343F0010363F3070A039BF5
:104A7000404863F38F1A524619F0F0FCDBE7AB6A4B
:104A80000E9A9A42E7D10EAB07AA492118A81AF04C
:104A90006CFC0028DAD1079BBDF844200133934217
:104AA000D4D00DF1380EBEE80F000DF14C0CACE87F
:104AB0000F00DEF80030CCF8003013A920461AF0C1
:104AC00080FA38B313AABDF84410204619F0BBFF92
:104AD00003460028BAD1BDF84420009201460EAA30
:104AE00013A8FFF743FF0028B0D113A920461AF0FE
:104AF0002DF801460028A9D029F03F0343F0010317
:104B000063F30709039B63F38F194A46304619F094
:104B1000A5FC9BE713AB08AA49212BA81AF025FC9A
:104B20000028CAD1DDE907239A42C6D12BA918A8CB
:104B30001AF043FD0028C0D188E700287FF452AF67
:104B40002A6C0D9200965A4605993846FFF7A2FE48
:104B5000431D05463FF448AF3146204619F0F6FFA5
:104B6000002D08BF05463FE70C350200EC3302007C
:104B7000A9440200CA44020007B50830CDE900127A
:104B80006B46054A00211AF06BFA002818BF6FF037
:104B9000150003B05DF804FB8FF30100012370B52D
:104BA00004460373837300F10806314603201AF0AC
:104BB000A4F80546B0B930461AF032F800280ADCED
:104BC000E36A206CD3E900121AF0E3FA0028ECD073
:104BD0006FF0040504E0054B63602046FFF71CFD01
:104BE000284670BD6FF01505FAE700BFA0760020DB
:104BF00008B5034B4360FFF72FFD002008BD00BF41
:104C0000A076002090F83E30024A03490348FFF79F
:104C1000D7BE00BF8BF30100C1F30100D5F3010043
:104C20000A2838B50446074D04D1286843680D2189
:104C30005B68984728684368E1B25B6898472046FC
:104C400038BD00BFC004002010B5044C204601F060
:104C500049FA2046BDE81040FEF738BB214C000061
:104C600008B5044816F028FD034B1860FFF7ECFF69
:104C7000002008BD3F440200C004002010B5044CD1
:104C80002046FEF723FB204601F02CFA002010BD41
:104C9000954C00002DE9F341164F174D8DF8070094
:104CA000064603244FF0FF31384616F039FF012243
:104CB0000DF107010020FEF7CFFE8046384616F0C2
:104CC0009BFFB8F1000F05D001232B70304602B0D6
:104CD000BDE8F0812B78002BF8D0013C07D017F00D
:104CE00027FB0028DED1022017F052FADAE72C70F9
:104CF000ECE700BFC88000207421002010B54FF001
:104D00002003EFF3118283F31188154C237833B914
:104D100082F31188BFF36F8F6FF0440010BD013B29
:104D2000DBB2237033B182F31188BFF36F8F6FF062
:104D30000F00F3E70B4B1878012138B1217082F393
:104D40001188BFF36F8F6FF00A00E7E7197082F3E5
:104D50001188BFF36F8F044A11601870DEE700BF3F
:104D6000772100207621002004000040F8B54FF0A4
:104D70002002EFF3118382F31188294A1078441C32
:104D8000147080B183F31188BFF36F8F4FF08043AD
:104D9000D3F80C3403F00113B3F1011F0CBF002052
:104DA0006FF0430009E01F4D2F783FB1107083F37F
:104DB0001188BFF36F8F6FF00A00F8BD01262E70C7
:104DC00083F31188BFF36F8F4FF0804419B33846D7
:104DD00000F09EFBC4F80071D4F80433C4F80463F7
:104DE0002660D4F8002192B10022C4F800210E4AB6
:104DF00013F0010F4FF0010308BFC4F8083300207F
:104E0000C2F8803100F074FB00232B70BEE720BF96
:104E100040BF20BFE5E7C4F800112660F4E700BFFB
:104E2000772100207621002000E100E070B54FF0EE
:104E30002002EFF3118382F31188244D2A789AB16E
:104E400083F31188BFF36F8F4FF08042D2F81C3488
:104E5000D2F8182403F0030343F48033934314BFC0
:104E60006FF04300002070BD01242C7083F3118883
:104E7000BFF36F8F4FF08043154EC3F80421022516
:104E8000C3F81815C3F8045311F0030134604FF050
:104E90001806C3F80863C3F80C21C3F81021D3D156
:104EA0001022C3F83825C3F80463D3F81824D203BA
:104EB00002D4C3F80453C7E7C3F80443FFF756FF0F
:104EC0000028C1D1034BC3F80041BDE77521002084
:104ED0000800004000E100E0F8B54FF080430546CF
:104EE000D3F808C1D3F80423D3F80071D3F804032E
:104EF000D3F80461D3F80C11D3F81041003402F058
:104F0000010218BF0124BCF1000F03D04FF0000CC8
:104F1000C3F808C1002F41D04FF080430027C3F8E9
:104F2000007152B14FF08043224F01224FF0020C2A
:104F3000C3F80823C7F800C01A61EEB959B11D4B78
:104F40004FF08046002119602846C6F80C11FFF783
:104F5000D5FE0123736174B14FF080430021012419
:104F6000C3F810112846C3F80443FFF7FFFE10B939
:104F7000114BC3F80041F8BD4FF080430022C3F845
:104F800004218207DAD50222C3F80823D3F81C349F
:104F90009B07D3D10029DFD00124D0E7002ACCD051
:104FA0004FF08043D3F80C3403F00113B3F1011F29
:104FB000C3D1B7E7340C004000E100E00F4B002202
:104FC00010B4C3F840214FF02002EFF3118482F3B4
:104FD00011880B4AD3F80405116840F24713401AB0
:104FE00020F07F40B0FBF3F003FB0013136084F369
:104FF0001188BFF36F8F10BC17F08EBB00100140FB
:10500000C404002037B51F4816F056FB002835D0E1
:1050100043681D4D1B6801219847002440F2471347
:10502000C5F80845C5F840354FF48033C5F844331A
:10503000C5F8043303F1804303F58A534FF400327B
:105040001C601B680193019B104B0121C3F8802158
:105050001120224600F07EFA112000F049FA0C4A95
:10506000012313602B60D5F8043503F2471323F0B6
:105070007F43C5F84035204603B030BD4FF0FF30C8
:10508000FAE700BFEA4402000010014000E100E03E
:10509000081001404CF6690270B5B0F1FF3F08BF3F
:1050A00010464FF02003EFF3118483F31188144D61
:1050B00014492E68D1F8043501389042A8BF104633
:1050C0009A1B22F07F4240F2471520EAE07002F579
:1050D000A37205FB0020B0FBF5F005FB0060C31ACE
:1050E00023F07F4323F01F0303B9284420F07F40BF
:1050F000C1F8400584F31188BFF36F8F70BD00BF06
:10510000C4040020001001404FF02002EFF311838F
:1051100082F31188084AD2F80405084A1268801AF6
:1051200020F07F4040F24712B0FBF2F083F3118889
:10513000BFF36F8F704700BF00100140C404002010
:105140004FF02003EFF3118283F311880649074BD8
:105150000868D3F8043582F31188BFF36F8F1B1AE8
:1051600023F07F4318447047C4040020001001401E
:1051700004488168406A884203D003494FF0805256
:105180000A607047381C002004ED00E0044800234A
:105190002021C2180133272B82F80013F9D1704760
:1051A00000E100E0094A0A499368096899660949DB
:1051B00058664B6843F080534B60002383F311889B
:1051C000BFF36F8F9368986E704700BF381C002044
:1051D000C43F020000ED00E0202080F31188114957
:1051E0008A684FF028001044EFF3098C80E8F01F24
:1051F0000D4F4FF000664A6A8A603E60506E002391
:10520000536680F3118804B5064880681AF019F9CE
:10521000BDE8044002F1280090E8F01F8CF30988F3
:1052200070470000381C002004ED00E01EF0040F61
:105230000CBFEFF30880EFF30980816931F8021C9D
:1052400011F0FF010229FFD001B51AF0EBF801BD02
:1052500038B51C4C05461C4817F0ACFFA26AD106B5
:1052600002D51A4817F0A6FFA36A1A0702D51848F4
:1052700017F0A0FF134CA36A9B070ED5154817F033
:1052800099FF616BA36A180607D5134817F092FFC0
:105290001DB1A36A23F08003A3620A4CA26AD2075D
:1052A00002D50E4817F086FFA36A9B0602D50C486C
:1052B00017F080FF034B9A6A9A6A42F0FF029A62E3
:1052C000002038BD00ED00E0694602008046020083
:1052D000B4460200C8460200E1460200F846020059
:1052E0001847020038B51E4C05461E4817F062FFED
:1052F000A26AD10402D51C4817F05CFFA36A1A0504
:1053000002D51A4817F056FF154CA36A9B050ED517
:10531000174817F04FFFA16BA36A180407D515486B
:1053200017F048FF1DB1A36A23F40043A3620C4C9D
:10533000A36A590502D5104817F03CFFA36ADA05A5
:1053400009D50E4817F036FF054A936A43F47F43A8
:105350009362002038BDA36A9B04F5D50848F1E7A5
:1053600000ED00E0084502001F450200B4460200BF
:10537000314502004B450200614502007D450200B7
:105380001847020010B5194C194817F013FFA26A0C
:10539000930102D5174817F00DFFA36ADC0102D56F
:1053A000154817F007FF114CA26A100302D51348E5
:1053B00017F000FFA36A590302D5114817F0FAFE4F
:1053C0000A4CA26A920302D50E4817F0F3FEA36AB4
:1053D000DB0302D50C4817F0EDFE044A936A6FEA2E
:1053E00003436FEA13439362002010BD00ED00E019
:1053F00048470200614702007547020090470200DB
:10540000AF470200D5470200F0470200F8B5294D2A
:105410006E68C6F308040746FEF7C6FCE31E092BB8
:105420003BD8DFE803F0053436293A3A3A3A3A38BD
:10543000214817F0BFFEEC6A14F0020404D01F48A4
:1054400017F0B8FE00241CE0EB6A5B0019D51C487D
:1054500017F0B0FE1B4B1B781BB10120FFF7F8FEC5
:105460000CE0194B1B781BB10120FFF73BFF05E057
:10547000164B1B889BB223B1FFF784FF0628044616
:1054800017D039462046BDE8F84000F0D3B80020D8
:10549000E4E70020E9E70E48D2E70E4B0E490F483B
:1054A00016F4F87FA4F1100218BF194617F082FE17
:1054B000C8E7F8BD00ED00E0C4450200DC4502008D
:1054C000FE45020028ED00E029ED00E02AED00E0B5
:1054D0001E460200AB4502009645020055460200FA
:1054E000024A536943F010035361704700ED00E036
:1054F00043B2002B08DB012200F01F0002FA00F08B
:105500005B09024A42F82300704700BF00E100E057
:1055100043B2002B0DDB01225B0900F01F0002FAF1
:1055200000F02033034A42F82300BFF34F8FBFF34C
:105530006F8F704700E100E04209054B00F01F004B
:1055400053F82220012303FA00F01040704700BFF7
:1055500000E100E043B2002BA8BF03F1604301F17A
:1055600001014FEA4111AEBF03F5614300F00F00A6
:10557000034BC9B2ACBF83F800131954704700BF86
:1055800014ED00E008B572B6044B186A18B1002299
:105590001A621DF04FFA62B608BD00BF381C002029
:1055A0002DE9F0418C18884617461E4604220A9BB6
:1055B000099905461DF082FCA4F120030C4923F053
:1055C0000703002221F00101C5E91322C5E916876E
:1055D000996106995960079999600899D9604FF0C7
:1055E00080711E60D961AB646A66BDE8F08100BF5E
:1055F0007BCE0100014910220A60704710ED00E0E7
:10560000404080F3118830BF704700BF404080F3B6
:105610001188DFF81CC0DCF800C01CF4006C0CBF63
:10562000EFF30880EFF3098001B5FFF7EFFE01BD4E
:1056300004ED00E038B504460D46FEF7B5FB052C39
:105640001AD8DFE804F00319191315170D4817F0DD
:10565000B1FD16F003FEAA6901460B4817F0AAFD3A
:1056600029462046BDE8384000F018B80748EEE764
:105670000748ECE70748EAE72146074817F09AFD94
:10568000E7E700BF1C480200BA4802003C4802009D
:10569000624802007C48020097480200052810B5C5
:1056A0000CD016F045FE60B116F042FE0C490D4BD1
:1056B000002808BF19460C4817F07CFDFFF7A0FF33
:1056C000FCE716F045FE0028EED1084C0848A1681A
:1056D00017F070FDA068BDE8104000F00BB800BFE7
:1056E000F6480200FA4802000B490200381C00206C
:1056F0002B49020038B505464FF02003EFF3118423
:1057000083F311881DF0BBFB0A4B9B68AB420BD1A6
:10571000094B5A68C2F3080212B92046FFF742FD4E
:105720005A6842F080525A602046BDE838401DF069
:10573000E9BA00BF381C002000ED00E001B572B6E8
:105740000B4A106A00281EBF002111621DF072F979
:1057500062B6EFF30580A0F110004FEAC0000549E2
:10576000014409C99847BDE80140034800470000CB
:10577000381C0020B83102007151000019F056FEAB
:1057800000F004F830BFFFF7FDBF00BF08B50E4BB7
:1057900083F30988EFF3148343F0020383F314883F
:1057A000BFF36F8F094B0A4A23F07F039360BFF367
:1057B0004F8FBFF36F8F15F0C3FF15F0CBFFFFF7CF
:1057C000E5FC15F0F9FF00BF184D002000000000B7
:1057D00000ED00E01FB5084B0193084B0293084B06
:1057E000039301AB0093074A074B0121684600F081
:1057F000B5F805B05DF804FB0000002000000000D3
:1058000000000B060000002000000120F8B52E4F1C
:105810000E460021B14222DA50F821C0DCF80440E3
:10582000002C4FD0EBB104F1FF3E14EA0E0F06D16D
:105830001F2C04D9DCF800501EEA050F11D00123FB
:105840004FF0000263F307022048214B1B1ADB08CC
:10585000204863F38F1218F001FE6FF01502104616
:10586000F8BD202CD5B2DCF80020DCF808C01AD92D
:10587000B4F1004F19D8013CB4FA84F4C4F11F0408
:105880006400072D4CEA040411D901234FF00002F3
:1058900063F307020D490E4B0F485B1ADB0863F3F5
:1058A0008F122946D7E70824EBE73E24E9E722F0E8
:1058B0001F022A4342F0100244F00104BD60FA6066
:1058C0003C616A1C0131A5E790ED00E0EC33020079
:1058D000F43402005449020077490200034B0522C8
:1058E0005A60BFF34F8FBFF36F8F704790ED00E0AA
:1058F000BFF35F8F014B00225A60704790ED00E0CC
:1059000013490868082810B51ED8FFF7F1FF114C9D
:1059100049680022904201F10C0105D10E4B18702C
:10592000FFF7DCFF002010BDA26051F80C3C23F013
:105930001F03134343F01003E36051F8043C43F0AA
:10594000010323610132E5E74FF0FF30EBE700BFD1
:105950008436020090ED00E07821002010B5034C61
:1059600001232278FFF752FF207010BD782100201C
:1059700008B5084A00231278FFF748FF10F1160F08
:1059800003D0054B0022072800DD08BD98601A618E
:105990000130F8E77821002090ED00E02DE9F04F8C
:1059A000CDB0CDE90C019A4601920023049303E0A7
:1059B000049B019501330493019D15F8010B48B137
:1059C000252874D0DDE90C3198470130F0D14FF033
:1059D000FF33049304984DB0BDE8F08F232C5ED0C4
:1059E00053D8002CF6D0202C059B08BF012305932B
:1059F000019DB6482B4613F8014B0193214619F03F
:105A0000BBFD0028EAD12A2C59D15AF8043B039354
:105A1000002BBFBF5B42039301230B93019B1C78B8
:105A2000AB1C0193039BC92B28BFC82303932E2CC7
:105A30006BD1019B1B782A2B64D1019B5AF8045B24
:105A400001330193019BC92D13F8014B0193A8BFAA
:105A50004FF0FF3521469E4819F08EFD18B1019B8D
:105A600013F8014B0193672C7BDC652C80F2DB8003
:105A7000472C4DDC452C80F2D680002CAAD0252C5A
:105A800000F0FD82C82C97DDA1E72D2C0AD0302C28
:105A90000BD02B2C0A9B08BF01230A93A8E74FF0D9
:105AA0000109A5E701230B93A2E70294A0E72023B5
:105AB000029300230593CDE90A33994699E7A4F1AF
:105AC0003003092B0390B2D80A222B4613F8010B9E
:105AD0000193A0F13003092B0446A3D8039B019D39
