:10000000183D002059530000B31C0200E9510000C4
:10001000E9510000E9510000E9510000E9510000F8
:10002000E9510000E9510000E9510000014E0000D3
:10003000E9510000E9510000AD4D0000991C02009B
:1000400019530000814902001953000019530000A0
:1000500019530000195300001953000019530000F0
:1000600019530000195300001953000019530000E0
:1000700019530000195300001953000019530000D0
:1000800019530000195300001953000019530000C0
:1000900019530000195300001953000019530000B0
:1000A00019530000195300001953000019530000A0
:1000B0001953000019530000195300001953000090
:1000C0001953000019530000195300001953000080
:0C00D000195300001953000019530000E0
:0400DC00FFFFFFFF24
:1000E0007BB972B90029BEBF00204FF0004106E085
:1000F00008BF00281CBF6FF000414FF0FF3000F038
:1001000057B8ADF1080C6DE904CE002909DB002BCE
:100110001ADB00F062F8DDF804E0DDE9022304B048
:100120007047404261EB4101002B1BDB00F055F8AA
:10013000DDF804E0DDE9022304B0404261EB410157
:10014000524263EB43037047524263EB430300F0B8
:1001500044F8DDF804E0DDE9022304B0404261EB3D
:1001600041017047524263EB430300F036F8DDF87B
:1001700004E0DDE9022304B0524263EB430370471D
:1001800053B94AB9002908BF00281CBF4FF0FF31FE
:100190004FF0FF3000F00CB8ADF1080C6DE904CE63
:1001A00000F01BF8DDF804E0DDE9022304B070473D
:1001B000704700BF430803F05533C01A00F03333D3
:1001C000800800F03330184400EB10104FF001337A
:1001D00000F00F305843000E70472DE9F04F099F93
:1001E000154604468E461E46002B40F0CC808A42BF
:1001F000B2FA82FC4CD9BCF1000F0BD0CCF1200834
:1002000001FA0CFE20FA08F802FA0CF548EA0E0E84
:1002100000FA0CF44FEA15491FFA85F8BEFBF9FA0B
:10022000210C09FB1AE30AFB08FB41EA03439B4547
:100230002AD9EB180AF1FF3004D29B4502D9AAF162
:1002400002002B44A3EB0B03A4B2B3FBF9F209FBAE
:10025000123302FB08F844EA0344A04516D92C19CE
:1002600002F1FF3303D2A04501D9931E2C44A4EB25
:10027000080443EA004027B124FA0CF400233C6050
:100280007B603146BDE8F08F5046DBE71346EEE772
:1002900002B9FFDEBCF1000F2ED18B1A01264FEA06
:1002A000154EAAB2B3FBFEF8210C0EFB183308FB67
:1002B00002F941EA0343994561D9EB1808F1FF308F
:1002C00004D2994502D9A8F102002B44A3EB0903FB
:1002D000A4B2B3FBFEF10EFB11334A4344EA0344DC
:1002E000A2424ED92C1901F1FF3303D2A24201D907
:1002F0008B1E2C44A41ABCE7CCF1200E02FA0CF59C
:1003000021FA0EF901FA0CF320FA0EFE4EEA03036D
:100310004FEA154800FA0CF4B9FBF8F11FFA85FE14
:1003200008FB1192180C01FB0EF640EA02429642BD
:1003300021D9AA1801F1FF3003D2964201D9881EB3
:100340002A44921B9BB2B2FBF8F908FB192209FB65
:100350000EFE43EA02439E450FD9EB1809F1FF3622
:1003600004D29E4502D9A9F102062B44A3EB0E0349
:1003700046EA004693E70846E3E74E46F6E740467E
:10038000A4E70B46B6E78B4205D90FB1C7E90001D8
:100390000026304675E7B3FA83FCBCF1000F0FD19D
:1003A0008B4201D3824209D8841A61EB030E0120EB
:1003B000002F6AD0C7E9004E002662E76046F7E7E3
:1003C000CCF1200E03FA0CF322FA0EF521FA0EF40A
:1003D0001D4301FA0CF320FA0EF10B434FEA154AC4
:1003E00000FA0CF6B4FBFAF91FFA85F80AFB19407B
:1003F0001C0C09FB08F144EA0044A14202FA0CF289
:100400003FD92C1909F1FF3004D2A14202D9A9F138
:1004100002002C44641A9BB2B4FBFAF90AFB19449B
:1004200009FB08F843EA044188452CD9691809F109
:10043000FF3304D2884502D9A9F10203294443EAD3
:100440000040A1EB0801A0FB02894945C2464C4689
:1004500002D306D1464504D2B8EB020A69EB050483
:10046000013897B1B6EB0A0361EB040606FA0EFEFB
:1004700023FA0CF34EEA030326FA0CF6C7E900361A
:100480009AE74846C6E74B46D9E73E46F9E60000FC
:100490002DE9F04FC44D1C462B7C8FB00646884694
:1004A0009BB101234FF0000163F30701BF4AC04B2A
:1004B000C0489B1ADB0863F38F1120F0A3FB404078
:1004C00080F311884FF0040002DF94F820300733E6
:1004D000DBB22B7494F91D30002B09DAE36B616CED
:1004E00002FB03330B44216C994294BF6164636443
:1004F000278D94F85C303A44678C92B222853A4456
:1005000097B294F85D209A4259D194F8D0305A07A6
:1005100055D494F8A92094F8A8309A424FD00520D9
:100520001BF0BAFAD5F880310BB19C4247D194F850
:10053000AA3003F00703052B00F22881DFE813F04F
:1005400006005500FA003F003F003F009A4823F0A4
:100550008BFE014698B394F8AA30042262F302039A
:1005600084F8AA30037943F003030371182343711D
:100570000F23C371B4F8AC300381B4F8AE304381BB
:10058000B4F8B0308381B4F8B230C381002303746F
:10059000C37403754FF0FF3343758375C3750376DA
:1005A00043768376C376037743778377A0F8117019
:1005B000204624F0BFF8638EC5F88041A38694F8E6
:1005C0005D2094F85C309A4200F0388105201BF0E1
:1005D00063FA94F85E30013B032B00F2D780DFE82A
:1005E00013F0EF00020345039E0394F8AB90B9F1BA
:1005F000000F1DD0704823F037FE01460028DED0E2
:10060000037943F0030303711123C371032343717F
:100610000F23037294F8AB304372204624F08AF81B
:1006200094F8A83084F8A9300023C5F88031C6E7D3
:1006300094F91D30002B3ADB94F85D1094F85C308F
:100640008B42BCD194F8AA30C4F86C90052262F3B6
:10065000020394F8B42084F8AA30012384F870309F
:1006600012B3B4F8AC30B3FBF2F3013313FB02F373
:100670009BB2A4F86230D4F8B030636694F860306E
:10068000022262F3010394F8AA2082F00802C2F366
:10069000C00262F3820384F860300139012384F8D8
:1006A0005E3084F85D108AE7B4F8AE30E1E7424886
:1006B00023F0DAFD0146002881D0037943F00303DB
:1006C0000371182343711023C371B4F8AC30038154
:1006D000B4F8AE304381B4F8B0308381B4F8B230AE
:1006E000C38194F8B4300374B4F8B630A0F8113074
:1006F000B4F8B830A0F81330B4F8BA30A0F8153018
:10070000B4F8BC30A0F81730B4F8BE30A0F81930F7
:10071000B4F8C030A0F81B30B4F8C230A0F81D30D7
:10072000204624F007F894F8A83084F8A930C5F8DA
:10073000809144E794F8D0301B073FF540AF02208A
:1007400019F09EFE00283FF43AAF94F8AA30032235
:1007500062F3020384F8AA30238CC380022303715E
:10076000037A13430372182343720F23C372B4F83E
:10077000AC308381B4F8AE30C381B4F8B0300382BA
:10078000B4F8B230438219F039FF18E701234FF073
:10079000000163F30701054A054B08489B1ADB0873
:1007A00063F38F1189E600BFB40F00208058020068
:1007B000B058020057C702000811002060C00200B4
:1007C000D5F880310BB9C5F8804194F8603013F04A
:1007D00003036CD0CC4823F047FD014670B394F876
:1007E000603002796FF3010384F86030E38C3B449E
:1007F00006339BB242F00302A4F8683002710C2267
:1008000042710022C27194F870200272E26E40F2CE
:10081000E240B2FBF0F2A1F80920B4F86220A1F89E
:100820000B20B4F86420A1F80D20B4F86620A1F8DC
:100830000F20A1F81130204623F07CFF94F8992076
:1008400094F898309A421DD005201BF025F9AE4847
:1008500023F00AFD0146A8B194F8983084F8993045
:10086000037943F00303037102234371C37194F8C6
:100870009A300372204623F05DFFE38D012B98BF71
:100880000133A386A14B0394029394F820300733DD
:10089000DBB20193A36800932246231D41463046F4
:1008A00001371BF007F967840FB0BDE8F08FB4F88B
:1008B0006890A7EB090292B210040B92BED494F890
:1008C0005C2084F85D2094F8A81094F8A9208A424E
:1008D00008D094F8AA2002F00702052A04BF84F881
:1008E000A910A386D5F880210023944208BFC5F83B
:1008F00080312B74B4F86220A38C9A4214D1B4F8DE
:100900006410E38C99420FD140F2E2435A43B4F8A9
:10091000663042F2107101FB0323013B93FBF2F3BB
:10092000E28D9BB29A4221D0022019F0A9FD60B954
:1009300001234FF0000163F30701754A754B7648B8
:100940009B1ADB0863F38F11B7E5238CC3800A235E
:10095000037100230372B4F862304381B4F8643049
:100960008381B4F86630C38119F048FED4E9000BE6
:10097000002808DA20F00040A3682060361A9B4562
:100980002CBF5E44F6180B9AA38CB4F862A0DFF873
:10099000A08113FB02F39BB2B3FBFAF18AB20C9273
:1009A0001AFB02F292B2934240F2E24080F0C2801F
:1009B000D31A584380FB080151A3D3E90023FFF762
:1009C000DFFB20F07F4006440C9BA9EB07071F4488
:1009D0002368B4F828909B4538BF9B4694F91D3096
:1009E000CDF834B04F44002B40F2E2492785D4F8CB
:1009F0006CB009FB0AF780F2AA80626C0B99E36B7A
:100A00000C9803FB112395F82021444931F812502A
:100A100094F83820C2F3820231F8122094F8701052
:100A200015447D4305F574253D4A09FB01F105F2A6
:100A30003F25B5FBF2F57A086843963A0344E16432
:100A40000021E5632264A165934294BF63646264FC
:100A5000A0FB08012AA3D3E90023FFF791FB361A74
:100A6000BBFBF9F009FB00F025A3D3E90023A0FBB1
:100A70000801FFF785FB20F07F430B937D1BB4F843
:100A80006430E384B4F86630A4F824A042F2107213
:100A900002FB0373013BB3FBF7F3E385214B3B44BC
:100AA000B3FBF7F794F86030678613F0040308BFD0
:100AB0002386012100201CF0E9FC00220C9001217A
:100AC000104617F0A3FD94F82070174B0737FFB2BC
:100AD000002100973A46084618F070FB30F0020AF1
:100AE00042D001234FF0000163F30701084A094B8C
:100AF0000E489B1ADB0863F38F11DEE4AFF300802E
:100B00008D49FD1A0700000008110020E9B101001D
:100B100080580200B0580200CBC50200DC6302001E
:100B200040420F00FF59620221A70100BEC102002E
:100B300000CA9A3B0AFB113189B24843A4A3D3E906
:100B4000002380FB0801FFF71BFB361A3CE7A0A33C
:100B5000D3E90023ABFB0801FFF712FB20F07F4035
:100B6000431C0B933D468AE7A5FB088998A3D3E96C
:100B7000002340464946FFF703FB41F652430893E2
:100B80008F4B0D9ACDE906438E4B0593E3681A44CB
:100B90008D4B20F07F44A4FB03BC072303FB04CC54
:100BA000B8EB0B0069EB0C01CDE903A200234FF475
:100BB0007A72FFF7E5FA0B9B0093CDE901403346CB
:100BC0003A465146504618F067FA30F0020088D194
:100BD0000C9B002B3FF468AE012211460FB0BDE81C
:100BE000F04F17F013BD94F8603013B3774823F03B
:100BF0003BFB054600283FF421AE002384F860301B
:100C0000E38C3B440633A4F86630037943F00303D6
:100C10000371082343710123C37104F161010522AB
:100C2000083021F030F9B4F86630A5F80D302946C7
:100C300001E6B4F86630FB1A19043FF5FFAD94F8ED
:100C40005C3084F85D3004F11705052204F1610180
:100C5000284621F018F90521284623F06BFB637F15
:100C600060F30503637701232377E7E594F83810F1
:100C700011F0200924D094F85C3084F85D30022013
:100C800019F0FEFB054600283FF452AE238CC380CA
:100C900002230371037A43F00303037209234372AF
:100CA000C372082200210C3021F017F9D4F88C30DF
:100CB0002B731A0A1B0C6A73AB7319F09FFCBDE50A
:100CC000424823F0D1FA054600283FF4B7AD94F826
:100CD0005C3084F85D304FF4C773C4F88C3003790E
:100CE00043F0030303710923437194F91D30002B72
:100CF000ACBF08230E230822C3714946104421F0DB
:100D0000ECF8D4F88C302B721A0A1B0C6A72AB7296
:100D10002946204623F00EFD638EA3868EE594F8C7
:100D20009030DA0724D4294823F09EFA014600289F
:100D30003FF484AD94F85C3084F85D3094F89030E2
:100D400043F0010384F89030037943F00303037107
:100D5000062343710C23C371092303726FF00E0342
:100D60004372052383724FF0FF33C3720373D0E7DE
:100D70009B077FF50BAD94F85C3084F85D30022062
:100D800019F07EFB00283FF4D3AD238CC3800223EF
:100D90000371037A43F003030372062343720C23A7
:100DA000C37294F891300373B4F89230A0F80D3008
:100DB000B4F89430A0F80F307FE700BFAFF30080A5
:100DC0000DA70100910400008D49FD1A08110020B3
:100DD0008D49FD1A070000002DE9F04F91B01CF07D
:100DE000E3F8C6B23EB31CF0FFF8C3B20A931CF09E
:100DF00081F9C5B21CF088F91CF00CFB1CF0F8FA64
:100E00001CF040F95FFA80F8754C1CF0B7F81CF044
:100E100081F91CF067F91CF0F1FA1CF02BF9677DE1
:100E2000052F01F20084DFE817F066008E000A004B
:100E3000300A300A300AB04635460A96E4E7012304
:100E400063751CF04DFA054696201CF073F9237D5E
:100E5000013BCB35032B01F2E683DFE803F0022BE5
:100E60004F4F00231A46194618461CF0DBF81CF0B9
:100E7000C9F81CF059F81CF08DF8044660B1012344
:100E80004FF0000163F30701564A574B57489B1A2E
:100E9000DB0863F38F113DE2014623F078FE214623
:100EA0000544204623F06FFE281A1CF0D3F91CF0ED
:100EB00009FA20E0002319461A4618461CF0B2F839
:100EC00094F83921D4F8343153F8220008301CF05A
:100ED0002BF81CF05FF804460028D0D1014623F01F
:100EE00056FE21460544204623F04DFE281A1CF0EC
:100EF000B1F91CF0AFF811B0BDE8F08F00231A462D
:100F0000194618461CF08EF894F83921D4F834317B
:100F1000D4F8140153F82210083123F089FB1CF097
:100F200039F804460028AAD1014623F030FE2146B4
:100F30000544204623F027FE281A1CF08BF90120D7
:100F400019F076FFD7E726B9032363751CF004F880
:100F5000D1E7237DDBB2022B00F0F681032B00F0FA
:100F6000C782012B41F05F830A9B002BECD01CF061
:100F700049F894F878202A234FF0270A1AFB023AFE
:100F8000027802F00F03032B064604EB0A072FD169
:100F900043780C2BD8D194F82930190701D5002DAE
:100FA000D2D014F80A30C3F38013B3EBD21FCBD1E5
:100FB000062206F10801B81C20F03EFFC0B9032349
:100FC00063751CF039F894F8C800272303FB004030
:100FD0007A301BF0AFFF1BF0DDFF00288BD04EE70F
:100FE000B40F002080580200B0580200BFC20200B7
:100FF000337803F00F03052BA6D17378222BA3D1EE
:1010000014F80A3003F00F03012B40F08D813146B4
:10101000384623F0E1FA88B1337814F80A20C3F394
:101020008013B3EBD21F40F07D810622B11C07F183
:10103000080020F001FFB0FA80F04009002883D0BA
:1010400094F87A3133B194F8783194F879219A424E
:101050007FF47AAFD4F8CC30002B3FF475AF032087
:1010600019F00EFA814600283FF46EAF4FF0040BE2
:1010700084F815B01BF070FFD4F8CC50D4F80811E8
:1010800000274FF496722846C4F8CC7023F01DF95F
:1010900006F112012884032205F1140020F0F3FE6A
:1010A00005F1100318465A4606F10E0105F117081E
:1010B0000A9320F0E8FE052206F11E01404620F0CA
:1010C000E2FE0521404623F035F96A7F0A9B60F372
:1010D00005026A7796F82320C2F30402AA77B6F8CD
:1010E0001880A5F8248040F2E24202FB08F8F17E65
:1010F000B27E42EA0122EA8419465A4605F15400BA
:1011000020F0C1FEB38B42F2107202FB0383013B5D
:10111000B3FBF8F3EB85C44B4344B3FBF8F36B86A6
:101120002B8CA9F806300823314689F804304FF497
:101130008073A9F8083011F8023BC3F3801389F8D3
:101140000A30062209F10B0020F09DFE727E337EEC
:1011500043EA0223A9F81230F27EB37E43EA022367
:10116000A9F81430727F337F43EA0223A9F81630BE
:1011700096F82330C3F3421389F81830288C19F0FD
:101180008FFA19F03BFA96F8232095F83830A749E2
:10119000520962F3840385F8383094F8203131F82D
:1011A000122031F81330134408FB03F303F57423C2
:1011B0009F4A03F23F23B3FBF2F3EB634FEA58037A
:1011C000963B2B64737D40F2E2425343C5E91373AF
:1011D0003946384623F0D9FC9649834600F25240FE
:1011E0008FA3D3E90023A0FB0101FEF7C9FFD4F8C8
:1011F0007C316B602722934238BF13469946EB6BD4
:101200002A6020F07F40A8EB0303E860AF600A93F8
:101210001CF060F8F68A40F2E242804639463846D1
:1012200002FB062623F0AFFC303E40F2AD43B04453
:10123000A8EB0008009305227F4B3946384617F08B
:10124000BDFF40F2AE4119F091FA14F80A30DFF810
:10125000E4A103F00F03012BA8EB0B0806D10097C4
:101260003B4603223946384617F0A8FF0A9BA3FBEA
:101270000A6730466AA3D3E900233946FEF780FFA8
:10128000A36895F82040A3EB09030A9340F2C543F5
:1012900008936A4BCDE90653694B0593EB684B44C1
:1012A0000493684B20F07F45A5FB03BC072303FB99
:1012B00005CCB6EB0B0067EB0C014FF000094FF4C7
:1012C0007A720023CDF80C90FEF75AFF54A3D3E9AD
:1012D0000023CDE90150A8FB0A01FEF751FF0734B6
:1012E00020F07F40E4B200900A9B224649464846DF
:1012F00017F0D2FE30F002033FF4FDAD01234FF0B2
:10130000000163F30701504A504B51489B1ADB0818
:1013100063F38F111FF076FC404080F311884FF08B
:10132000040002DF002089E694F82930C3F3C103EA
:101330009A0700D535B13146384623F04DF900F013
:1013400001007BE62846FAE70A9B002B00F0A48008
:1013500094F8E1309B0702D5002D00F09D8094F8B1
:101360003921D4F8343153F822502A7A12F00F037D
:1013700001D0062B70D194F8E110CF0741D5D4F8F5
:10138000001100293DD1404623F092F9074600287C
:1013900040F082801BF036FE03782E49032262F370
:1013A000030303702A7ADBB2C2F3801262F3C7131D
:1013B0000C22427094F8E120C2F3001262F386130B
:1013C0000646062200F8023B20F05DFD062205F1EC
:1013D0000A0106F1080020F056FD94F8E03043F0D1
:1013E000020384F8E0309620022363751BF0A2FE0E
:1013F00038461BF00BFE30461BF09CFD1BF062FFD5
:10140000E9E54BBB00216B7A002B45D0D4F80031C5
:10141000002B41D1404623F04BF93DE0AFF3008073
:101420008D49FD1A07000000FF596202DC630200CB
:1014300040420F0000CA9A3B6DA7010021460200FE
:10144000910400008D49FD1A80580200B058020036
:10145000BEC1020096100020012B28D02B7A03F089
:101460000B02022ACED003F00F03042B14D194F800
:10147000E030980710D51BF0C5FD2B7A0278C3F336
:101480008013B3EBD21F07D1062205F10A01083001
:1014900020F0D2FC0028B5D0032363751BF05CFD5F
:1014A00094F8E0306FF3410384F8E03023E594F8DA
:1014B000E130C3F30013B3EBD21F10D094F8E13046
:1014C000C3F341039E07C9D595F90830002BC5DA4F
:1014D0006B7D03F0C003402BC0D1012193E70622AE
:1014E00005F11001BF4820F0A7FC00288AD0E5E7ED
:1014F00094F8183194F839210A99013384F8183195
:10150000D4F8343153F82260D4F814310222327105
:10151000002900F0D58593F8D020307A02F001013F
:10152000C0F38000884200F0B18081F0010161F3D6
:10153000000283F8D020227D032A02BF93F83820CE
:1015400042F0010283F8382093F8D020110600F110
:101550009980D3F8148193F8290108F1040C0CEB5D
:10156000000999F80150002D3CD14FF00009D4F842
:10157000142192F8293192F828112B44DBB29942B8
:1015800082F8293159D04FF00008B9F1000F7FD00F
:10159000D4F8140119F09CFC0027C4F814711BF056
:1015A00085FE18B91BF076FE1BF07AFE8E4CD4F83F
:1015B0001431002B3FF49FACB8F1000F03D041462B
:1015C000188C19F0F9FB002F3FF495ACD4F81431C6
:1015D000188C19F065F8D4F814311B8CF38019F0CD
:1015E0000DF888E492060AD5D3F80221D3F8061143
:1015F000013241F10001C3F80221C3F806111CF8C1
:10160000003003F00303032BAFD199F80320022A23
:10161000ABD163751BF0A0FC1BF0BCFC00287FF471
:101620002EAC99F80410D4F81401132908BF162120
:1016300019F06CFD4FF0010999E7D2E9451300203C
:101640009942A2F8280112D1B8F1000F9BD0D2F82C
:101650001C310D68C2F8145199420CBFC2E9460012
:10166000C2F818516149404622F017FE8BE7D2F8C4
:101670002031994204BF0B68C2F820310B68C2F8D0
:10168000143182E76FF3C71283F8D0204FF00008BF
:10169000D4F81431327A93F8D030C2F3C002C3F3D5
:1016A00040039A4240F0B381032018F0E9FE00287D
:1016B00000F0AD8194F87A3183B3D4F84431D4F892
:1016C0004821934205D194F8782194F879119142F8
:1016D00024D0D4F84821934200F0998194F87831CD
:1016E00094F879219A4200F0928194F87831D4F8F4
:1016F000142123B9B4F87611138C99420ED094F8C2
:101700007831002B00F0838194F8783104EB4303A7
:10171000B3F87011138C994240F0798196F80990D2
:10172000B9F1000F00F05381D4F8143193F8D09040
:1017300019F0100916D01BF033FE60B901234FF0E9
:10174000000163F307012A4A2A4B2B489B1ADB0846
:1017500063F38F11DEE5D4F8143193F8D030DD0651
:101760004CD4B946D4F8145195F8D0300C9313F0FA
:10177000040F337A10D003F00301032942D195F905
:101780001DC00C9AF17ABCF1000F02F0400060DB42
:1017900000284BD1022959D1C3F30103D9B25BB25E
:1017A000002B00F07F84022940F2BC8096F80BA049
:1017B00006F1080BBAF1110F00F25F84DFE81AF0AE
:1017C0005700D3000B015D045D045D045D0401045A
:1017D000140131015D045D0457015D042901B90163
:1017E0001A039D0396100020B40F0020081100205A
:1017F00080580200B0580200E2C202001BF0EEFD69
:101800000028AED1032363751BF0A6FB1BF0C2FBBF
:10181000074600287FF433ABD4F814013D2119F0BA
:1018200075FCD4F8140119F053FBB6E6881EC0B25B
:1018300009280BD840F2052C2CFA00F0C007ABD4D5
:10184000C54820FA01F1CA07A6D4DBE71129D9D887
:10185000F6E738B907299FD002299DD01129D1D8A0
:10186000BE48EEE7881E012896D90B29F5E795F9C1
:101870001D30002B80F20184717A002018F0DAFD0F
:10188000002800F0FA83B6F815106B8CCB1A1F04F1
:1018900044D495F85D3095F85C209A4261D1D4F833
:1018A00080210AB9C4F88051327B85F87020B6F8DF
:1018B0000D0040F2E2424243EA66307CF27B42EAAB
:1018C0000022A5F86220B07C727C42EA0022A5F8D2
:1018D0006420F27C307DA5F8681042EA0022A5F869
:1018E000662095F8602022F00702013B85F8602011
:1018F000012285F85E2085F85D3095F8A82095F8DE
:10190000A930934207D095F8AA3003F00703042BBF
:1019100001D185F8A9200023AB8602E0282385F8B1
:101920009B3057468E4BD3F8143193F8D02082F079
:10193000020283F8D020B9F1000F0AD0D3F8E120D9
:10194000D3F8E510013241F10001C3F8E120C3F8FA
:10195000E510834B002583F81951D3F814311D8607
:10196000C2E32A23DBE795F91D30002B80F2858343
:10197000717A012018F05EFD002800F07E83B6F831
:1019800011306A8C9B1A1C041ED495F85C2095F8C3
:101990005D309A421DD1052206F10C0105F161006E
:1019A00020F071FA737CB27C43EA0223A5F866301A
:1019B000022385F85E3095F85D300027013B85F8FD
:1019C000607085F85D30ADE7282385F89B300027EF
:1019D000A8E72A23F9E7717A022018F02BFD0028E6
:1019E00000F04B83337BF0E795F91D30002B80F23C
:1019F0004483717A082018F01DFD002800F03D8313
:101A0000594628461AF07EFA074600288AD0002751
:101A10009FE795F91D30002BC0F22F83717A0E20BD
:101A2000E9E7717A092018F005FD002800F0258308
:101A3000B37B727B1B0443EA0223327B134343F0E4
:101A40007F4343F47E03D5F88C2043F4435343F0A3
:101A500010031340C3F31003C5F88C3095F83830E9
:101A600043F0200385F838300023AB865AE7717ABB
:101A70000C2018F0DFFC002800F0FF8295F8903071
:101A800013F001074FD1374822F0EEFB0146002842
:101A9000BDD095F8903043F0010385F8903003797C
:101AA00043F003030371062343710C23C37109231D
:101AB00003726FF00E034372052383724FF0FF33FE
:101AC000C3720373284622F063FE95F8D03043F0CA
:101AD000800385F8D0301BF091FA0378477001221B
:101AE00062F30103D5F814210370DBB2C2B143F0F5
:101AF00010030370337B85F89130B27B737B43EA2C
:101B00000223A5F89230F37B327C43EA0223A5F846
:101B1000943095F8903043F0020385F8903001E757
:101B200067F30413E5E713F002037FF450AFAB86CD
:101B3000E0E7717A0F2018F07DFC002800F09D820C
:101B4000D4F880310B937BB19D420DD020220F2120
:101B500028461AF019FA57E76020020040200200D8
:101B6000B40F00200811002095F91D1095F8A9B0B8
:101B700095F8A8300029C0F2A0809B4509D095F8BF
:101B8000AA3013F0070302D0043B012B01D8232213
:101B9000DDE795F85C1095F85D30994201D02A2276
:101BA000D5E7B6F80CA01FFA8AF3052B22D9B6F8B0
:101BB0000EE01FFA8EF1B1F5486F1BD88B4219D891
:101BC000B6F810C01FFA8CF0B0F5FA7F12D2738A03
:101BD000ADF834309BB2A3F10A04A4B240F67642C9
:101BE000944207D800FB0114B4EB830F02DA347D72
:101BF000A14201D21E22AAE7BDF83420A5F8ACA06C
:101C0000A5F8AEE0A5F8B0C0A5F8B22085F8B440BC
:101C100096F816C0747D44EA0C24A5F8B64096F8F0
:101C200018C0F47D44EA0C24A5F8B84096F81AC010
:101C3000747E44EA0C24A5F8BA4096F81CC0F47EE1
:101C400044EA0C24A5F8BC4096F81EC0747F44EA10
:101C50000C24A5F8BE4096F820C0F47F44EA0C247A
:101C6000A5F8C04096F8214096F822C044EA0C241A
:101C7000A5F8C240AC8CA14211D1E98C81420ED1B1
:101C800040F2E2416143481E42F2107404FB030338
:101C9000B3FBF1F3E98D9BB2994200F0A2800C9B5B
:101CA00013F0080F95F8AA3000F08A80022262F340
:101CB000020385F8AA30002787E09B4504D095F8F9
:101CC000AA30980740F0AF84B6F80CA01FFA8AF348
:101CD000052B8FD9B6F80EE01FFA8EF2B2F5486FD9
:101CE00088D8934286D8B6F810C01FFA8CF1B1F5A7
:101CF000FA7FBFF47FAF738AADF830309BB2A3F1A7
:101D00000A0080B240F67644A0423FF673AF01FB72
:101D10000220B0EB830FBFF66DAF307D8242FFF43F
:101D200069AFBDF83040A5F8ACA0A5F8AEE0A5F8C5
:101D3000B0C0A5F8B24085F8B400B47D707D40EA2B
:101D40000420A5F8B600347EF07D40EA0420A5F812
:101D5000B800B47E707E40EA0420A5F8BA00347F53
:101D6000F07E40EA0420A5F8BC00B47F707F40EA12
:101D70000420A5F8BE0096F82040F07F40EA042039
:101D8000A5F8C00096F8210096F8224040EA042009
:101D9000A5F8C200A88C824210D1E88C88420DD1EF
:101DA00040F2E2414A43511E42F2107000FB03131D
:101DB000B3FBF2F3EA8D9BB29A4212D095F8AA30A7
:101DC000032262F3020385F8AA300BF1FF3385F892
:101DD000A9300B9B002B7FF4A5ADB34BC3F880510A
:101DE000A0E5B5F8AA3003F0F00343F00103A5F82D
:101DF000AA3060E795F91D30002BC0F23E81717A60
:101E0000102018F017FB002800F0378195F8A82063
:101E100095F8A9309A423FF4DAAD95F8AA3003F06C
:101E20000703042B7FF4D3ADB6F80CE01FFA8EF352
:101E3000052B1ED9B6F80EC01FFA8CF2B2F5486F0A
:101E400017D8934215D8348AA3B2B3F5FA7F10D2CB
:101E5000708A87B2A7F10A0189B240F6764A5145E5
:101E600007D803FB0223B3EB870F02DA337D9A42D4
:101E700002D21E2210216BE60027AF86A5F8ACE047
:101E8000A5F8AEC0A5F8B040A5F8B20085F8B4300A
:101E9000B27D737D43EA0223A5F8B630327EF37D2E
:101EA00043EA0223A5F8B830B27E737E43EA0223E8
:101EB000A5F8BA30327FF37E43EA0223A5F8BC309E
:101EC000B27F737F43EA0223A5F8BE3096F8202044
:101ED000F37F43EA0223A5F8C03096F8222096F853
:101EE000213043EA0223A5F8C23095F8AA30012236
:101EF00062F3020385F8AA3014E5717A112018F014
:101F000099FA002800F0B98095F8A80095F8A93052
:101F100083423FF45CAD337B0F2B7FF458AD95F9D2
:101F20001D30727B002B15DB1A2A13D195F85D301A
:101F300095F85C1099427BD001234FF0000163F3C8
:101F400007015A4A5A4B5B489B1ADB0863F38F110F
:101F5000FFF7E0B9232A1DD0D4F880118D420DD0AF
:101F600001234FF0000163F30701504A504B5248E0
:101F70009B1ADB0863F38F11FFF7CCB900218B426A
:101F8000B8BFD5F8CC30C4F8801185F8A900A9866F
:101F9000B8BFAB6595F8AA3013F008033FF417AD4E
:101FA0003272EA8C0A233371AB8CB281EA8D738171
:101FB0005A437D2353434FF47A7293FBF2F3F38138
:101FC000B0E4717A072018F035FA002855D095F85A
:101FD000A82095F8A93093423FF446AD95F8AA3071
:101FE00043F0100385F8AA3095F91D30002B9DDAD7
:101FF000D4F880319D42B3D10023C4F8803195F8E4
:10200000AA3085F8A92013F008034BD00A233371B6
:102010001A233372EA8CAB8CB281EA8D73815A43F6
:102020007D2353434FF47A7293FBF2F3F3811BE564
:1020300095F8AA30052262F30203B5F8AE20A5F8A0
:102040006220D5F8B0206A6695F8602085F8AA303D
:10205000012083F0080360F30102C3F3C0030027EB
:1020600063F38202013985F87000EF6685F860201D
:1020700085F85E0085F85D1054E4104822F0F4F80D
:10208000014600283FF4C3AC037980F808A043F070
:1020900003030371022343710723C371284622F00F
:1020A00049FB94E41F463DE4B40F00208058020031
:1020B000B0580200F8C202002AC302000811002032
:1020C00094F8191109B984F8192194F81951013DAE
:1020D000EDB284F819511F8EB5FA85F56D09002F00
:1020E0007FD1DA8D1A86B846C24AD2F8149199F88F
:1020F000D03013F0800F4FEAD31B924608D1D9F8A5
:10210000140128B11907D9F818C16FD584456DD0CD
:1021100099F8D03043F0800389F8D0301AF06EFF80
:102120000378012262F3010300224270D9F81421DE
:1021300003700446DBB2002A55D043F0100323702D
:1021400023786FF3471323700023A370A94B5A7DA4
:10215000032A00F08280002D7DD10A9A2AB1327ABA
:10216000D20602D46278002A75D0D3F8142192F8EE
:102170009B50002D6FD1022296205A751AF0DAFF7B
:1021800028461AF043FF1BF09DF8DAF81451237823
:1021900095F8D020C2F3000262F3C30395F8D02073
:1021A000C2F3400262F382030021237008461AF052
:1021B00049FE95F8D0309B064FF001025FD51F21F4
:1021C00008201AF085FE214605F1F2001BF0C2F846
:1021D0001AF0B0FE1AF0DEFE00283FF4E0A9FEF788
:1021E0004EBE00277FE762F30413A8E799F8292180
:1021F00099F82831011D8C1813B9637889F82831B2
:102200002AB18B5C4FF0010E6EF301038B5499F8E9
:1022100028319B1ADBB2637011F802E01B2B6FF3BD
:10222000041E01F802E005D91B2363708B5C43F0A8
:1022300010038B5403681BB18B5C43F010038B5469
:10224000BCF1000F7FF47CAFD9F82031984218BF61
:10225000C9E9460074E703225A751A7D042A0BD196
:10226000D3F8143193F8D0206BF3C71283F8D02041
:102270001AF072FEFFF793B91AF0DEFE85E7082028
:102280001B211AF025FE2046A2E7237D032B00F236
:10229000CA81DFE813F0A601040051009700032F64
:1022A00009D194F828305E0705D018F0A9FE1AF07D
:1022B0004DFEFEF7FCBD1AF00BFF637D032B63D1CF
:1022C00094F8283013F040035ED160684268556886
:1022D0001DB102220DF13E01A847BDF83E1040F2AB
:1022E0004712B1FBF2F302FB131341F25F0200212C
:1022F00006920133404A05921BB2CDE90311CDE9A4
:102300000111009105220846ADF83E3016F00EFF8F
:1023100030F0020338D0A37C052B35D001234FF0D9
:10232000000163F30701354A354B36489B1ADB0839
:1023300063F38F11FEF7EEBF032F19D196201AF029
:10234000F9FE002319461A4618461AF06BFED4F817
:10235000343194F8392153F8220008301AF0E4FDA2
:102360001AF078FE012363751AF0EAFDFEF79FBDAF
:102370001AF0AEFE637D052B06D1002300930422E4
:102380001946184616F01AFF0025257565756574FF
:102390001AF054FF2A46294628461B4B16F05EF9D0
:1023A0000546002800F0338101234FF0000163F35C
:1023B0000701124A124B15489B1ADB0863F38F1171
:1023C000FEF7A8BFD4F814010028DDD090F89B10C8
:1023D000F1B1237D032B03D090F83830DD0717D5FA
:1023E00018F094FED4F8140118F072FD0023C4F81C
:1023F0001431C9E7B40F0020C5A7010080580200BE
:10240000B058020053C30200CC7500205FC6020022
:10241000B0F82A9094F8185109F10107BFB2002DC5
:1024200072D0237D032B63D11AF040FF83461AF04C
:1024300043FFD4F81451DFF830A2ABEB0001804623
:10244000A86C00F1580399420A9385A3D3E90023AD
:1024500040D8A0FB0A01FDF793FE0A9B984420F0A8
:102460007F46A8EB0B007EA3D3E90023A0FB0A0163
:10247000FDF786FE20F07F43D5F814110022AA64F0
:102480002A6579B3497911B995F8291101B16A859D
:10249000D4F8142100219185D4F81401028EBAB128
:1024A000974280F09680D21B92B20021062A0286C3
:1024B000418540F29080227D032A09D1B9F1000FB5
:1024C00040F08980416D4A0811F0010136D1426522
:1024D000002136E0A1FB0A01FDF752FE022320F0A5
:1024E0007F46C9E795F83820D207D1D5EA8CCEE7E8
:1024F00041B190F8383043F0010380F838300023C0
:102500001E46C5E70B46FBE7838D83B19F4204D28D
:10251000DB1B83852B461E46BEE73E2118F0F6FDE9
:10252000D4F8140118F0D4FCC4F814512CE7018E2F
:102530000029F0D1C38D03860B46ECE742F0004240
:102540004265828E1AB1974247D2D71B878690F890
:102550005D5090F85C20954206D090F85E20013ADC
:10256000012A9CBF00224285458D09B94D4536D0D0
:102570000135ADB256EA030203D115B900293FF483
:1025800003AF90F8202000930732D7B22E4A069767
:10259000CDE90412002133460395CDE901113A46F5
:1025A000084616F0C3FD30F002033FF4EDAEA37C05
:1025B0009F423FF4E9AE01234FF0000163F30701AE
:1025C000224A234B23489B1ADB0863F38F11FEF743
:1025D000A1BE082104E70121B3E7222100E70D464F
:1025E000C8E7043FFFB2012F0DD901234FF00001CE
:1025F00063F30701154A164B17489B1ADB0863F370
:102600008F11FEF787BE00236375FEF774BC206848
:10261000436829465B68984701221146284615F011
:10262000F5FFFEF768BC01234FF0000163F30701DB
:10263000064A074B09489B1ADB0863F38F11FEF724
:1026400069BE00BFAFF300800DA8010080580200F2
:10265000B0580200B1C3020017C4020060C00200FB
:102660008D49FD1A0700000000CA9A3B00000000D7
:102670002DE9F04FA04F8FB002230D9397F928302A
:102680008DF82F10002B804692463E4601DA0C252D
:1026900023E097F879202A234FF0270919FB023904
:1026A00017F8093013F00E0F40F0E280D7F8CC5045
:1026B000002DECD107F5867021F0D6FD04460028E8
:1026C00000F0148107F5A07021F0CEFD48B907F5A0
:1026D0008671204621F0E1FD072528460FB0BDE8B0
:1026E000F08F4FF6FF732362637FE57703F03F03BC
:1026F00063F07F0363770623A38594F83830A562DF
:1027000023F0230384F838304FF4C773C4F88C30B7
:1027100094F89030258623F0030384F8903094F8E1
:10272000AA30A58665F30413C4E91155A565A4F87C
:102730005C50A4F8985084F89B50C4F89C00A4F80E
:10274000A85084F8AA3084F8D050C4E94555C4E9AB
:102750004755C4F82451A4F8285119F097FBC7F83D
:10276000CC4096F829309DF82F2062F302036AF3DB
:10277000C40386F82930D6F87C31F3612723B3618E
:10278000012100230DF12F00336221F0D3FD17F852
:10279000093003F00F03012B6CD14FF4277358431A
:1027A00000F59C70554952A3D3E90023A0FB010119
:1027B000FDF7E6FCD6E906239A4238BF1A46706256
:1027C000934621F071FE8246B8F1000F5AD117F8F6
:1027D000093003F00F035A1E5342534196F8285014
:1027E000474F484A63F38615736A86F828500DF1FF
:1027F000340915F040055B44CDE907794AD0002043
:10280000CDE90520CDE90303CDE901300090534621
:102810000522032116F040FC022837D00D9800282D
:1028200057D102230D93384B0690CDE90779CDE9B6
:102830000200CDE9040303224AF2FE330093019023
:102840005346114616F028FC02283ED00D9D002D5F
:102850003FD196F8283043F0800386F8283096F868
:10286000E030DB073FF539AF012022F085F834E78F
:10287000002476E7022B0CBF4FF4297340F2FC537F
:1028800058438FE70023A9E721F094FE0D9B022B0C
:10289000FAD0C3E71D4802951FFA88F8CDE9035323
:1028A000A8FB00019123CDE9052503FB081110A326
:1028B000D3E90023FDF764FC5346CDE9005005221F
:1028C00003212846BEE721F075FE0D9B022BFAD0AE
:1028D000BCE7002C3FF4DBAED4F89C000C4921F09F
:1028E000DCFC0C49204621F0D8FCD0E60925F4E6B2
:1028F0008D49FD1A07000000B40F002000CA9A3B62
:10290000BD4502006DBC0100DDBC0100002AE7846A
:10291000F4100020C01000202DE9F047504C94F82E
:10292000E0508CB01F4615F001054FF002030E4633
:102930000B93114604D00C2528460CB0BDE8F08757
:1029400094F8E13060F3000366F30413062204F107
:10295000E20084F8E130434E1FF095FABDF85020B4
:102960004FF0910AA2FB06010AFB02113AA3D3E938
:102970000023FDF705FC94F8E1309DF85420D4F8CD
:102980007C91C4F8F00062F34203BAB2A2FB06677E
:102990000AFB027784F8E130272300F10908C4F824
:1029A000D030C4F8D4902CA3D3E90023C4F8D85075
:1029B00030463946FDF7E4FBA0F12703984594BF64
:1029C000C4F8DC80C4F8DC30824621F06DFD0BAB2E
:1029D0000893254BCDE90653244B0593D4F8DC30FE
:1029E000B9F1270F2CBF4B4427338046CDE9035361
:1029F000304619A3D3E900233946FDF7C1FB104641
:102A000019464FF47A720023FDF7BAFB0095CDE921
:102A100001A0434606220321284616F03DFB02286A
:102A200013D00B9D002D86D194F8E03043F00103C4
:102A300084F8E03094F92830002BFFF67DAF0220B7
:102A400021F09AFF78E721F0B5FD0B9B022BFAD01D
:102A5000E7E700BFAFF300808D49FD1A07000000D3
:102A6000B40F0020002AE784BD450200A5BC010088
:102A70002DE9F84F4FF08052254E057BD6F804958E
:102A8000D2F81080044615B121F00EFD0546022350
:102A9000C6F804351AF096FEDFF874B0DFF874A0BB
:102AA00000276368CBF808351AF08CFEA368A3EB07
:102AB0000803A360636843446360237B013773B9F1
:102AC000A368002BEDD1124BC3F804951AF07AFEDF
:102AD000A068003018BF01204042BDE8F88F21F007
:102AE000E3FC294621F0E2FCB0FBF7F606446069FE
:102AF00005A3D3E90023A0FB0A01FDF741FB20F069
:102B00007F408642DCD9DEE78D49FD1A07000000D0
:102B100000E0014000CA9A3B2DE9F04F8FB0D0F899
:102B200004A0DFF8D8900DF1370180460DF1360092
:102B300021F038FF9DF836300A939DF837300B931B
:102B400021F0B2FCDAF81040A4FB094526A3D3E932
:102B500000230027834629462046FDF711FBCDE9D7
:102B60000777234B0593CDF818800646DAF8140052
:102B70001DA3D3E90023A0FB0901FDF701FB1D4BB9
:102B800026F07F46A6FB039A20F07F400723CDE97D
:102B9000037003FB06AAB4EB090065EB0A014FF4CE
:102BA0007A720023FDF7ECFA5B46CDE901600097ED
:102BB0000B9A0A98032116F06FFA30F002030AD13B
:102BC00045F6B3110C481BF0B5FF38B9D8F808002A
:102BD0000FB0BDE8F08F6FF04700F9E76FF03B00F2
:102BE000F6E700BFAFF300808D49FD1A0700000033
:102BF00019D801008D49FD1AAC1B002000CA9A3B70
:102C00002DE9F347057B044615B121F04DFC05463F
:102C1000676817F003007CD0A268216827F00307DB
:102C2000C0F1040696423B68019328BF164601ABEB
:102C3000324618441FF027F91AF0C4FD019B3B608F
:102C4000636833446360236833442360A3689E1B36
:102C5000237BA660002B5CD021F026FC294621F0C6
:102C600025FC3349460060692FA3D3E90023A0FB6C
:102C70000101FDF785FA20F07F40864249D91AF01C
:102C8000A1FD4FF0FF3002B0BDE8F0871AF09AFDC9
:102C900023681A6863681A60636804336360236892
:102CA00004332360A368043BA360237B08F101087D
:102CB00093B121F0F9FB294621F0F8FBB0FBF8F9BC
:102CC0008144606932463B46A0FB0A01FDF758FA91
:102CD00020F07F408145D2D8A268032AD6D8A2B17D
:102CE000636821681B68019301A81FF0CCF81AF0F3
:102CF00069FD6368019A1A60D4E9012123680B44D5
:102D00000A44236000236260A3601AF05BFD002088
:102D1000B9E74FF00108DFF818A003A7D7E900676B
:102D2000DAE700BFAFF300808D49FD1A070000000D
:102D300000CA9A3B08B502481CF01DFE002008BDE1
:102D40007964020008B5014620B10D48BDE808408D
:102D50001CF011BE0B481CF00EFE0B490B4820F076
:102D600028F9014608B10A48F0E701F065FA0320A6
:102D700008F0CEF80748BDE808401CF0FCBD00BFD5
:102D8000EC6302000C640200885A0200285B020017
:102D9000236402004664020008B507481CF0EBFDFE
:102DA000064804F0C3FF014620B10548BDE80840CD
:102DB0001CF0E1BD08BD00BF68640200452D0000A5
:102DC000EC63020010B5094C0A44914200D110BDD9
:102DD00011F8013B43401809205C80EA0310C3B29C
:102DE0001809205C80EA0310C0B2EEE78964020093
:102DF0000B6801330B60014B1B681847846D002082
:102E00002DE9F04F85B09B460E9CDFF890A0012C79
:102E1000B8BF0124012B0CBF302320231546804668
:102E200089460194029301260A2700220AF101042F
:102E30000AB9AA451FD2B5FBF4F049463030C04765
:102E400001360122013F012FB5FBF4F14FF00A03D7
:102E500004FB1155BAFBF3FAE8D1494605F13000FD
:102E6000C047BBF1030F03D1019B9C1B002C0FDC5F
:102E700005B0BDE8F08F019BBB42E3DBBBF1020F65
:102E8000E0D84946029803920136C047039AD9E731
:102E900049462020C047013CE8E700BFFFC99A3BF4
:102EA000014B1860704700BF846D002007B50023F8
:102EB000019302460B46034801A91CF00BFC03B02A
:102EC0005DF804FBF12D00000CB430B585B008AB03
:102ED000CDE9010153F8042B00930446002501A914
:102EE000064803951CF0F6FBDDE902309842B8BFB6
:102EF000255405B0BDE8304002B07047AFF6010080
:102F000010B54FF02003EFF3118483F3118800F024
:102F1000F1F9094A0123C2F840354FF08042C2F866
:102F20007835064B4FF0FF329A62DA6284F31188EB
:102F3000BFF36F8F002010BD00E0014000ED00E006
:102F400020B1034B800143F001031847704700BFD5
:102F5000805A0200014B1868704700BF886D00203E
:102F6000F0B5082289B00C4606461CF0D0FECB6AAC
:102F700003930B6B04934B6B05938B6B0693CB6B9B
:102F80000793002708236A4669466846CDE901771A
:102F900000971CF0C1FD082305466A4631463046BD
:102FA0001CF0BAFD236B0393636B0493A36B05932F
:102FB000E36B0544CDE906376A460823694668464F
:102FC0001CF0AAFD3146054408236A4630461CF031
:102FD000A3FD236A0093636A0193A36A0293A36B20
:102FE0000693E36B0793054408236A463046CDE910
:102FF000047703971CF090FD636A0093A36AA26BA9
:103000000193E36A02930492636BE26B0393CDE94D
:103010000523236A0793054408236A4630461CF0BB
:103020007BFDE36A0093236B0193636B0293236A36
:103030000693A36A0793054408236A463046CDE900
:10304000047703971CF099FE236B0093636B019345
:10305000A36B0293E36B0393636A0693E36A07939C
:103060002D1A08236A463046CDE904771CF085FE08
:10307000636B0093A36B0193E36B0293236A039347
:10308000636A0493A36ACDE90537236B07932D1A6E
:1030900008236A4630461CF070FEA36B0093E36B76
:1030A000CDE90137636A0393A36A0493E36ACDE928
:1030B0000537636B07932D1A08236A4630461CF0C8
:1030C0005CFE2D1A0D4C0FD435B90822314620462E
:1030D0001CF029FE01280FD0082322463146304635
:1030E0001CF04BFE2D1AEFE70823224631463046EE
:1030F0001CF012FD2D18F7D409B0F0BD805B020062
:10310000F0B5284E07460C460FCE8DB001AD0FC569
:103110000FCE0FC596E8070085E80700002F3CD0CA
:10312000002C3CD0381F2146024610344B780D78D5
:103130001B0443EA0563CD782B438D78043143EAC1
:1031400005238C4242F8043FF0D1174C04218A0732
:10315000036918D14FEA33631A0EA55CDAB2A25C98
:1031600042EA0562C3F30745C3F30723655DE35CE9
:1031700042EA054242EA03220CAD21F003032B444C
:1031800053F82C3C534050F8042F013153402C2964
:103190000361DCD101200DB0F0BD3846FBE72046CD
:1031A000F9E700BFD0590200AC6402002DE9F043FA
:1031B000154689B00746002859D000295AD0002A60
:1031C0005AD010230A46684619461CF0E2FB2946ED
:1031D0006846DFF8A8901DF0E7FA05F11006C8462A
:1031E000A0356C466A4610231178013B19F801108E
:1031F00002F8011BF8D168461DF01BFB694604A8C4
:103200001DF050FB01A905A81DF04CFB02A906A862
:103210001DF048FB03A907A81DF044FB1023194625
:103220000DEB030268461CF0B4FB314668461036CD
:103230001DF0BAFAAE42D4D110262378013E18F818
:10324000033004F8013BF8D168461DF0F2FA294634
:1032500068461DF0A9FA102319466A4638461CF044
:1032600098FB6846102231461CF0A0FB012009B0F3
:10327000BDE8F0830846FAE71046F8E7AC640200C0
:103280000C4B1B78062B10D10B4B1B681A070CD16B
:103290000A4B186800F0F003302B08D000F0E00073
:1032A000A0F1400358425841704700207047012068
:1032B000704700BFE00F00F0E40F00F0E80F00F0EF
:1032C000094B1B78062B0CD1084B1B681A0708D139
:1032D000074B186800F0F000A0F130035842584145
:1032E00070470020704700BFE00F00F0E40F00F0CF
:1032F000E80F00F008B5FFF7C3FF28B1784B794A13
:103300001B68C3F304231360FFF7DAFF10B1764B99
:10331000764A1A60FFF7B4FF28B1754B754A1B68EF
:10332000C3F342331360FFF7CBFF20B1724AD36877
:1033300023F08073D360FFF7A3FF40B14FF08043C9
:103340000022C3F80C21C3F81021C3F83825FFF779
:10335000B7FF10B1694B03221A60FFF7B1FF40B10C
:10336000674B05221A6001229A6700229A603F2269
:103370005A60644B1B78062B50D1634B1B681907AE
:103380004CD1624B1B6803F0F003502B46D14FF039
:1033900080525F4BD2F80414C3F82015D2F80814F9
:1033A000C3F82415D2F80C14C3F82815D2F8101459
:1033B000C3F82C15D2F81414C3F83015D2F8181429
:1033C000C3F83415D2F81C14C3F84015D2F82014F1
:1033D000C3F84415D2F82414C3F84815D2F82814B9
:1033E000C3F84C15D2F82C14C3F85015D2F8301489
:1033F000C3F85415D2F83414C3F86015D2F8381451
:10340000C3F86415D2F83C14C3F86815D2F8401418
:10341000C3F86C15D2F84424C3F87025FFF730FFC9
:1034200028B13C4B3C4A1B6803F04F031360FFF785
:1034300027FF48B14FF08043D3F80024D20744BFA0
:103440006FF00102C3F80024344B1B68062B08D12F
:10345000334B1B68062B01BF324A136843F4806369
:1034600013604FF01023D3F80022002A03DBD3F8B7
:103470000432002B2FDA2C4B0122C3F80425D3F899
:103480000024002AFBD04FF010221521C2F80012B0
:10349000D3F80024002AFBD04FF010231522C3F8E4
:1034A0000422214B1A46D3F800140029FBD0002136
:1034B000C3F80415D2F80034002BFBD0BFF34F8FB4
:1034C0001A491B4BCA6802F4E0621343CB60BFF396
:1034D0004F8F00BFFDE7174B174A1A6008BD00BFAA
:1034E000240300104035014074C007400DF0ADBA10
:1034F000440200103C050040F0ED00E0A005004053
:1035000010560040E00F00F0E40F00F0E80F00F06C
:1035100000C0004058020010E40E004030010010CE
:10352000340100103C17004000E0014000ED00E0D5
:103530000400FA058C6D00200090D00310B5114CEA
:10354000114AA2610323C4E90433104BE3612266EC
:103550004FF480630E4A23626266002310220D49F5
:10356000A362E01D6362E3622367E3666367A266AA
:103570001EF024FC084920461EF020FC2023A371E5
:1035800010BD00BFD0050020AC650200A61E0020C3
:10359000961E0020B5650200B9650200DFF888C0FC
:1035A00018232DE9F04703FB00C78A46BE6A7C6AF0
:1035B000A64215462DD8D7F82090A9EB040808F1AB
:1035C000FF3E964509D300FB03339C44DCF804001E
:1035D00020441EF058FC2C440DE07644B24221D821
:1035E00000FB03330CEB0306904570682044144441
:1035F00005D91EF048FC7C620120BDE8F0874246F8
:10360000A4EB09041EF03FFC22460AEB0801706897
:10361000EFE7013E361BB24204D800FB033363449C
:103620005868D5E70020E8E7D0050020F8B5184C29
:10363000182300FB033503FB00402544C46A012C1A
:103640000F46164611D024B1022C1BD00024204670
:10365000F8BD28461DF064FAB042F8D33246394628
:1036600028461DF06BFA3446F1E728461DF058FA5B
:103670008642344628BF04462246394628461DF075
:103680005DFAE4E72846BDE8F8401DF071BA00BFD6
:10369000D0050020034A182303FB00239A6A586AC6
:1036A000801A7047D005002007B5002201A90848FC
:1036B00001921AF071FD10B100F0FCF9019001982F
:1036C00018B1012343600023038103B05DF804FBBC
:1036D0001807002030B50C4D0C4987B000240E238C
:1036E000CDE902434FF44072094BCDE90444CDE9E2
:1036F000004428461BF0AAFA2846064921F01BFE82
:10370000204607B030BD00BFA80600208824002056
:10371000C5390000C065020008B500F0C1F90948CC
:103720001DF056FA042328220748084921F0E1FB3E
:10373000074B084A1A604FF40040BDE8084000F00B
:10374000CBBB00BF840600208C060020584E002012
:10375000906D0020010C0200F8B50F4BBFF35B8F9A
:10376000002553E8007F43E80052002AF9D1BFF357
:103770005B8F0A4C0A4E361B3611B54200DBF8BD92
:1037800063685B792BB12368DB6813B13946204647
:10379000984701351034F0E77C060020B05902004C
:1037A000D0590200234B1B782DE9F041054603B99F
:1037B00050B34FF02003EFF3118483F311881E48B8
:1037C0001DF016FA074684F31188BFF36F8F78B1A6
:1037D000BFF35B8F194B53E8002F013A43E80021F8
:1037E0000029F8D1BFF35B8F8DB138461DF0F3FA95
:1037F00025B9134B1B680BB1FFF7AEFF0E481DF048
:10380000F5F9051C18BF01252846BDE8F0810D4CCF
:103810000D4E361B3611A846B045E6DA63685B7973
:1038200023B1236839461B682046984708F10108F0
:103830001034F1E7A622002084060020780600203C
:103840007C060020B0590200D0590200194B70B517
:103850001B68418105469847174CE860BFF35B8FB2
:1038600054E8003F013344E80032002AF8D1BFF3A6
:103870005B8F4FF02003EFF3118683F311880F481D
:1038800029461DF0A9F986F31188BFF36F8F0C4B01
:103890001B7823B10020BDE87040FFF783BF236889
:1038A0000A2B06D1074B186818B1BDE870401BF011
:1038B000EFB870BD906D00207806002084060020CF
:1038C000A722002014070020064BBFF35B8F53E8AC
:1038D000002F013243E800210029F8D1BFF35B8FAC
:1038E000704700BF7C060020044A054B9B1AB1EBD1
:1038F000D30F34BF52F831000020704780580200C7
:10390000B0590200064B4268C31A1B1101331371F0
:103910004268012311605371024A1370704700BF5F
:10392000B0590200A622002070B5114BBFF35B8F87
:1039300053E8005F6A1C43E800210029F8D1BFF377
:103940005B8F2DB90B4C0C4E361B3611B54200DB8C
:1039500070BD237B43B123685B6903B198470422A0
:1039600000212046FFF7CEFF01351034EEE700BFFF
:1039700080060020B0590200D0590200F8B50E4F61
:103980003D7875B90D4C0E4EFFF7CEFF361B361144
:10399000B54207DB0020FFF705FF0028FAD101231D
:1039A0003B70F8BD63685B791BB1236820461B69D7
:1039B000984701351034EBE7A7220020B0590200E8
:1039C000D059020008B5FFF7AFFF1BF083F8094A92
:1039D000106028B1084B1B68092B01DD1BF058F85B
:1039E0000020FFF7DFFE0028FAD14FF47A701BF0B9
:1039F0000BF8F5E7140700207806002037B50546D8
:103A0000002201A910481AF0C7FB0446D0B90122D0
:103A1000019BBFF35B8F53E8001F43E800200028A1
:103A2000F9D1BFF35B8F01981F22294604301EF0A5
:103A3000CFF901987E2380F8233080F824400430A9
:103A400003B030BD0148FBE78C060020C8650200CA
:103A5000054B984205D3783398428CBF0020012053
:103A600070470020704700BF5C4E002007B5043847
:103A70000190BFF35B8F50E8003F5A1E40E80021E1
:103A80000029F8D1BFF35B8F012B03D101A90348B3
:103A90001AF0ACFB03B05DF804FB00BF8C060020FD
:103AA00020231A460149024821F023BAF84E00208B
:103AB0001807002037B50023094D01930120FFF7B7
:103AC00071FE0446FFF700FF002201A928461AF004
:103AD00063FB08B1002CF1D1019803B030BD00BFE9
:103AE0001807002007B5002201A9064801921AF024
:103AF00053FB10B1FFF7DEFF0190019803B05DF8B2
:103B000004FB00BF180700207FB5047A457A0190B6
:103B100014F001044FEA15150ED0019B1A7A920792
:103B200004D55B69104C0393039BB3B901A90E48FC
:103B30001AF05CFB04B070BD002DEED0A5420198D8
:103B4000EBD921461DF02AF90646FFF781FF10B197
:103B50003046FFF78BFF0134F0E71D6803A92046CC
:103B60001AF044FB0395DFE7180700200EB403B5F5
:103B700003AB014653F8042B044801931BF0AAFD44
:103B8000002002B05DF804EB03B070474B12020056
:103B90002DE9F04F85B011F00204064690469DF8DD
:103BA000387001F0010901F0080507D011F0440F49
:103BB00034D11A463049FFF7D9FF0446B9F1000F56
:103BC0000AD02E4B2E4953F827202E4B3046002A80
:103BD00008BF1A46FFF7CAFF3DB12B4B2B4953F8DC
:103BE00027203046FFF7C2FF0546B8F1000F41D04D
:103BF000274B284A042F14BF1F461746BDF8401014
:103C00009DF83C00FFF770FE394602463046FFF74C
:103C1000ADFF2844204405B0BDE8F08F1E4A14686B
:103C200034B31E4A4FF4616E1168B3FBF1F34FF4E5
:103C30007A7CB3FBF4F1B1FBFEF20EFB121E04FB27
:103C400011310CFB01F14FF03C0AB1FBF4FB04FB1A
:103C50001B110CFB01F1BEFBFAF3B1FBF4F40AFB00
:103C600013E10091CDE901B40D49FFF77FFFA4E70F
:103C70002046A2E7064FC1E72C6602002C5C02003A
:103C8000D97A02001E660200405C02005166020002
:103C9000236602002866020034070020380700204F
:103CA000356602002DE9F8439846089B1746DA0668
:103CB00004460E4605D49B064CBF21492149FFF717
:103CC00055FFDFF888900025454528DBDFF8808028
:103CD000DFF880900025AF4227D9725D4946204623
:103CE000FFF744FF0135082DF5D11749DFF85C8057
:103CF000DFF864902046FFF739FF0025AF4219D95D
:103D0000725DA2F120035F2B28BF2E224946204678
:103D1000FFF72CFF0135082DF0D1BDE8F8834946A7
:103D20002046FFF723FF0135CEE741462046FFF747
:103D30001DFFD7E741462046FFF718FFEAE700BF1F
:103D4000E3650200E2650200EF650200ED65020036
:103D5000EB650200E5650200F165020038B50C462E
:103D6000E107054603D5084A0849FFF7FFFEE206CA
:103D700008D4A30628464CBF05490649BDE838408B
:103D8000FFF7F4BE38BD00BF1E660200D97A0200FC
:103D9000E3650200E26502002DE9F0478B7A13F03B
:103DA0000704174688B005460E460A7A1CD0498992
:103DB000C3F3C2038909D2430291CDE9004302F063
:103DC0000102F3683946FFF7E3FE8146337ADA07EA
:103DD0000CD4294630461DF0CEF84CB32246394665
:103DE0002846FFF7BBFF23E0A146EFE734BB274699
:103DF000EB68069306AA3B46A96830461DF0A7F873
:103E0000069A6B681A603AB1AB68134413F8014C18
:103E1000A4F10A035C425C4128461DF009FA069BA6
:103E20001F44002BE4D11CB114492846FFF79EFE25
:103E300028461DF0FDF908B0BDE8F08730461CF0BB
:103E4000DDFF0F4902462846FFF790FE4FF00008BD
:103E50004FF0080A05AA434606A93046CDF814A03B
:103E60001DF075F8059A002AB8D04B46009706A9B0
:103E70002846FFF717FF059B9844EBE7F46502001F
:103E8000D97A020073B5D0E900435D680F4A42F267
:103E90000F738B4228BF0B466846052101F01EFFB9
:103EA0002B4606460B22204609491DF057F82B46A3
:103EB0003246694620461DF051F82B461B22054923
:103EC00020461DF04BF802B070BD00BF397A0200E9
:103ED00012660200F6650200084A10B50123084C7C
:103EE00013600021A04204D801B11360054B186093
:103EF00010BD40085B000121F4E700BF3807002037
:103F000040420F003407002008B503481AF010F8AB
:103F1000024B586008BD00BF7766020044070020CE
:103F200001481DF085B900BF6C5C02000148FFF735
:103F3000A9BF00BF6C5C020010B508460C461CF01F
:103F40001DFF214604480F22FFF726FF2046BDE84B
:103F500010401CF040BF00BF6C5C0200034B01220C
:103F60001A70034B00221A60704700BFB92200206C
:103F70006407002008B503481DF05AF9024B0122DE
:103F80001A6008BD945C0200640700200148FFF736
:103F900079BF00BF945C020010B508460C461CF0C7
:103FA000EDFE214604480F22FFF7F6FE2046BDE84D
:103FB00010401CF010BF00BF945C0200044B1B6853
:103FC0001BB141F2883021F0B4B905201AF01CBDB4
:103FD000640700202DE9F84F214FDFF88C908246CE
:103FE0000E460424B8463B6823B94FF0FF314846DB
:103FF0001AF0D2F9324651460020FFF7CFFAD8F82E
:104000000030834613B948461AF032FA154DBBF119
:10401000000F18D001232B70D8F8003033B9304688
:10402000BDE8F88F5CB92C704FF0FF340020FFF72B
:1040300031FB0028F3D02B78002BF3D1EFE7013CC4
:10404000FFF7BCFFF2E72B7813B1013C04D12C70D1
:104050002B78002BC7D1E2E7FFF7B0FFF8E700BFEE
:1040600064070020B9220020D878002013B5114C35
:10407000BFF35B8F2068BFF35B8F60B90E4819F008
:1040800057FFBFF35B8F54E8003F44E80002002A6B
:10409000F9D1BFF35B8F436804221B680DEB02016B
:1040A0009847002802DA00F035FE0190019802B02E
:1040B00010BD00BF680700209F660200084B30B5A6
:1040C0001D68084B196800239D4202DC002210463F
:1040D00030BD1C010A190C5D8442F8D00133F3E7AE
:1040E000F45C0200946D0020084B1B6810B50C4670
:1040F0002BB1FFF7E3FF28B12060002010BD6FF067
:104100000C00FBE76FF00100F8E700BF946D0020A2
:1041100030B589B00C4615460190FFF7CFFFB0B11E
:104120004368029383682268C068CDE903350023A1
:10413000CDE90623059319F0FBFE01AA054920F0FD
:10414000A2FE079808B9059B236009B030BD6FF047
:104150001500FAE7471902002DE9FF41114B1D68D0
:1041600006460F469046BDB16B680024CDE90001BC
:10417000CDE902241B680C496A4628469847039BF0
:10418000012B0CD06B683A469C6831464346284662
:10419000A04704B0BDE8F0816FF00100F9E72046C8
:1041A000F7E700BF740700206B1A020010B5002368
:1041B00004461DF0C0FC024680B101214FF000030F
:1041C00061F3070306480749091AC90861F38F1309
:1041D00005482146BDE810401CF035BD10BD00BFAC
:1041E00080580200A0590200BC6602000E4B10B5B8
:1041F0001C680021224632B941B904605A6818602F
:104200005AB9586009E011461268F4E70C683CB9E5
:1042100002605A6812B9C3E9000010BD1060F0E7EF
:1042200004600860F9E700BF6C070020014B1860CC
:10423000704700BF7407002038B5094B1C684CB1AB
:10424000084D636820461B68002229469847246869
:10425000002CF6D10020BDE8384000F043B800BF84
:104260006C070020AD410000024B0022C3E9002290
:10427000704700BF6C07002038B5074B1C68054627
:1042800014B90024204638BD616828461DF0C8FDD9
:104290000028F7D02468F3E77807002010B5054C14
:1042A000237833B9044AC2E90033FFF7DDFF012365
:1042B000237010BDBA2200207807002010B50446F4
:1042C0004068FFF7D9FF40B9054B1A6822605A6869
:1042D0001C600AB95C60104610BD6FF01000FBE76F
:1042E0007807002030B504468BB068B102AA01A956
:1042F0001DF016FCB0B103691BB9002420460BB0B9
:1043000030BD98470446F9E7084B1D68002DF4D0EE
:104310002B691BB19847002C08BF04462D68002D5F
:10432000F6D1EBE76FF01504E8E700BF780700204F
:1043300073B5204D2A78002A38D1FFF7AFFF092343
:104340001D4A009369460320FFF7E2FE38B10C30A6
:1043500005D0404080F311884FF0050002DF174C74
:10436000009B6373204600F003FAA8B101A9032063
:10437000FFF7BAFE01460028EBD1019882681DF0D4
:1043800047FB064601981DF0FCFA002EE1D12046BD
:1043900000F0EEF90028DCD1084800F013FA0028FC
:1043A000D7D1064800F018FA01232B70002002B084
:1043B00070BD00BFBB22002080070020986D002048
:1043C0002DE9F04F89B0CDE90023264B93F80CA0DE
:1043D000074689461546984665B92E46009B5D1BE3
:1043E000019B1D60129B002B3AD086F0010009B0A2
:1043F000BDE8F08F102397FBFAFB0AFB0BFB03933E
:10440000D8F80040139803AB04AA5946A0470646C3
:1044100018BB039CA7EB0B0B04ABA4EB0B049B4456
:10442000129BAC4228BF2C4643B12246197858460D
:104430001DF075FD10B1A0EB0B0401262246594674
:1044400048461DF020FD039A0F2AA5EB0405C5D9A7
:10445000002EC3D1A1442744BEE76FF00400C6E795
:104460001298C4E7C80700202DE9F04FDFF8B8A084
:1044700087B09AF80C7001938346894690461DF0E8
:10448000C8FCB0FBF7F407FB1404051B2B465A4687
:1044900001991098DAF80460B047019B2B4401930E
:1044A0002CB122460BEB050102A81DF0ECFC06AB7B
:1044B00023443D2203F8102C01340F2C0DD9002584
:1044C000234602AA01991098DAF80460B04730BB7D
:1044D0003DBB019B234401932C46B8F1000F0FD044
:1044E000C4F11005454528BF454602AB4946181999
:1044F0002A461DF0C8FCA944A8EB05082C44DCE7BB
:10450000B4FBF7F507FB15453DB17D1B02AB181950
:104510002A4641461DF0E1FC2C440125D0E76FF00E
:10452000040007B0BDE8F08FC8070020034B10B5AA
:104530009B68044608469847001B10BDC80700202A
:104540002DE9F04786B0124F0E9C81468846924670
:104550001E461CB9204606B0BDE8F087102C234645
:1045600028BF1023019302AA01AB314650463D6893
:10457000A8470028EFD1019B7D6802AA4146484622
:10458000A8470028E7D1019B1E449844E41AE0E7BD
:10459000C807002010B5034CC4E90001A2602373D2
:1045A00010BD00BFC80700202DE9F04FBFB0054681
:1045B00005929B460F4629B96FF0150528463FB076
:1045C000BDE8F08F194638461DF0F3FA5B4B5C4AA4
:1045D00004909B1AC3F3C90303934FF000086B7B4D
:1045E000013B4345E8DD05F1080409AE3246BDF85C
:1045F000101020461CF066FE021D034640F0878026
:1046000020461CF043FE064610B108F10108E6E71B
:10461000286C1DF023FA2B6C1293CDE90E66494EDF
:104620000EA920461DF00CF998B120461DF020F986
:1046300001460028E9D02AF03F0343F0010363F369
:10464000070A039B404863F38F1A52461CF0E7FAAF
:10465000DBE7AB6A0E9A9A42E7D10EAB07AA492173
:1046600018A81DF0C1FA0028DAD1079BBDF8442034
:1046700001339342D4D00DF1380EBEE80F000DF196
:104680004C0CACE80F00DEF80030CCF8003013A979
:1046900020461DF0D5F838B313AABDF844102046C3
:1046A0001CF010FE03460028BAD1BDF84420009249
:1046B00001460EAA13A8FFF743FF0028B0D113A9A3
:1046C00020461CF082FE01460028A9D029F03F03B5
:1046D00043F0010363F30709039B63F38F194A4611
:1046E00030461CF09CFA9BE713AB08AA49212BA883
:1046F0001DF07AFA0028CAD1DDE907239A42C6D113
:104700002BA918A81DF098FB0028C0D188E7002825
:104710007FF452AF2A6C0D9200965A46059938469E
:10472000FFF7A2FE431D05463FF448AF3146204641
:104730001CF04BFE002D08BF05463FE7A0590200C4
:1047400080580200E16602000267020007B50830E7
:10475000CDE900126B46054A00211DF0C0F8002883
:1047600018BF6FF0150003B05DF804FB0D1C0200CC
:10477000012370B504460373837300F108063146C4
:1047800003201CF0F9FE0546B0B930461CF087FE48
:1047900000280ADCE36A206CD3E900121DF038F926
:1047A0000028ECD06FF0040504E0054B6360204660
:1047B000FFF71CFD284670BD6FF01505FAE700BF36
:1047C000DC6D002008B5034B4360FFF72FFD002090
:1047D00008BD00BFDC6D002090F83E30024A03495E
:1047E0000348FFF7D7BE00BF091C02003F1C0200B0
:1047F000531C02000A2838B50446074D04D1286826
:1048000043680D215B68984728684368E1B25B689C
:104810009847204638BD00BFD807002010B5044C8B
:10482000204601F055FA2046BDE81040FEF738BB9F
:10483000F547000008B5044819F07AFB034B1860EF
:10484000FFF7ECFF002008BD77660200D8070020C4
:1048500010B5044C2046FEF723FB204601F038FA41
:10486000002010BD694800002DE9F341164F174D97
:104870008DF80700064603244FF0FF31384619F043
:104880008BFD01220DF107010020FEF7CFFE8046CF
:10489000384619F0EDFDB8F1000F05D001232B705B
:1048A000304602B0BDE8F0812B78002BF8D0013CF7
:1048B00007D01AF079F90028DED102201AF0A4F806
:1048C000DAE72C70ECE700BFD8780020BC2200208B
:1048D00010B54FF02003EFF3118283F31188154CCC
:1048E000237833B982F31188BFF36F8F6FF04400E0
:1048F00010BD013BDBB2237033B182F31188BFF3EB
:104900006F8F6FF00F00F3E70B4B1878012138B170
:10491000217082F31188BFF36F8F6FF00A00E7E711
:10492000197082F31188BFF36F8F044A11601870F9
:10493000DEE700BFBF220020BE22002004000040AE
:10494000F8B54FF02002EFF3118382F31188294A62
:104950001078441C147080B183F31188BFF36F8FFB
:104960004FF08043D3F80C3403F00113B3F1011F6F
:104970000CBF00206FF0430009E01F4D2F783FB1BE
:10498000107083F31188BFF36F8F6FF00A00F8BDCA
:1049900001262E7083F31188BFF36F8F4FF0804490
:1049A00019B3384600F09EFBC4F80071D4F8043304
:1049B000C4F804632660D4F8002192B10022C4F840
:1049C00000210E4A13F0010F4FF0010308BFC4F895
:1049D00008330020C2F8803100F074FB00232B70F4
:1049E000BEE720BF40BF20BFE5E7C4F80011266046
:1049F000F4E700BFBF220020BE22002000E100E05B
:104A000070B54FF02002EFF3118382F31188244D2B
:104A10002A789AB183F31188BFF36F8F4FF08042E9
:104A2000D2F81C34D2F8182403F0030343F4803383
:104A3000934314BF6FF04300002070BD01242C701D
:104A400083F31188BFF36F8F4FF08043154EC3F887
:104A500004210225C3F81815C3F8045311F003010B
:104A600034604FF01806C3F80863C3F80C21C3F88C
:104A70001021D3D11022C3F83825C3F80463D3F82A
:104A80001824D20302D4C3F80453C7E7C3F804437D
:104A9000FFF756FF0028C1D1034BC3F80041BDE723
:104AA000BD2200200800004000E100E0F8B54FF012
:104AB00080430546D3F808C1D3F80423D3F8007126
:104AC000D3F80403D3F80461D3F80C11D3F81041E0
:104AD000003402F0010218BF0124BCF1000F03D022
:104AE0004FF0000CC3F808C1002F41D04FF08043B5
:104AF0000027C3F8007152B14FF08043224F0122CA
:104B00004FF0020CC3F80823C7F800C01A61EEB9D1
:104B100059B11D4B4FF08046002119602846C6F858
:104B20000C11FFF7D5FE0123736174B14FF0804380
:104B300000210124C3F810112846C3F80443FFF7ED
:104B4000FFFE10B9114BC3F80041F8BD4FF0804390
:104B50000022C3F804218207DAD50222C3F8082311
:104B6000D3F81C349B07D3D10029DFD00124D0E730
:104B7000002ACCD04FF08043D3F80C3403F001135B
:104B8000B3F1011FC3D1B7E7340C004000E100E0EE
:104B90000F4B002210B4C3F840214FF02002EFF376
:104BA000118482F311880B4AD3F80405116840F28E
:104BB0004713401A20F07F40B0FBF3F003FB0013D3
:104BC000136084F31188BFF36F8F10BC1AF0E0B943
:104BD00000100140DC07002037B51F4819F0A8F984
:104BE000002835D043681D4D1B68012198470024DB
:104BF00040F24713C5F80845C5F840354FF48033F7
:104C0000C5F84433C5F8043303F1804303F58A53F0
:104C10004FF400321C601B680193019B104B012173
:104C2000C3F880211120224600F07EFA112000F006
:104C300049FA0C4A012313602B60D5F8043503F2BE
:104C4000471323F07F43C5F84035204603B030BDFD
:104C50004FF0FF30FAE700BF22670200001001406A
:104C600000E100E0081001404CF6690270B5B0F1B7
:104C7000FF3F08BF10464FF02003EFF3118483F38A
:104C80001188144D14492E68D1F80435013890422A
:104C9000A8BF10469A1B22F07F4240F2471520EA37
:104CA000E07002F5A37205FB0020B0FBF5F005FBF8
:104CB0000060C31A23F07F4323F01F0303B9284485
:104CC00020F07F40C1F8400584F31188BFF36F8F57
:104CD00070BD00BFDC070020001001404FF0200233
:104CE000EFF3118382F31188084AD2F80405084AC9
:104CF0001268801A20F07F4040F24712B0FBF2F0B9
:104D000083F31188BFF36F8F704700BF001001401D
:104D1000DC0700204FF02003EFF3118283F31188AA
:104D20000649074B0868D3F8043582F31188BFF3AE
:104D30006F8F1B1A23F07F4318447047DC07002055
:104D40000010014004488168406A884203D003494A
:104D50004FF080520A607047F01C002004ED00E024
:104D6000044800232021C2180133272B82F80013A6
:104D7000F9D1704700E100E0094A0A4993680968DF
:104D80009966094958664B6843F080534B6000238D
:104D900083F31188BFF36F8F9368986E704700BFDD
:104DA000F01C0020C863020000ED00E0202080F32A
:104DB000118811498A684FF028001044EFF3098CDC
:104DC00080E8F01F0D4F4FF000664A6A8A603E602F
:104DD000506E0023536680F3118804B5064880683E
:104DE0001CF06EFFBDE8044002F1280090E8F01FBF
:104DF0008CF3098870470000F01C002004ED00E0EF
:104E00001EF0040F0CBFEFF30880EFF309808169F7
:104E100031F8021C11F0FF010229FFD001B51CF08E
:104E200040FF01BD38B51C4C05461C481AF0A3FDD7
:104E3000A26AD10602D51A481AF09DFDA36A1A0784
:104E400002D518481AF097FD134CA36A9B070ED59C
:104E500015481AF090FD616BA36A180607D5134830
:104E60001AF089FD1DB1A36A23F08003A3620A4CE6
:104E7000A26AD20702D50E481AF07DFDA36A9B06EE
:104E800002D50C481AF077FD034B9A6A9A6A42F0F1
:104E9000FF029A62002038BD00ED00E0A168020028
:104EA000B8680200EC68020000690200196902009B
:104EB000306902005069020038B51E4C05461E4894
:104EC0001AF059FDA26AD10402D51C481AF053FD0C
:104ED000A36A1A0502D51A481AF04DFD154CA36AAB
:104EE0009B050ED517481AF046FDA16BA36A18045E
:104EF00007D515481AF03FFD1DB1A36A23F40043FE
:104F0000A3620C4CA36A590502D510481AF033FD70
:104F1000A36ADA0509D50E481AF02DFD054A936AF1
:104F200043F47F439362002038BDA36A9B04F5D508
:104F30000848F1E700ED00E0406702005767020013
:104F4000EC6802006967020083670200996702004B
:104F5000B56702005069020010B5194C19481AF0E3
:104F60000AFDA26A930102D517481AF004FDA36A4C
:104F7000DC0102D515481AF0FEFC114CA26A1003A0
:104F800002D513481AF0F7FCA36A590302D5114859
:104F90001AF0F1FC0A4CA26A920302D50E481AF0EC
:104FA000EAFCA36ADB0302D50C481AF0E4FC044ACD
:104FB000936A6FEA03436FEA13439362002010BDC4
:104FC00000ED00E08069020099690200AD6902000D
:104FD000C8690200E76902000D6A0200286A02003F
:104FE000F8B5294D6E68C6F308040746FEF7C6FCFF
:104FF000E31E092B3BD8DFE803F0053436293A3AA3
:105000003A3A3A3821481AF0B6FCEC6A14F0020435
:1050100004D01F481AF0AFFC00241CE0EB6A5B00D0
:1050200019D51C481AF0A7FC1B4B1B781BB101209B
:10503000FFF7F8FE0CE0194B1B781BB10120FFF7BE
:105040003BFF05E0164B1B889BB223B1FFF784FFA3
:105050000628044617D039462046BDE8F84000F03F
:10506000D7B80020E4E70020E9E70E48D2E70E4B6E
:105070000E490F4816F4F87FA4F1100218BF194624
:105080001AF079FCC8E7F8BD00ED00E0FC6702000B
:10509000146802003668020028ED00E029ED00E007
:1050A0002AED00E056680200E3670200CE670200C6
:1050B0008D680200024A536943F010035361704740
:1050C00000ED00E043B2002B08DB012200F01F00DE
:1050D00002FA00F05B09024A42F82300704700BF61
:1050E00000E100E043B2002B0DDB01225B0900F080
:1050F0001F0002FA00F02033034A42F82300BFF3F6
:105100004F8FBFF36F8F704700E100E04209054BFE
:1051100000F01F0053F82220012303FA00F0104092
:10512000704700BF00E100E043B2002BA8BF03F1CD
:10513000604301F101014FEA4111AEBF03F5614344
:1051400000F00F00034BC9B2ACBF83F80013195431
:10515000704700BF14ED00E008B572B6044B186A42
:1051600018B100221A621FF0C2FE62B608BD00BF6D
:10517000F01C00202DE9F0410F4605468C183846FA
:10518000AA2190461E461CF0A8FE0A9B09990422FB
:10519000284620F0F0F8A4F120030C4923F007037F
:1051A000002221F00101C5E91322C5E916789961B1
:1051B00006995960079999600899D9604FF08071F4
:1051C0001E60D961AB646A66BDE8F0813DF60100FE
:1051D000014910220A60704710ED00E0404080F362
:1051E000118830BF704700BF404080F31188DFF85E
:1051F0001CC0DCF800C01CF4006C0CBFEFF308808E
:10520000EFF3098001B5FFF7EBFE01BD04ED00E00F
:1052100038B504460D46FEF7B1FB052C1AD8DFE879
:1052200004F00319191315170D481AF0A4FB19F00F
:1052300051FCAA6901460B481AF09DFB29462046FD
:10524000BDE8384000F018B80748EEE70748ECE73B
:105250000748EAE7214607481AF08DFBE7E700BF59
:10526000546A0200F26A0200746A02009A6A02003A
:10527000B46A0200CF6A0200052810B50CD019F0FC
:1052800093FC60B119F090FC0C490D4B002808BF4D
:1052900019460C481AF06FFBFFF7A0FFFCE719F066
:1052A00093FC0028EED1084C0848A1681AF063FB73
:1052B000A068BDE8104000F00BB800BF2E6B0200E4
:1052C000326B0200436B0200F01C0020636B020093
:1052D00038B505464FF02003EFF3118483F31188AE
:1052E00020F02AF80A4B9B68AB420BD1094B5A6855
:1052F000C2F3080212B92046FFF73EFD5A6842F099
:1053000080525A602046BDE838401FF058BF00BFA9
:10531000F01C002000ED00E001B572B60B4A106AE7
:1053200000281EBF002111621FF0E1FD62B6EFF3FD
:105330000580A0F110004FEAC0000549014409C9E9
:105340009847BDE80140034800470000F01C0020DA
:1053500058560200454D00001CF0A7FC00F004F870
:1053600030BFFFF7FDBF00BF124C08B54FF400621D
:10537000AA2120461CF0B1FD04F5006484F30988DD
:10538000EFF3148343F0020383F31488BFF36F8FAA
:10539000094B0A4A23F07F039360BFF34F8FBFF39B
:1053A0006F8F18F009FE18F011FEFFF7D9FC18F006
:1053B0003FFE00BF583E00200000000000ED00E06E
:1053C0001FB5084B0193084B0293084B039301ABA5
:1053D0000093074A074B0121684600F0B5F805B075
:1053E0005DF804FB000000200000000000000B0638
:1053F0000000002000000120F8B52E4F0E460021CD
:10540000B14222DA50F821C0DCF80440002C4FD021
:10541000EBB104F1FF3E14EA0E0F06D11F2C04D9A4
:10542000DCF800501EEA050F11D001234FF00002F6
:1054300063F307022048214B1B1ADB08204863F363
:105440008F121BF0ECFB6FF015021046F8BD202CFC
:10545000D5B2DCF80020DCF808C01AD9B4F1004F4E
:1054600019D8013CB4FA84F4C4F11F046400072D78
:105470004CEA040411D901234FF0000263F3070240
:105480000D490E4B0F485B1ADB0863F38F12294658
:10549000D7E70824EBE73E24E9E722F01F022A437E
:1054A00042F0100244F00104BD60FA603C616A1CE5
:1054B0000131A5E790ED00E0805802008859020014
:1054C0008C6B0200AF6B0200034B05225A60BFF3E6
:1054D0004F8FBFF36F8F704790ED00E0BFF35F8F8A
:1054E000014B00225A60704790ED00E013490868B4
:1054F000082810B51ED8FFF7F1FF114C49680022AB
:10550000904201F10C0105D10E4B1870FFF7DCFF42
:10551000002010BDA26051F80C3C23F01F03134380
:1055200043F01003E36051F8043C43F001032361AE
:105530000132E5E74FF0FF30EBE700BF5C5B0200B4
:1055400090ED00E0C022002010B5034C012322782A
:10555000FFF752FF207010BDC022002008B5084A96
:1055600000231278FFF748FF10F1160F03D0054B08
:105570000022072800DD08BD98601A610130F8E7B5
:10558000C022002090ED00E02DE9F04FCDB0CDE934
:105590000C019A4601920023049303E0049B0195B9
:1055A00001330493019D15F8010B48B1252874D0EF
:1055B000DDE90C3198470130F0D14FF0FF3304930F
:1055C00004984DB0BDE8F08F232C5ED053D8002C4A
:1055D000F6D0202C059B08BF01230593019DB648FA
:1055E0002B4613F8014B019321461CF004FC0028C4
:1055F000EAD12A2C59D15AF8043B0393002BBFBFA0
:105600005B42039301230B93019B1C78AB1C01931A
:10561000039BC92B28BFC82303932E2C6BD1019B5E
:105620001B782A2B64D1019B5AF8045B0133019348
:10563000019BC92D13F8014B0193A8BF4FF0FF3513
:1056400021469E481CF0D7FB18B1019B13F8014B73
:105650000193672C7BDC652C80F2DB80472C4DDCD2
:10566000452C80F2D680002CAAD0252C00F0FD829B
:10567000C82C97DDA1E72D2C0AD0302C0BD02B2C79
:105680000A9B08BF01230A93A8E74FF00109A5E789
:1056900001230B93A2E70294A0E7202302930023A7
:1056A0000593CDE90A33994699E7A4F13003092B14
:1056B0000390B2D80A222B4613F8010B0193A0F1F4
:1056C0003003092B0446A3D8039B019D02FB030072
:1056D000A0F130030393EEE700FB0535303D019266
:1056E000019A12F8013BA3F130010929F4D99FE78F
:1056F00000250A20F4E74FF0FF35A1E7632C6ED0B8
:1057000030DC582CB4D15AF8041BB9F1000F00F06A
:10571000A28247F63003ADF864300DF166062B46E1
:10572000102230461CF00AFC582C05D119AA12F898
:10573000013B002B40F091820DF1640BB9F1000F99
:10574000A6EB0B0B584414BF0227002727E0702C50
:1057500000F05D8229DC6E2C00F01E8200F32182B5
:10576000692C85D15AF8044B002C43DA2D23B4F16F
:10577000004F8DF8643042D061420DF1650B2B462D
:105780000A2258461CF0DAFB0A9B059A584453EA51
:1057900002070DF1640BA0EB0B0000D1E70F013500
:1057A000029B18BF202302937AE0752C00F04B82F5
:1057B000782CA8D0732C7FF45BAF5AF8041B4FF001
:1057C000000911F80930002B00F02F8209F10109BE
:1057D000B9F1C80FF5D1002D80F229822EE25AF8D6
:1057E000043B8DF8643000238DF865304FF00109DB
:1057F0000027E7E10A9B23B12B238DF86430214673
:10580000BBE7059B0BB12023F7E721460DF1640BA5
:10581000B5E70AF1070A2AF007039A4659685AF8C9
:10582000080BCB0243EA5053C20223F00043069216
:105830000793DDE90623C1F30A58CDE914230B468B
:1058400040F2FF718845024645D10028DDE9061285
:1058500073F10003BBBF2D238DF8643019AB0DF13C
:1058600065030A43A4F1410403F1030028D1192C74
:105870001BD849221A704E225A7046229A700DF196
:10588000640B0022DA70A0EB0B000A9B059A53EA26
:10589000020705D19DF86470A7F12D035F425F41B7
:1058A000C8283FF78AAE81468CE169221A706E22C1
:1058B0005A706622E2E700BFD56B0200DB6B020084
:1058C000192C99BF4E2241216E22612194BF1A707A
:1058D0001A705970D2E70699079E48EA01014046BE
:1058E0000E91C11731430F91DDE90E01462C08BF1F
:1058F000662401433ED00698002A46F0004173F129
:105900000003A8F2FE38CDE9140135DA2D238DF815
:1059100064300DF16507002618F1020F39DBB8F18C
:10592000000F66DC14A808F101081CF02EFBB8F18A
:10593000040FF7D1002D24F02003B8BF0625472B14
:105940007BD1B9F1000F75D115F1000818BF4FF0E8
:105950000108F21C02DB6B1C9E4272DD672C0CBF3F
:105960006524452405F1010B10239B451393A8BF23
:105970009B466EE04FF000080A9B0BB12B23C6E755
:10598000059B0BB12023C2E719AFC4E714A81CF094
:10599000FCFADDE914EC0023CDF820C00993DDE921
:1059A0000823B7480021994208BF904208F1010836
:1059B000ECD30520AEFB002300FB0C33CDE9142310
:1059C000013E4FF0000E6FF0004B4FF0000C002135
:1059D0008C4508BF9B4505D2BEF1000F9CD0CDE998
:1059E000142399E792185B4108F1FF384FF0010E3C
:1059F000EDE714A81CF0DBFADDE9141008F1FF381C
:105A000001364FF0000E00234FF0000C6FF0004BFA
:105A10009C4508BF834506D2BEF1000F3FF47FAF1F
:105A2000CDE914107BE74918404108F1FF384FF0E9
:105A3000010EE8E74FF000088BE7662C4FF00008F6
:105A400090D116EB050B40D51023139366244FF02D
:105A5000000B00224FF00063CDE916231BF1FF3B42
:105A600035D2149B169A17999B18159A41EB02028E
:105A7000CDE9143202F07043109300231193DDE955
:105A80001023134306D014A81CF091FA14A81CF09C
:105A90007CFA0136662C07F1010B35D1002E1DDD95
:105AA00007EB060B13A914A81CF0ADFA07F8010BBD
:105AB000BB45F7D1002659EA050903D02E230BF880
:105AC000013BA946D944302511E066244CE716A8CD
:105AD0001CF06DFA16A81CF058FABFE730233B7093
