:1000000060430020B1850000459F01004584000049
:1000100045840000458400004584000045840000BC
:10002000458400004584000045840000698000008C
:100030004584000045840000158000002B9F0100CE
:100040007185000079ED0100718500007185000067
:1000500071850000718500007185000071850000C8
:1000600071850000718500007185000071850000B8
:1000700071850000718500007185000071850000A8
:100080007185000071850000718500007185000098
:100090007185000071850000718500007185000088
:1000A0007185000071850000718500007185000078
:1000B0007185000071850000718500007185000068
:1000C0007185000071850000718500007185000058
:0C00D00071850000718500007185000042
:0400DC00FFFFFFFF24
:1000E00081F0004102E000BF83F0004330B54FEAE9
:1000F00041044FEA430594EA050F08BF90EA020F56
:100100001FBF54EA000C55EA020C7FEA645C7FEAE8
:10011000655C00F0E2804FEA5454D4EB5555B8BF0B
:100120006D420CDD2C4480EA020281EA030382EA7C
:10013000000083EA010180EA020281EA0303362D0E
:1001400088BF30BD11F0004F4FEA01314FF4801CE1
:100150004CEA113102D0404261EB410113F0004FF3
:100160004FEA03334CEA133302D0524263EB4303AA
:1001700094EA050F00F0A780A4F10104D5F1200E48
:100180000DDB02FA0EFC22FA05F2801841F10001A3
:1001900003FA0EF2801843FA05F359410EE0A5F177
:1001A00020050EF1200E012A03FA0EFC28BF4CF0A8
:1001B000020C43FA05F3C01851EBE37101F000455E
:1001C00007D54FF0000EDCF1000C7EEB00006EEB6B
:1001D0000101B1F5801F1BD3B1F5001F0CD34908F5
:1001E0005FEA30004FEA3C0C04F101044FEA44524C
:1001F00012F5800F80F09A80BCF1004F08BF5FEAD3
:10020000500C50F1000041EB045141EA050130BDB2
:100210005FEA4C0C404141EB010111F4801FA4F155
:100220000104E9D191F0000F04BF01460020B1FAAA
:1002300081F308BF2033A3F10B03B3F120020CDAE2
:100240000C3208DD02F1140CC2F10C0201FA0CF0C0
:1002500021FA02F10CE002F11402D8BFC2F1200C25
:1002600001FA02F120FA0CFCDCBF41EA0C019040DB
:10027000E41AA2BF01EB0451294330BD6FEA040424
:100280001F3C1CDA0C340EDC04F11404C4F120020F
:1002900020FA04F001FA02F340EA030021FA04F321
:1002A00045EA030130BDC4F10C04C4F1200220FA78
:1002B00002F001FA04F340EA0300294630BD21FAB6
:1002C00004F0294630BD94F0000F83F4801306BF7C
:1002D00081F480110134013D4EE77FEA645C18BF70
:1002E0007FEA655C29D094EA050F08BF90EA020F07
:1002F00005D054EA000C04BF1946104630BD91EAFF
:10030000030F1EBF0021002030BD5FEA545C05D101
:100310004000494128BF41F0004130BD14F5800440
:100320003CBF01F5801130BD01F0004545F0FE41B4
:1003300041F470014FF0000030BD7FEA645C1ABFE9
:10034000194610467FEA655C1CBF0B46024650EA20
:10035000013406BF52EA033591EA030F41F400214C
:1003600030BD00BF90F0000F04BF0021704730B5D2
:100370004FF4806404F132044FF000054FF00001A7
:1003800050E700BF90F0000F04BF0021704730B568
:100390004FF4806404F1320410F0004548BF40423D
:1003A0004FF000013EE700BF42004FEAE2014FEA92
:1003B00031014FEA02701FBF12F07F4393F07F4F6D
:1003C00081F06051704732F07F4208BF704793F070
:1003D0007F4F04BF41F40021704730B54FF4607483
:1003E00001F0004521F000411CE700BF50EA010286
:1003F00008BF704730B54FF000050AE050EA01022F
:1004000008BF704730B511F0004502D5404261EB9E
:1004100041014FF4806404F132045FEA915C3FF4DF
:10042000D8AE4FF003025FEADC0C18BF03325FEA7C
:10043000DC0C18BF033202EBDC02C2F1200300FA2D
:1004400003FC20FA02F001FA03FE40EA0E0021FA52
:1004500002F11444BDE600BF4FF0FF3C06E000BFD0
:100460004FF0010C02E000BF4FF0010C4DF804CD3D
:100470004FEA410C7FEA6C5C4FEA430C18BF7FEAFD
:100480006C5C1BD001B050EA410C0CBF52EA430C2B
:1004900091EA030F02BF90EA020F0020704710F1AB
:1004A000000F91EA030F58BF994208BF90422CBF3A
:1004B000D8176FEAE37040F0010070474FEA410C33
:1004C0007FEA6C5C02D150EA013C07D14FEA430C51
:1004D0007FEA6C5CD6D152EA033CD3D05DF8040BC2
:1004E000704700BF8446104662468C4619466346F4
:1004F00000E000BF01B5FFF7B7FF002848BF10F1CB
:10050000000F01BD4DF808EDFFF7F4FF0CBF01200F
:1005100000205DF808FB00BF4DF808EDFFF7EAFF8B
:1005200034BF012000205DF808FB00BF4DF808ED46
:10053000FFF7E0FF94BF012000205DF808FB00BF3B
:100540004DF808EDFFF7CEFF94BF012000205DF8C5
:1005500008FB00BF4DF808EDFFF7C4FF34BF0120D2
:1005600000205DF808FB00BF80F0004002E000BF03
:1005700081F0004142001FBF5FEA410392EA030F8E
:100580007FEA226C7FEA236C6AD04FEA1262D2EBD8
:100590001363C1BFD218414048404140B8BF5B42DD
:1005A000192B88BF704710F0004F40F4000020F076
:1005B0007F4018BF404211F0004F41F4000121F08C
:1005C0007F4118BF494292EA030F3FD0A2F10102D6
:1005D00041FA03FC10EB0C00C3F1200301FA03F114
:1005E00000F0004302D5494260EB4000B0F5000F37
:1005F00013D3B0F1807F06D340084FEA310102F1F6
:100600000102FE2A51D2B1F1004F40EBC25008BFA7
:1006100020F0010040EA03007047490040EB000071
:1006200010F4000FA2F10102EDD1B0FA80FCACF1A0
:10063000080CB2EB0C0200FA0CF0AABF00EBC2509F
:1006400052421843BCBFD0401843704792F0000F8D
:1006500081F4000106BF80F400000132013BB5E7E0
:100660004FEA41037FEA226C18BF7FEA236C21D056
:1006700092EA030F04D092F0000F08BF08467047BB
:1006800090EA010F1CBF0020704712F07F4F04D189
:10069000400028BF40F00040704712F100723CBF9C
:1006A00000F50000704700F0004343F0FE4040F4C6
:1006B000000070477FEA226216BF08467FEA236384
:1006C0000146420206BF5FEA412390EA010F40F46F
:1006D000800070474FF0000304E000BF10F00043BB
:1006E00048BF40425FEA000C08BF704743F09643A2
:1006F00001464FF000001CE050EA010208BF7047BD
:100700004FF000030AE000BF50EA010208BF704743
:1007100011F0004302D5404261EB41015FEA010C58
:1007200002BF84460146002043F0B64308BFA3F150
:100730008053A3F50003BCFA8CF2083AA3EBC25332
:1007400010DB01FA02FC634400FA02FCC2F1200251
:10075000BCF1004F20FA02F243EB020008BF20F088
:100760000100704702F1200201FA02FCC2F12002EE
:1007700050EA4C0021FA02F243EB020008BF20EAE3
:10078000DC7070474FF0FF0C1CEAD0521EBF1CEA11
:10079000D15392EA0C0F93EA0C0F6FD01A4480EAFF
:1007A000010C400218BF5FEA41211ED04FF00063E8
:1007B00043EA501043EA5111A0FB01310CF0004014
:1007C000B1F5000F3EBF490041EAD3715B0040EA3A
:1007D000010062F17F02FD2A1DD8B3F1004F40EB0A
:1007E000C25008BF20F00100704790F0000F0CF0DD
:1007F000004C08BF49024CEA502040EA51207F3AA1
:10080000C2BFD2F1FF0340EAC250704740F400007B
:100810004FF00003013A5DDC12F1190FDCBF00F06C
:1008200000407047C2F10002410021FA02F1C2F11A
:10083000200200FA02FC5FEA310040F1000053EAB6
:100840004C0308BF20EADC70704792F0000F00F004
:10085000004C02BF400010F4000F013AF9D040EA0A
:100860000C0093F0000F01F0004C02BF490011F49E
:10087000000F013BF9D041EA0C018FE70CEAD1539C
:1008800092EA0C0F18BF93EA0C0F0AD030F0004C1C
:1008900018BF31F0004CD8D180EA010000F00040D0
:1008A000704790F0000F17BF90F0004F084691F08E
:1008B000000F91F0004F14D092EA0C0F01D14202C8
:1008C0000FD193EA0C0F03D14B0218BF084608D191
:1008D00080EA010000F0004040F0FE4040F40000DB
:1008E000704740F0FE4040F4400070474FF0FF0C6E
:1008F0001CEAD0521EBF1CEAD15392EA0C0F93EAB5
:100900000C0F69D0A2EB030280EA010C49024FEA06
:10091000402037D04FF0805343EA111143EA1013BF
:100920000CF000408B4238BF5B0042F17D024FF477
:10093000000C8B4224BF5B1A40EA0C00B3EB510F52
:1009400024BFA3EB510340EA5C00B3EB910F24BF3B
:10095000A3EB910340EA9C00B3EBD10F24BFA3EBC0
:10096000D10340EADC001B0118BF5FEA1C1CE0D188
:10097000FD2A3FF650AF8B4240EBC25008BF20F03B
:10098000010070470CF0004C4CEA50207F32C2BF8F
:10099000D2F1FF0340EAC250704740F400004FF02C
:1009A0000003013A37E792F0000F00F0004C02BF5D
:1009B000400010F4000F013AF9D040EA0C0093F027
:1009C000000F01F0004C02BF490011F4000F013B81
:1009D000F9D041EA0C0195E70CEAD15392EA0C0FE9
:1009E00008D142027FF47DAF93EA0C0F7FF470AF21
:1009F000084676E793EA0C0F04D14B023FF44CAF64
:100A000008466EE730F0004C18BF31F0004CCAD1F8
:100A100030F000427FF45CAF31F000437FF43CAF34
:100A20005FE700BF4FF0FF3C06E000BF4FF0010C56
:100A300002E000BF4FF0010C4DF804CD4FEA400238
:100A40004FEA41037FEA226C18BF7FEA236C11D082
:100A500001B052EA530C18BF90EA010F58BFB2EB35
:100A6000030088BFC81738BF6FEAE17018BF40F0B5
:100A7000010070477FEA226C02D15FEA402C05D169
:100A80007FEA236CE4D15FEA412CE1D05DF8040BEE
:100A9000704700BF844608466146FFE70FB5FFF781
:100AA000C9FF002848BF10F1000F0FBD4DF808ED39
:100AB000FFF7F4FF0CBF012000205DF808FB00BF2A
:100AC0004DF808EDFFF7EAFF34BF012000205DF884
:100AD00008FB00BF4DF808EDFFF7E0FF94BF0120D1
:100AE00000205DF808FB00BF4DF808EDFFF7D2FFCE
:100AF00094BF012000205DF808FB00BF4DF808ED11
:100B0000FFF7C8FF34BF012000205DF808FB00BFDD
:100B10004FEA4002B2F1FE4F0FD34FF09E03B3EB0A
:100B200012620DD94FEA002343F0004310F0004F4A
:100B300023FA02F018BF404270474FF000007047A0
:100B400012F1610F01D1420205D110F0004008BF3F
:100B50006FF0004070474FF00000704742000ED227
:100B6000B2F1FE4F0BD34FF09E03B3EB126209D4E8
:100B70004FEA002343F0004323FA02F070474FF09E
:100B80000000704712F1610F01D1420202D14FF013
:100B9000FF3070474FF00000704700BF7BB972B95B
:100BA0000029BEBF00204FF0004106E008BF00282A
:100BB0001CBF6FF000414FF0FF3000F057B8ADF1AF
:100BC000080C6DE904CE002909DB002B1ADB00F0CC
:100BD00062F8DDF804E0DDE9022304B0704740422A
:100BE00061EB4101002B1BDB00F055F8DDF804E060
:100BF000DDE9022304B0404261EB4101524263EB64
:100C000043037047524263EB430300F044F8DDF8BE
:100C100004E0DDE9022304B0404261EB410170478A
:100C2000524263EB430300F036F8DDF804E0DDE9FF
:100C3000022304B0524263EB4303704753B94AB9ED
:100C4000002908BF00281CBF4FF0FF314FF0FF30D4
:100C500000F00CB8ADF1080C6DE904CE00F01BF803
:100C6000DDF804E0DDE9022304B07047704700BFFF
:100C7000430803F05533C01A00F03333800800F006
:100C80003330184400EB10104FF0013300F00F30F8
:100C90005843000E70472DE9F04F099F1546044652
:100CA0008E461E46002B40F0CC808A42B2FA82FC6F
:100CB0004CD9BCF1000F0BD0CCF1200801FA0CFE8E
:100CC00020FA08F802FA0CF548EA0E0E00FA0CF4C5
:100CD0004FEA15491FFA85F8BEFBF9FA210C09FB0A
:100CE0001AE30AFB08FB41EA03439B452AD9EB18A8
:100CF0000AF1FF3004D29B4502D9AAF102002B442D
:100D0000A3EB0B03A4B2B3FBF9F209FB123302FB12
:100D100008F844EA0344A04516D92C1902F1FF3320
:100D200003D2A04501D9931E2C44A4EB080443EA46
:100D3000004027B124FA0CF400233C607B6031466C
:100D4000BDE8F08F5046DBE71346EEE702B9FFDE61
:100D5000BCF1000F2ED18B1A01264FEA154EAAB214
:100D6000B3FBFEF8210C0EFB183308FB02F941EA35
:100D70000343994561D9EB1808F1FF3004D2994536
:100D800002D9A8F102002B44A3EB0903A4B2B3FBE0
:100D9000FEF10EFB11334A4344EA0344A2424ED90A
:100DA0002C1901F1FF3303D2A24201D98B1E2C442E
:100DB000A41ABCE7CCF1200E02FA0CF521FA0EF9C8
:100DC00001FA0CF320FA0EFE4EEA03034FEA15482F
:100DD00000FA0CF4B9FBF8F11FFA85FE08FB11923A
:100DE000180C01FB0EF640EA0242964221D9AA18DD
:100DF00001F1FF3003D2964201D9881E2A44921B8A
:100E00009BB2B2FBF8F908FB192209FB0EFE43EA7C
:100E100002439E450FD9EB1809F1FF3604D29E45D7
:100E200002D9A9F102062B44A3EB0E0346EA0046C1
:100E300093E70846E3E74E46F6E74046A4E70B464D
:100E4000B6E78B4205D90FB1C7E90001002630464D
:100E500075E7B3FA83FCBCF1000F0FD18B4201D3CD
:100E6000824209D8841A61EB030E0120002F6AD058
:100E7000C7E9004E002662E76046F7E7CCF1200E96
:100E800003FA0CF322FA0EF521FA0EF41D4301FACF
:100E90000CF320FA0EF10B434FEA154A00FA0CF658
:100EA000B4FBFAF91FFA85F80AFB19401C0C09FB80
:100EB00008F144EA0044A14202FA0CF23FD92C198D
:100EC00009F1FF3004D2A14202D9A9F102002C4459
:100ED000641A9BB2B4FBFAF90AFB194409FB08F83F
:100EE00043EA044188452CD9691809F1FF3304D23B
:100EF000884502D9A9F10203294443EA0040A1EB45
:100F00000801A0FB02894945C2464C4602D306D1DE
:100F1000464504D2B8EB020A69EB0504013897B1E3
:100F2000B6EB0A0361EB040606FA0EFE23FA0CF395
:100F30004EEA030326FA0CF6C7E900369AE748465C
:100F4000C6E74B46D9E73E46F9E600000000000040
:100F50002DE9F047FFF7BEFB2349FFF7C7FC00214F
:100F60000546FFF7B7FD002834D120492846FFF792
:100F7000BDFC0FF26409D9E9008906464FF07C5A9E
:100F800031462846FFF7B2FC3146FFF7F3FA5146E7
:100F9000FFF7F8FB31460446FFF7EAFAFFF704FAD9
:100FA00042464B4606460F46FFF7D4FA80B90CA3DB
:100FB000D3E9002330463946FFF7AEFA40B90A4973
:100FC0002046FFF7DFFBFFF7C9FD80B2BDE8F087E1
:100FD0002646D5E70024F2E7D94B3A8EE22D1000E1
:100FE000D94B3A8EE22D108000FF7F470000404031
:100FF0002DE9F04FB64D1C462B7C8FB00646884637
:101000002BB1404080F311884FF0040002DF94F8C8
:1010100020300733DBB22B7494F91D30002B09DA32
:10102000E36B616C02FB03330B44216C994294BF68
:1010300061646364278D94F85C303A44678C92B2A3
:1010400022853A4497B294F85D209A4258D194F898
:10105000D0305A0754D494F8A92094F8A8309A4272
:101060004ED0052012F00EFDD5F880310BB19C4218
:1010700046D194F8AA3003F00703052BC1D8DFE866
:1010800013F006005500FA003F003F003F00914872
:101090001DF0B0FA014698B394F8AA30042262F326
:1010A000020384F8AA30037943F003030371182381
:1010B00043710F23C371B4F8AC300381B4F8AE3080
:1010C0004381B4F8B0308381B4F8B230C3810023D7
:1010D0000374C37403754FF0FF3343758375C37591
:1010E000037643768376C376037743778377A0F8D6
:1010F000117020461DF01AFD638EC5F88041A3864D
:1011000094F85D2094F85C309A4200F02381052029
:1011100012F0B8FC94F85E30013B032B3FF671AF40
:10112000DFE813F0DA00C00203035C0394F8AB902D
:10113000B9F1000F1DD067481DF05CFA0146002888
:10114000DED0037943F0030303711123C37103233A
:1011500043710F23037294F8AB30437220461DF0A5
:10116000E5FC94F8A83084F8A9300023C5F8803154
:10117000C6E794F91D30002B3ADB94F85D1094F823
:101180005C308B42BCD194F8AA30C4F86C90052234
:1011900062F3020394F8B42084F8AA30012384F89F
:1011A000703012B3B4F8AC30B3FBF2F3013313FB7D
:1011B00002F39BB2A4F86230D4F8B030636694F8BE
:1011C0006030022262F3010394F8AA2082F0080240
:1011D000C2F3C00262F3820384F860300139012354
:1011E00084F85E3084F85D108AE7B4F8AE30E1E749
:1011F00038481DF0FFF90146002881D0037943F0FB
:1012000003030371182343711023C371B4F8AC3086
:101210000381B4F8AE304381B4F8B0308381B4F8C0
:10122000B230C38194F8B4300374B4F8B630A0F887
:101230001130B4F8B830A0F81330B4F8BA30A0F8D0
:101240001530B4F8BC30A0F81730B4F8BE30A0F8B0
:101250001930B4F8C030A0F81B30B4F8C230A0F890
:101260001D3020461DF062FC94F8A83084F8A930A7
:10127000C5F8809144E794F8D0301B073FF540AFA4
:10128000022011F005FF00283FF43AAF94F8AA308D
:10129000032262F3020384F8AA30238CC380022362
:1012A0000371037A13430372182343720F23C3722B
:1012B000B4F8AC308381B4F8AE30C381B4F8B03048
:1012C0000382B4F8B230438212F0B8FA18E700BFD4
:1012D0003012002084130020D5F880310BB9C5F8F6
:1012E000804194F8603013F0030371D036481DF04C
:1012F00081F9014670B394F8603002796FF301030D
:1013000084F86030E38C3B4406339BB242F0030226
:10131000A4F8683002710C2242710022C27194F864
:1013200070200272E26E40F2E240B2FBF0F2A1F8ED
:101330000920B4F86220A1F80B20B4F86420A1F8C9
:101340000D20B4F86620A1F80F20A1F81130204636
:101350001DF0ECFB94F8992094F898309A421DD037
:10136000052012F08FFB18481DF044F90146A8B182
:1013700094F8983084F89930037943F003030371AB
:1013800002234371C37194F89A30037220461DF012
:10139000CDFBE38D012B98BF0133A3860B4B039448
:1013A000029394F820300733DBB20193A3680093D3
:1013B0002246231D41463046013712F071FB6784F7
:1013C0000FB0BDE8F08F00BF841300200140010082
:1013D000B4F86890A7EB090292B210040B92B9D44A
:1013E00094F85C2084F85D2094F8A81094F8A92063
:1013F0008A4208D094F8AA2002F00702052A04BF06
:1014000084F8A910A386D5F880210023944208BF50
:10141000C5F880312B74B4F86220A38C9A4214D1A1
:10142000B4F86410E38C99420FD140F2E2435A437E
:10143000B4F8663042F2107101FB0323013B93FBC9
:10144000F2F3E28D9BB29A4216D0022011F020FEF8
:1014500000283FF4D6AD238CC3800A2303710023F8
:101460000372B4F862304381B4F864308381B4F815
:101470006630C38112F0E2F9D4E9000B002808DAE3
:1014800020F00040A3682060361A9B452CBF5E44C4
:10149000F6180B9AA38CB4F862A0DFF8BC8313FB98
:1014A00002F39BB2B3FBFAF18AB20C921AFB02F27E
:1014B00092B2934240F2E24080F0DA80D31A58436D
:1014C00080FB0801DAA3D3E90023FFF7B7FB20F084
:1014D0007F4006440C9BA9EB07071F442368B4F820
:1014E00028909B4538BF9B4694F91D30CDF834B009
:1014F0004F44002B40F2E2492785D4F86CB009FB39
:101500000AF780F2C280626C0B99E36B0C9803FBC4
:10151000112395F82021C84931F8125094F8382049
:10152000C2F3820231F8122094F8701015447D4302
:1015300005F57425C14A09FB01F105F23F25B5FB0C
:10154000F2F57A086843963A0344E1640021E563C2
:101550002264A165934294BF63646264A0FB0801A6
:10156000B3A3D3E90023FFF769FB361ABBFBF9F0FD
:1015700009FB00F0AEA3D3E90023A0FB0801FFF7AD
:101580005DFB20F07F430B937D1BB4F86430E38454
:10159000B4F86630A4F824A042F2107202FB037380
:1015A000013BB3FBF7F3E385A54B3B44B3FBF7F7F4
:1015B00094F86030678613F0040308BF2386012186
:1015C00000201DF0F3FC00220C90012110460FF0CA
:1015D000B7FF94F820709B4B0737FFB200210097AC
:1015E0003A46084610F06EFD30F0020A7FF409AD6D
:1015F000A5FB08898EA3D3E9002340464946FFF79F
:101600001DFB41F6524308938F4B0D9ACDE90643DB
:101610008E4B0593E3681A448D4B20F07F44A4FB66
:1016200003BC072303FB04CCB8EB0B0069EB0C01F4
:10163000CDE903A200234FF47A72FFF7FFFA0B9B68
:101640000093CDE9014033463A465146504610F0EA
:10165000A7FC30F002007FF4D4AC0C9B002B3FF4CD
:10166000AFAE012211460FB0BDE8F04F0FF068BFDA
:101670000AFB113189B248436DA3D3E9002380FBF3
:101680000801FFF7DBFA361A24E769A3D3E9002340
:10169000ABFB0801FFF7D2FA20F07F40431C0B930D
:1016A0003D4672E794F8603013B36A481CF0A2FF1D
:1016B000054600283FF44EAE002384F86030E38CEA
:1016C0003B440633A4F86630037943F00303037107
:1016D000082343710123C37104F16101052208301D
:1016E00018F0E2FCB4F86630A5F80D3029462EE675
:1016F000B4F86630FB1A19043FF52CAE94F85C3050
:1017000084F85D3004F11705052204F161012846D3
:1017100018F0CAFC052128461CF0D2FF637F60F355
:10172000050363770123237714E694F8381011F04A
:10173000200924D094F85C3084F85D30022011F048
:10174000A7FC054600283FF45CAC238CC380022331
:101750000371037A43F00303037209234372C372D4
:10176000082200210C3018F0C9FCD4F88C302B73FF
:101770001A0A1B0C6A73AB7312F060F8EAE535487D
:101780001CF038FF054600283FF4E4AD94F85C30C7
:1017900084F85D304FF4C773C4F88C30037943F09C
:1017A000030303710923437194F91D30002BACBF6F
:1017B00008230E230822C3714946104418F09EFCEA
:1017C000D4F88C302B721A0A1B0C6A72AB72294641
:1017D00020461DF0ABF9638EA386BBE594F89030EC
:1017E000DA073BD41B481CF005FF014600283FF4F4
:1017F000B1AD94F85C3084F85D3094F8903043F0EB
:10180000010384F89030037943F003030371062346
:1018100043710C23C371092303726FF00E034372EB
:10182000052383724FF0FF33C3720373D0E700BF09
:101830008D49FD1A07000000DC0B020040420F003A
:10184000FF596202C5310100B1310100F10F000002
:101850008D49FD1A8413002000CA9A3B9B077FF52F
:10186000D0AB94F85C3084F85D30022011F010FCAD
:1018700000283FF4C6AB238CC38002230371037A94
:1018800043F003030372062343720C23C37294F8DC
:1018900091300373B4F89230A0F80D30B4F894305E
:1018A000A0F80F3068E700BF2DE9F04F91B013F0BA
:1018B000E5FCC6B236B313F001FDC3B20A9313F0D0
:1018C00083FDC5B213F08AFD13F00EFF13F0FAFE8C
:1018D00013F042FD5FFA80F8704C13F0B9FC13F07E
:1018E00083FD13F069FD13F0F3FE13F02DFD677D0A
:1018F000052F2AD8DFE817F05E0086000A00D1091C
:10190000D109D109B04635460A96E5E7012363754A
:1019100013F050FE0546962013F076FD237D013B23
:10192000CB35032B11D8DFE803F00224484800230D
:101930001A461946184613F0DFFC13F0CDFC13F0DD
:101940005DFC13F091FC044628B1404080F31188FF
:101950004FF0040002DF01461DF015FB214605444F
:1019600020461DF00CFB281A13F0DEFD13F014FEC8
:1019700020E0002319461A46184613F0BDFC94F8DF
:101980003921D4F8343153F82200083013F036FCF2
:1019900013F06AFC04460028D7D101461DF0F3FA83
:1019A0002146054420461DF0EAFA281A13F0BCFD32
:1019B00013F0BAFC11B0BDE8F08F00231A461946A7
:1019C000184613F099FC94F83921D4F83431D4F83E
:1019D000140153F8221008311DF02CF813F044FCC8
:1019E00004460028B1D101461DF0CDFA2146054438
:1019F00020461DF0C4FA281A13F096FD012011F0BC
:101A0000F3FDD7E726B90323637513F00FFCD1E785
:101A1000237DDBB2022B00F0DB81032B00F0A382DD
:101A2000012B92D10A9B002BEDD013F055FC94F8BA
:101A300078202A234FF0270A1AFB023A027802F094
:101A40000F03032B064604EB0A0729D143780C2B1E
:101A5000D9D194F82930190701D5002DD3D014F825
:101A60000A30C3F38013B3EBD21FCCD1062206F1A8
:101A70000801B81C18F008FB90B90323637513F034
:101A800045FC94F8C800272303FB00407A3013F08C
:101A9000BBFB13F0E9FB00288CD056E73012002086
:101AA000337803F00F03052BADD17378222BAAD125
:101AB00014F80A3003F00F03012B40F0798131460E
:101AC00038461CF07AFF88B1337814F80A20C3F343
:101AD0008013B3EBD21F40F069810622B11C07F1DD
:101AE000080018F0D1FAB0FA80F0400900288AD036
:101AF00094F87A312BB194F8783194F879219A429C
:101B000081D1D4F8CC30002B3FF47DAF032011F00D
:101B1000BFFA814600283FF476AF4FF0040B84F8FB
:101B200015B013F083FBD4F8CC50D4F8081100277B
:101B30004FF496722846C4F8CC701CF08CFD06F168
:101B400012012884032205F1140018F0ADFA05F102
:101B5000100318465A4606F10E0105F117080A93BC
:101B600018F0A2FA052206F11E01404618F09CFA70
:101B7000052140461CF0A4FD6A7F0A9B60F3050224
:101B80006A7796F82320C2F30402AA77B6F8188081
:101B9000A5F8248040F2E24202FB08F8F17EB27E12
:101BA00042EA0122EA8419465A4605F1540018F027
:101BB0007BFAB38B42F2107202FB0383013BB3FB4F
:101BC000F8F3EB85CE4B4344B3FBF8F36B862B8CD9
:101BD000A9F806300823314689F804304FF48073A1
:101BE000A9F8083011F8023BC3F3801389F80A30D2
:101BF000062209F10B0018F057FA727E337E43EA91
:101C00000223A9F81230F27EB37E43EA0223A9F838
:101C10001430727F337F43EA0223A9F8163096F816
:101C20002330C3F3421389F81830288C11F0A6FA38
:101C300011F004FE96F8232095F83830B149520986
:101C400062F3840385F8383094F8203131F812209B
:101C500031F81330134408FB03F303F57423AA4A45
:101C600003F23F23B3FBF2F3EB634FEA5803963BD7
:101C70002B64737D40F2E2425343C5E91373394646
:101C800038461DF07EF9A149834600F252409AA3DE
:101C9000D3E90023A0FB0101FEF7D0FFD4F87C318B
:101CA0006B602722934238BF13469946EB6B2A603C
:101CB00020F07F40A8EB0303E860AF600A9313F0C5
:101CC00073FCF68A40F2E24280463946384602FB0F
:101CD00006261DF054F9303E40F2AD43B044A8EB67
:101CE0000008009305228A4B3946384610F0EAF97D
:101CF00040F2AE4111F070FA14F80A30DFF80CA28D
:101D000003F00F03012BA8EB0B0806D100973B460D
:101D100003223946384610F0D5F90A9BA3FB0A671F
:101D2000304675A3D3E900233946FEF787FFA36841
:101D300095F82040A3EB09030A9340F2C5430893AA
:101D4000744BCDE90653744B0593EB684B440493F5
:101D5000724B20F07F45A5FB03BC072303FB05CC9A
:101D6000B6EB0B0067EB0C014FF000094FF47A72F1
:101D70000023CDF80C90FEF761FF5FA3D3E90023A9
:101D8000CDE90150A8FB0A01FEF758FF073420F007
:101D90007F40E4B200900A9B22464946484610F034
:101DA000FFF830F002037FF4D0AD03E600209DE69B
:101DB00094F82930C3F3C1039A0700D535B13146F1
:101DC00038461CF0FAFD00F001008FE62846FAE7DD
:101DD0000A9B002B00F0828094F8E1309B0701D52C
:101DE000002D7BD094F83921D4F8343153F82250A7
:101DF0002A7A12F00F0301D0062B4FD194F8E1108C
:101E0000CF0740D5D4F8001100293CD140461CF042
:101E100069FE0746002861D113F05EFA0378404955
:101E2000032262F3030303702A7ADBB2C2F3801247
:101E300062F3C7130C22427094F8E120C2F300123F
:101E400062F386130646062200F8023B18F02CF9CE
:101E5000062205F10A0106F1080018F025F994F8A8
:101E6000E03043F0020384F8E030962002236375EB
:101E700013F0CAFA384613F033FA304613F0C4F9B7
:101E800013F08AFB05E64BB900216B7A33B3D4F823
:101E900000311BBB40461CF025FE1FE0012B41D04A
:101EA0002B7A03F00B02022AEED003F00F03042B6F
:101EB00014D194F8E030980710D513F00DFA2B7A6E
:101EC0000278C3F38013B3EBD21F07D1062205F1CA
:101ED0000A01083018F0D8F80028D5D0032363751C
:101EE00013F0A4F994F8E0306FF3410384F8E03084
:101EF00060E500BFAFF300808D49FD1A07000000C8
:101F0000FF596202DC0B020040420F0000CA9A3BFC
:101F1000D93101000FEA0100F10F00008D49FD1ACF
:101F20001213002094F8E130C3F30013B3EBD21F77
:101F300010D094F8E130C3F341039E07B0D595F972
:101F40000830002BACDA6B7D03F0C003402BA7D127
:101F500001219AE7062205F11001C64818F094F80D
:101F6000002891D0E5E794F8183194F839210A99BE
:101F7000013384F81831D4F8343153F82260D4F89E
:101F8000143102223271002900F0A28593F8D0208A
:101F9000307A02F00101C0F38000884200F0B18085
:101FA00081F0010161F3000283F8D020227D032A31
:101FB00002BF93F8382042F0010283F8382093F8EA
:101FC000D020110600F19980D3F8148193F82901EB
:101FD00008F1040C0CEB000999F80150002D3CD1DC
:101FE0004FF00009D4F8142192F8293192F8281101
:101FF0002B44DBB2994282F8293159D04FF00008C6
:10200000B9F1000F7FD0D4F8140111F03DFB002787
:10201000C4F8147113F0B4FA18B913F0A5FA13F058
:10202000A9FA954CD4F81431002B3FF4C3ACB8F1A5
:10203000000F03D04146188C11F0B2FA002F3FF484
:10204000B9ACD4F81431188C11F098F8D4F81431D4
:102050001B8CF38011F0F2FBACE492060AD5D3F8A6
:102060000221D3F80611013241F10001C3F8022127
:10207000C3F806111CF8003003F00303032BAFD1A3
:1020800099F80320022AABD1637513F0CFF813F04F
:10209000EBF800287FF459AC99F80410D4F8140137
:1020A000132908BF162111F0F9FB4FF0010999E738
:1020B000D2E9451300209942A2F8280112D1B8F1C3
:1020C000000F9BD0D2F81C310D68C2F81451994210
:1020D0000CBFC2E94600C2F81851684940461CF0DE
:1020E000A2FA8BE7D2F82031994204BF0B68C2F8FC
:1020F00020310B68C2F8143182E76FF3C71283F8FE
:10210000D0204FF00008D4F81431327A93F8D03050
:10211000C2F3C002C3F340039A4240F0A2810320FD
:1021200010F0B6FF002800F09C8194F87A3183B358
:10213000D4F84431D4F84821934205D194F8782159
:1021400094F87911914224D0D4F84821934200F0B8
:10215000888194F8783194F879219A4200F081814D
:1021600094F87831D4F8142123B9B4F87611138C8B
:1021700099420ED094F87831002B00F0728194F8D7
:10218000783104EB4303B3F87011138C994240F09B
:10219000688196F80990B9F1000F00F04281D4F8F7
:1021A000143193F8D09019F010090BD013F062FAA3
:1021B00000283FF4CAABD4F8143193F8D030DD06D0
:1021C00040D4B946D4F8145195F8D0300C9313F09C
:1021D000040F337A10D003F00301032936D195F9A7
:1021E0001DC00C9AF17ABCF1000F02F040005ADBDE
:1021F000002845D1022953D1C3F30103D9B25BB200
:10220000002B00F05F84022940F2B68096F80BA004
:1022100006F1080BBAF1110F00F23F84DFE81AF063
:102220005100CD0005013D043D043D043D0406047C
:102230000E012B013D043D0451013D042301B30176
:102240001403970313F034FA0028BAD103236375FB
:1022500012F0ECFF13F008F8074600287FF475AB86
:10226000D4F814013D2111F019FBD4F8140111F038
:102270000BFACDE612130020301200208413002048
:10228000881EC0B209280BD840F2052C2CFA00F0A9
:10229000C007B1D4C54820FA01F1CA07ACD4D5E7CC
:1022A0001129D3D8F6E738B90729A5D00229A3D038
:1022B0001129CBD8BE48EEE7881E01289CD90B29EE
:1022C000F5E795F91D30002B80F2E783717A002045
:1022D00010F0B8FE002800F0E083B6F815106B8C03
:1022E000CB1A1F0444D495F85D3095F85C209A42CF
:1022F00061D1D4F880210AB9C4F88051327B85F8C5
:102300007020B6F80D0040F2E2424243EA66307CAB
:10231000F27B42EA0022A5F86220B07C727C42EA9D
:102320000022A5F86420F27C307DA5F8681042EA0E
:102330000022A5F8662095F8602022F00702013BF4
:1023400085F86020012285F85E2085F85D3095F8DB
:10235000A82095F8A930934207D095F8AA3003F049
:102360000703042B01D185F8A9200023AB8602E0E6
:10237000282385F89B3057468E4BD3F8143193F8B9
:10238000D02082F0020283F8D020B9F1000F0AD0E9
:10239000D3F8E120D3F8E510013241F10001C3F890
:1023A000E120C3F8E510834B002583F81951D3F8D9
:1023B00014311D86A0E32A23DBE795F91D30002B9D
:1023C00080F26B83717A012010F03CFE002800F04F
:1023D0006483B6F811306A8C9B1A1C041ED495F8DD
:1023E0005C2095F85D309A421DD1052206F10C0162
:1023F00005F1610017F058FE737CB27C43EA0223BA
:10240000A5F86630022385F85E3095F85D30002728
:10241000013B85F8607085F85D30ADE7282385F8CD
:102420009B300027A8E72A23F9E7717A022010F0F1
:1024300009FE002800F03183337BF0E795F91D3069
:10244000002B80F22A83717A082010F0FBFD00280F
:1024500000F023835946284611F0FCFC074600286B
:102460008AD000279FE795F91D30002BC0F2158315
:10247000717A0E20E9E7717A092010F0E3FD002857
:1024800000F00B83B37B727B1B0443EA0223327B95
:10249000134343F07F4343F47E03D5F88C2043F489
:1024A000435343F010031340C3F31003C5F88C30BB
:1024B00095F8383043F0200385F838300023AB8698
:1024C0005AE7717A0C2010F0BDFD002800F0E5827B
:1024D00095F8903013F001074FD137481CF08AF877
:1024E00001460028BDD095F8903043F0010385F8EF
:1024F0009030037943F003030371062343710C23E7
:10250000C371092303726FF00E03437205238372B4
:102510004FF0FF33C372037328461CF035FB95F868
:10252000D03043F0800385F8D03012F0D1FE03782C
:102530004770012262F30103D5F814210370DBB266
:10254000C2B143F010030370337B85F89130B27B46
:10255000737B43EA0223A5F89230F37B327C43EA93
:102560000223A5F8943095F8903043F0020385F8E3
:10257000903001E767F30413E5E713F002037FF4FB
:1025800050AFAB86E0E7717A0F2010F05BFD0028BA
:1025900000F08382D4F880310B937BB19D420DD043
:1025A00020220F21284611F097FC57E760200200F7
:1025B00040200200301200208413002095F91D10E5
:1025C00095F8A9B095F8A8300029C0F2A0809B45E5
:1025D00009D095F8AA3013F0070302D0043B012B71
:1025E00001D82322DDE795F85C1095F85D3099421B
:1025F00001D02A22D5E7B6F80CA01FFA8AF3052BE2
:1026000022D9B6F80EE01FFA8EF1B1F5486F1BD84B
:102610008B4219D8B6F810C01FFA8CF0B0F5FA7FCB
:1026200012D2738AADF834309BB2A3F10A04A4B27B
:1026300040F67642944207D800FB0114B4EB830FB6
:1026400002DA347DA14201D21E22AAE7BDF834206D
:10265000A5F8ACA0A5F8AEE0A5F8B0C0A5F8B220EA
:1026600085F8B44096F816C0747D44EA0C24A5F8A9
:10267000B64096F818C0F47D44EA0C24A5F8B8409A
:1026800096F81AC0747E44EA0C24A5F8BA4096F86D
:102690001CC0F47E44EA0C24A5F8BC4096F81EC089
:1026A000747F44EA0C24A5F8BE4096F820C0F47F5D
:1026B00044EA0C24A5F8C04096F8214096F822C0C0
:1026C00044EA0C24A5F8C240AC8CA14211D1E98C9B
:1026D00081420ED140F2E2416143481E42F2107441
:1026E00004FB0303B3FBF1F3E98D9BB2994200F0C5
:1026F000A2800C9B13F0080F95F8AA3000F08A8096
:10270000022262F3020385F8AA30002787E09B4586
:1027100004D095F8AA3098077FF417A9B6F80CA052
:102720001FFA8AF3052B8FD9B6F80EE01FFA8EF246
:10273000B2F5486F88D8934286D8B6F810C01FFA11
:102740008CF1B1F5FA7FBFF47FAF738AADF830300A
:102750009BB2A3F10A0080B240F67644A0423FF655
:1027600073AF01FB0220B0EB830FBFF66DAF307D7E
:102770008242FFF469AFBDF83040A5F8ACA0A5F8DF
:10278000AEE0A5F8B0C0A5F8B24085F8B400B47DBD
:10279000707D40EA0420A5F8B600347EF07D40EA62
:1027A0000420A5F8B800B47E707E40EA0420A5F8A5
:1027B000BA00347FF07E40EA0420A5F8BC00B47F64
:1027C000707F40EA0420A5F8BE0096F82040F07F14
:1027D00040EA0420A5F8C00096F8210096F82240AF
:1027E00040EA0420A5F8C200A88C824210D1E88CEF
:1027F00088420DD140F2E2414A43511E42F210702C
:1028000000FB0313B3FBF2F3EA8D9BB29A4212D0A2
:1028100095F8AA30032262F3020385F8AA300BF17F
:10282000FF3385F8A9300B9B002B7FF4A5ADA64B99
:10283000C3F88051A0E5B5F8AA3003F0F00343F0E7
:102840000103A5F8AA3060E795F91D30002BC0F20E
:102850002481717A102010F0F5FB002800F01D8112
:1028600095F8A82095F8A9309A423FF4DAAD95F88A
:10287000AA3003F00703042B7FF4D3ADB6F80CE0C5
:102880001FFA8EF3052B1ED9B6F80EC01FFA8CF274
:10289000B2F5486F17D8934215D8348AA3B2B3F56E
:1028A000FA7F10D2708A87B2A7F10A0189B240F686
:1028B000764A514507D803FB0223B3EB870F02DAB0
:1028C000337D9A4202D21E2210216BE60027AF868A
:1028D000A5F8ACE0A5F8AEC0A5F8B040A5F8B200E8
:1028E00085F8B430B27D737D43EA0223A5F8B63093
:1028F000327EF37D43EA0223A5F8B830B27E737EC0
:1029000043EA0223A5F8BA30327FF37E43EA02237A
:10291000A5F8BC30B27F737F43EA0223A5F8BE302E
:1029200096F82020F37F43EA0223A5F8C03096F8FA
:10293000222096F8213043EA0223A5F8C23095F808
:10294000AA30012262F3020385F8AA3014E5717AF5
:10295000112010F077FB002800F09F8095F8A80068
:1029600095F8A93083423FF45CAD337B0F2B7FF4A5
:1029700058AD95F91D30727B002B2DDB1A2A2BD117
:1029800095F85D3095F85C1099427EF4DEAF95F8CD
:10299000AA30052262F30203B5F8AE20A5F8622042
:1029A000D5F8B0206A6695F8602085F8AA30012035
:1029B00083F0080360F30102C3F3C003002763F34D
:1029C0008202013985F87000EF6685F8602085F88D
:1029D0005E0085F85D10CFE4232A10D0D4F8801172
:1029E0008D427EF4B2AF00218B42B8BFD5F8CC3017
:1029F000C4F8801185F8A900A986B8BFAB6595F821
:102A0000AA3013F008033FF40CAD3272EA8C0A23AB
:102A10003371AB8CB281EA8D73815A437D2353436A
:102A20004FF47A7293FBF2F3F381A5E4717A0720F5
:102A300010F008FB88B395F8A82095F8A9309342C8
:102A40003FF43CAD95F8AA3043F0100385F8AA3066
:102A500095F91D30002B93DAD4F880319D427EF435
:102A600074AF0023C4F8803195F8AA3085F8A92006
:102A700013F0080326D00A2333711A233372EA8C29
:102A8000AB8CB281EA8D73815A437D2353434FF45B
:102A90007A7293FBF2F3F38110E50C481BF0AAFD68
:102AA000014600283FF4DDAC037980F808A043F02C
:102AB00003030371022343710723C37128461CF0EB
:102AC00035F8AEE41F4657E430120020841300208E
:102AD00094F8191109B984F8192194F81951013D94
:102AE000EDB284F819511F8EB5FA85F56D09002FE6
:102AF0007FD1DA8D1A86B846BB4AD2F8149199F87C
:102B0000D03013F0800F4FEAD31B924608D1D9F88A
:102B1000140128B11907D9F818C16FD584456DD0B3
:102B200099F8D03043F0800389F8D03012F0D0FB10
:102B30000378012262F3010300224270D9F81421C4
:102B400003700446DBB2002A55D043F01003237013
:102B500023786FF3471323700023A370A24B5A7D91
:102B6000032A00F08280002D7DD10A9A2AB1327AA0
:102B7000D20602D46278002A75D0D3F8142192F8D4
:102B80009B50002D6FD1022296205A7512F03CFC0A
:102B9000284612F0A5FB12F0FFFCDAF81451237856
:102BA00095F8D020C2F3000262F3C30395F8D02059
:102BB000C2F3400262F3820300212370084612F040
:102BC000ABFA95F8D0309B064FF001025FD51F217C
:102BD000082012F0E7FA214605F1F20012F024FD78
:102BE00012F012FB12F040FB00283FF413AAFEF78C
:102BF000ACBE00277FE762F30413A8E799F8292108
:102C000099F82831011D8C1813B9637889F8283197
:102C10002AB18B5C4FF0010E6EF301038B5499F8CF
:102C200028319B1ADBB2637011F802E01B2B6FF3A3
:102C3000041E01F802E005D91B2363708B5C43F08E
:102C400010038B5403681BB18B5C43F010038B544F
:102C5000BCF1000F7FF47CAFD9F82031984218BF47
:102C6000C9E9460074E703225A751A7D042A0BD17C
:102C7000D3F8143193F8D0206BF3C71283F8D02027
:102C800012F0D4FAFFF7C6B912F040FB85E708202E
:102C90001B2112F087FA2046A2E7237D032B3EF684
:102CA00054AEDFE813F07F01040045008900032FD4
:102CB00009D194F828305E0705D010F069FD12F0B4
:102CC000AFFAFEF753BE12F06DFB637D032B57D1B5
:102CD00094F8283013F0400352D160684268556878
:102CE0001DB102220DF13E01A847BDF83E1040F291
:102CF0004712B1FBF2F302FB131341F25F02002112
:102D000006920133394A05921BB2CDE90311CDE990
:102D10000111009105220846ADF83E300FF08AF906
:102D200030F002032CD0A37C052B29D0FEF70DBE7A
:102D3000032F19D1962012F067FB002319461A467B
:102D4000184612F0D9FAD4F8343194F8392153F8EE
:102D50002200083012F052FA12F0E6FA01236375ED
:102D600012F058FAFEF702BE12F01CFB637D052B31
:102D700006D1002300930422194618460FF0A2F949
:102D8000002525756575657412F0C2FB2A46294633
:102D90002846174B0EF0FCFB054600287EF4D5AD07
:102DA0002068436829465B689847012211462846F7
:102DB0000EF0C6FBFEF7FEBDD4F814010028DFD0EC
:102DC00090F89B10B1B1237D032B03D090F83830DD
:102DD000DD070FD510F062FDD4F8140110F054FC9B
:102DE0000023C4F81431CBE730120020093201006F
:102DF00088900020B0F82A9094F8185109F1010742
:102E0000BFB2002D70D0237D032B61D112F0B8FB2F
:102E1000834612F0BBFBD4F81451DFF8A8A1ABEB4A
:102E200000018046A86C00F1580399420A9363A3FD
:102E3000D3E900233ED8A0FB0A01FDF7FFFE0A9B61
:102E4000984420F07F46A8EB0B005CA3D3E9002355
:102E5000A0FB0A01FDF7F2FE20F07F43D5F8141124
:102E60000022AA642A6569B3497911B995F8291134
:102E700001B16A85D4F8142100219185D4F8140198
:102E8000028EAAB1974280F08580D21B92B20021B7
:102E9000062A028641857FD9227D032A08D1B9F10D
:102EA000000F79D1416D4A0811F0010136D1426518
:102EB000002136E0A1FB0A01FDF7C0FE022320F04D
:102EC0007F46CBE795F83820D207D3D5EA8CD0E7F8
:102ED00041B190F8383043F0010380F838300023D6
:102EE0001E46C7E70B46FBE7838D83B19F4204D2A2
:102EF000DB1B83852B461E46C0E73E2110F0CEFC2F
:102F0000D4F8140110F0C0FBC4F8145138E7018E56
:102F10000029F0D1C38D03860B46ECE742F0004256
:102F20004265828E1AB1974238D2D71B878690F8B5
:102F30005D5090F85C20954206D090F85E20013AF2
:102F4000012A9CBF00224285458D09B9A94527D099
:102F50000135ADB256EA030203D115B900293FF499
:102F60000FAF90F8202000930732D7B2124A06978D
:102F7000CDE90412002133460395CDE901113A460B
:102F800008460FF057F830F002033FF4F9AEA37C87
:102F90009F42CAE608211DE70121C2E7222119E765
:102FA0000D46D7E7043FFFB2012F3EF6CEAC00231B
:102FB0006375FEF7FFBC00BF213201008D49FD1A89
:102FC0000700000000CA9A3B2DE9F04FA04F8FB0D8
:102FD00002230D9397F928308DF82F10002B80468F
:102FE00092463E4601DA0C2523E097F879202A2301
:102FF0004FF0270919FB023917F8093013F00E0FAB
:1030000040F0E280D7F8CC50002DECD107F5867067
:103010001BF0F0FA0446002800F0148107F5A070B8
:103020001BF0E8FA48B907F5867120461BF0FBFA59
:10303000072528460FB0BDE8F08F4FF6FF732362D7
:10304000637FE57703F03F0363F07F036377062335
:10305000A38594F83830A56223F0230384F8383030
:103060004FF4C773C4F88C3094F89030258623F061
:10307000030384F8903094F8AA30A58665F304130E
:10308000C4E91155A565A4F85C50A4F8985084F8DB
:103090009B50C4F89C00A4F8A85084F8AA3084F887
:1030A000D050C4E94555C4E94755C4F82451A4F8A3
:1030B000285110F0ABFEC7F8CC4096F829309DF8A7
:1030C0002F2062F302036AF3C40386F82930D6F88E
:1030D0007C31F3612723B361012100230DF12F001F
:1030E00033621BF0EDFA17F8093003F00F03012BE0
:1030F0006CD14FF42773584300F59C70554952A387
:10310000D3E90023A0FB0101FDF798FDD6E90623D2
:103110009A4238BF1A46706293461BF08BFB824678
:10312000B8F1000F5AD117F8093003F00F035A1EF7
:103130005342534196F82850474F484A63F3861547
:10314000736A86F828500DF1340915F040055B4488
:10315000CDE907794AD00020CDE90520CDE9030368
:10316000CDE9013000905346052203210EF018FFEF
:10317000022837D00D98002857D102230D93384BE1
:103180000690CDE90779CDE90200CDE904030322D9
:103190004AF2FE3300930190534611460EF000FFB1
:1031A00002283ED00D9D002D3FD196F8283043F0E7
:1031B000800386F8283096F8E030DB073FF539AF1A
:1031C00001201BF0D5FD34E7002476E7022B0CBF6D
:1031D0004FF4297340F2FC5358438FE70023A9E7CB
:1031E0001BF0D9FB0D9B022BFAD0C3E71D480295BB
:1031F0001FFA88F8CDE90353A8FB00019123CDE91C
:10320000052503FB081110A3D3E90023FDF716FDE4
:103210005346CDE90050052203212846BEE71BF0A6
:10322000BAFB0D9B022BFAD0BCE7002C3FF4DBAEBF
:10323000D4F89C000C491BF0F6F90C4920461BF011
:10324000F2F9D0E60925F4E68D49FD1A07000000E1
:103250003012002000CA9A3B9FE90100153C010092
:10326000853C0100002AE784701300203C130020F5
:103270002DE9F047504C94F8E0508CB01F4615F003
:1032800001054FF002030E460B93114604D00C25A6
:1032900028460CB0BDE8F08794F8E13060F30003F5
:1032A00066F30413062204F1E20084F8E130434E91
:1032B00016F0FAFEBDF850204FF0910AA2FB06016D
:1032C0000AFB02113AA3D3E90023FDF7B7FC94F8F7
:1032D000E1309DF85420D4F87C91C4F8F00062F3FA
:1032E0004203BAB2A2FB06670AFB027784F8E13018
:1032F000272300F10908C4F8D030C4F8D4902CA3D7
:10330000D3E90023C4F8D85030463946FDF796FC7F
:10331000A0F12703984594BFC4F8DC80C4F8DC30E2
:1033200082461BF087FA0BAB0893254BCDE9065379
:10333000244B0593D4F8DC30B9F1270F2CBF4B4454
:1033400027338046CDE90353304619A3D3E9002340
:103350003946FDF773FC104619464FF47A72002384
:10336000FDF76CFC0095CDE901A043460622032140
:1033700028460EF015FE022813D00B9D002D86D195
:1033800094F8E03043F0010384F8E03094F92830F9
:10339000002BFFF67DAF02201BF0EAFC78E71BF064
:1033A000FAFA0B9B022BFAD0E7E700BFAFF30080DD
:1033B0008D49FD1A0700000030120020002AE78422
:1033C0009FE901004D3C01002DE9F84F4FF080527C
:1033D000254E057BD6F80495D2F81080044615B129
:1033E0001BF028FA05460223C6F8043512F016FC35
:1033F000DFF874B0DFF874A000276368CBF80835F5
:1034000012F00CFCA368A3EB0803A36063684344B9
:103410006360237B013773B9A368002BEDD1124B96
:10342000C3F8049512F0FAFBA068003018BF012021
:103430004042BDE8F88F1BF0FDF929461BF0FCF96E
:10344000B0FBF7F60644606905A3D3E90023A0FBAF
:103450000A01FDF7F3FB20F07F408642DCD9DEE76E
:103460008D49FD1A0700000000E0014000CA9A3BA8
:103470002DE9F04F8FB0D0F804A0DFF8D8900DF10F
:10348000370180460DF136001BF088FC9DF8363080
:103490000A939DF837300B931BF0CCF9DAF8104003
:1034A000A4FB094526A3D3E9002300278346294628
:1034B0002046FDF7C3FBCDE90777234B0593CDF8F5
:1034C00018800646DAF814001DA3D3E90023A0FBF8
:1034D0000901FDF7B3FB1D4B26F07F46A6FB039ABF
:1034E00020F07F400723CDE9037003FB06AAB4EB6D
:1034F000090065EB0A014FF47A720023FDF79EFB89
:103500005B46CDE9016000970B9A0A9803210EF003
:1035100047FD30F002030AD145F6B3110C4813F011
:103520009FFC38B9D8F808000FB0BDE8F08F6FF0F5
:103530004700F9E76FF03B00F6E700BFAFF300800C
:103540008D49FD1A07000000715C01008D49FD1ACC
:10355000481E002000CA9A3B2DE9F347057B04462C
:1035600015B11BF067F90546676817F003007CD0BA
:10357000A268216827F00307C0F1040696423B6861
:10358000019328BF164601AB3246184416F08CFD55
:1035900012F044FB019B3B60636833446360236823
:1035A00033442360A3689E1B237BA660002B5CD062
:1035B0001BF040F929461BF03FF93349460060698A
:1035C0002FA3D3E90023A0FB0101FDF737FB20F077
:1035D0007F40864249D912F021FB4FF0FF3002B004
:1035E000BDE8F08712F01AFB23681A6863681A6056
:1035F000636804336360236804332360A368043B77
:10360000A360237B08F1010893B11BF013F929464D
:103610001BF012F9B0FBF8F98144606932463B4671
:10362000A0FB0A01FDF70AFB20F07F408145D2D8BC
:10363000A268032AD6D8A2B1636821681B680193E7
:1036400001A816F031FD12F0E9FA6368019A1A60D8
:10365000D4E9012123680B440A44236000236260FB
:10366000A36012F0DBFA0020B9E74FF00108DFF8A1
:1036700018A003A7D7E90067DAE700BFAFF300801F
:103680008D49FD1A0700000000CA9A3B08B5054B9A
:10369000002201201A7002F011FE0348BDE8084024
:1036A00014F06FBDAC200020410C020070B51F4C1F
:1036B0002088FDF70FF81E49FDF718F91D49FDF7A1
:1036C00061F8FDF74BFA1C4BC6B2B3F9000000F5E8
:1036D0000040FDF703F81649FDF708F91549FDF715
:1036E00051F8FDF73BFAC5B22A463146134814F0AB
:1036F00048FD2388124CB3B100221121206813F039
:103700006FFF312E94BF00220122A068132113F015
:1037100067FF312DE06894BF002201221421BDE82B
:10372000704013F05DBF0122E7E700BF4820002092
:1037300000FF7F470000C8424E2000205C0C0200C2
:103740008006002008B5FFF7B1FF0F4B1B681A6811
:103750000E4B0AB11A78B2B901220D491A70BFF3A3
:103760005B8F51E8003F43F0010241E80020002850
:10377000F7D1BFF35B8FDB0705D408390548BDE8F7
:1037800008401BF0BDBF08BDB8060020A6200020E1
:10379000F8840020C81F00202DE9F041414E424D21
:1037A000424F434C0023337001233B70EB814FF6B3
:1037B000FF732B824FF0FF33AB604FF44873E3810C
:1037C00044F6206323823B4BA3613B4B636200F0D2
:1037D000A5F83A4814F0D5FC02F0F8FD384806F098
:1037E00013F9B846014610B1364814F0CAFC616AB4
:1037F000354B0A0C97B2003218BF01221A70E269E9
:1038000012B1100C20836283228B6A81628BA280AA
:103810006A6912B1100C2882EA81626912B1100C37
:103820002082E28198F80020012A2CD050B220B3E7
:10383000022A2AD0254B32781A70254B254C1F803E
:10384000254B1A88254B1A80FFF77CFF02F0A8FA57
:10385000217803291ED900232148237014F091FCFC
:1038600008F0EEFA012002F029FD002241F658315D
:103870001C48BDE8F04113F0B3BD187009210220C7
:1038800002F0A2FBD6E71A70F8E7A1802F81092188
:103890000120F5E7144814F074FC237801332370F9
:1038A000E0E700BFA7200020287C0020A8200020FF
:1038B000E07B0020FFFF20032003FFFFEC0B020052
:1038C0006D3A0000FD0B0200C87B0020AE200020F6
:1038D0004A200020AC2000204E2000204C20002058
:1038E0001D0C0200549300202C0C02000949BFF368
:1038F0005B8F51E8003F43F0010241E800200028BF
:10390000F7D1BFF35B8FDB0703D4083902481BF004
:10391000F7BE7047407E0020C81F0020F8B54C4E0F
:103920004C4C4D4D4D4F304612F02EFD40F20112E1
:103930001121206013F077FE1121206813F06AFE38
:10394000304612F021FD40F201121221606013F0A6
:103950006AFE1221606813F05DFE304612F014FD1D
:1039600040F201121321A06013F05DFE1321A06844
:1039700013F050FE304612F007FD40F20112142100
:10398000E06013F050FE1421E068354C13F042FE65
:10399000344B354900223046C3E901121A6012F057
:1039A000F3FC4FF499720D21206013F03CFE4FF4AC
:1039B000005329462068AB606F6013F01AFE0D219A
:1039C000206813F01EFE304612F0DEFC4FF49972B0
:1039D0000E21606013F027FE4FF4804305F10C01C7
:1039E00060686B612F6113F004FE0E21606813F0B4
:1039F00008FE304612F0C8FC4FF499720F21A06007
:103A000013F011FE4FF4004305F11801A0682B627A
:103A1000EF6113F0EEFD0F21A06813F0F2FD3046C8
:103A200012F0B2FC4FF499721021E06013F0FBFD2C
:103A30004FF4803305F12401E068AF62EB6213F0CC
:103A4000D8FDE0681021BDE8F84013F0DABD00BFF2
:103A5000740C02008006002040060020ED380000B3
:103A600070060020387E0020C95D000013B50146B5
:103A700020B1144814F085FB02B010BD124814F0B8
:103A800080FB1249124817F08BFE044610B1014624
:103A90001048EFE703F0D6FD6946204606F03EFBEE
:103AA00048B10D4814F06DFB032017F062FE0B487F
:103AB00014F067FBE0E706220DF10101084816F05B
:103AC000F3FAF1E7FD0B02007B0C02006800020034
:103AD00034000200920C0200B50C0200D30C02006C
:103AE0005C92002083689A8870B50446A2B11D6973
:103AF000866948F21221284618F0A0FC3178284641
:103B00001BF00BFB20460AF055FD014620B103488F
:103B1000BDE8704014F035BB70BD00BF820E0200DE
:103B200083689A8870B50446A2B11D69866948F217
:103B30001021284618F082FC317828461BF0EDFA57
:103B400020460AF037FD014620B10348BDE8704029
:103B500014F017BB70BD00BF820E020083689A8804
:103B600070B50546E2B11C69866948F263212046BA
:103B700018F064FC317B20461BF0CFFAF189204617
:103B80001BF0D3FA318A20461BF0CFFA28460AF000
:103B900011FD014620B10348BDE8704014F0F1BAB0
:103BA00070BD00BF820E020083689A8870B505461A
:103BB000E2B11C69866948F26821204618F03EFC93
:103BC000318B20461BF0B1FA718B20461BF0ADFA09
:103BD000318C20461BF0A9FA28460AF0EBFC01467E
:103BE00020B10348BDE8704014F0CBBA70BD00BFEF
:103BF000820E020083689A8870B50546E2B11C699E
:103C0000866948F25821204618F018FC317B20467E
:103C10001BF083FAF18920461BF087FA318A20468F
:103C20001BF083FA28460AF0C5FC014620B1034880
:103C3000BDE8704014F0A5BA70BD00BF820E02004E
:103C400083689A8870B50446A2B11D69866948F2F6
:103C50005621284618F0F2FB718928461BF065FAB8
:103C600020460AF0A7FC014620B10348BDE8704099
:103C700014F087BA70BD00BF820E020010B50D4867
:103C8000144614F07EFA20461BF0CBFA01460A488F
:103C900014F077FA20461BF0C4FA0146074814F0E6
:103CA00070FA20461BF0BDFABDE8104001460448FA
:103CB00014F067BA0E0F0200B40F02000C110200DC
:103CC0002B11020010B50648144614F05AFA20468B
:103CD0001BF0A7FABDE810400146024814F051BAA3
:103CE00085110200B40F020010B50648144614F006
:103CF00048FA20461BF095FABDE8104001460248FC
:103D000014F03FBA1F120200B40F020010B50D48A4
:103D1000144614F036FA20461BF07BFA01460A4896
:103D200014F02FFA20461BF07CFA0146074814F0E5
:103D300028FA20461BF075FABDE8104001460448F9
:103D400014F01FBA2910020062100200761002005F
:103D50008810020010B50D48144614F012FA2046DF
:103D60001BF057FA01460A4814F00BFA20461BF0E4
:103D700058FA0146074814F004FA20461BF051FA9D
:103D8000BDE810400146044814F0FBB91E130200C0
:103D900062100200761002008810020010B506487A
:103DA000144614F0EEF920461BF033FABDE810403B
:103DB0000146024814F0E5B9A00E0200CB0E020045
:103DC00010B50648144614F0DCF920461BF021FA21
:103DD000BDE810400146024814F0D3B9140D0200AA
:103DE0003A0D020038B58569044610461BF019FAF1
:103DF0006B89834205D0054B68811883042002F04B
:103E00005DFA2046BDE83840FFF71ABFE07B00208E
:103E1000F0B5064689B018220F4602A8002116F018
:103E20006DF9B46900250B2348F2632102A82573BC
:103E3000ADF80E3018F002FB217B02A81BF06DF9E3
:103E4000E18902A81BF071F9218A02A81BF06DF923
:103E500000952B4602AA3946304618F018FB10B1DF
:103E6000024814F08EF909B0F0BD00BFF50F020052
:103E700070B5054688B018220E4602A8002116F03B
:103E80003DF9AC690C2348F2682102A8ADF80E3068
:103E900018F0D4FA218B02A81BF047F9618B02A815
:103EA0001BF043F9218C02A81BF03FF9002300937B
:103EB00002AA3146284618F0EAFA10B1024814F076
:103EC00060F908B070BD00BFDD0E020070B5054698
:103ED0008AB01C220E4603A8002116F00FF9AC6927
:103EE0000F2348F2602103A8ADF8123018F0A6FAAB
:103EF000218803A81BF019F903A8A1881BF015F964
:103F0000606C836873B102F08FFC618803A81BF0BA
:103F10000CF9E18803A81BF008F9636C03A89978F1
:103F20001BF0FBF80023009303AA3146284618F043
:103F3000AEFA10B1024814F024F90AB070BD00BF07
:103F40003D0F0200F0B5064689B018220F4602A8C0
:103F5000002116F0D3F8B46900250B2348F258214C
:103F600002A82573ADF80E3018F068FA217B02A87C
:103F70001BF0D3F8E18902A81BF0D7F8218A02A828
:103F80001BF0D3F800952B4602AA3946304618F0AC
:103F90007EFA10B1024814F0F4F809B0F0BD00BF89
:103FA000EA12020070B5044688B014220D4603A838
:103FB000002116F0A3F8A669082348F2562103A8A9
:103FC000ADF8123018F03AFA718903A81BF0ADF879
:103FD0000023009303AA2946204618F058FA10B18E
:103FE000024814F0CEF808B070BD00BF53110200B3
:103FF00070B5044688B014220D4603A8002116F0BF
:104000007DF8A669082348F2542103A8ADF81230C0
:1040100018F014FA318903A81BF087F800230093E5
:1040200003AA2946204618F032FA10B1024814F0CB
:10403000A8F808B070BD00BFEC11020070B50546CD
:1040400088B018220E4602A8002116F057F8AC6975
:104050000B2348F2522102A8ADF80E3018F0EEF909
:1040600002A821881BF061F8206B836853B102F02D
:10407000DBFB618802A81BF058F8236B02A8997833
:104080001BF04BF80023009302AA3146284618F093
:10409000FEF910B1024814F074F808B070BD00BF0A
:1040A0005112020070B5054688B018220E4602A8CB
:1040B000002116F023F8AC690B2348F24E2102A828
:1040C000ADF80E3018F0BAF902A8A1881BF02DF84F
:1040D000206B836853B102F0A7FBE18802A81BF0B4
:1040E00024F8236B02A899781BF017F8002300939B
:1040F00002AA3146284618F0CAF910B1024814F055
:1041000040F808B070BD00BFBA11020070B5044697
:1041100088B014220D4603A8002115F0EFFFA66910
:10412000072348F2122103A8ADF8123018F086F9DF
:10413000317803A81AF0F1FF0023009303AA29465F
:10414000204618F0A4F910B1024814F01AF808B08B
:1041500070BD00BF4E0E020070B5044688B0142238
:104160000D4603A8002115F0C9FFA669072348F2F0
:10417000102103A8ADF8123018F060F9317803A8C7
:104180001AF0CBFF0023009303AA2946204618F01B
:104190007EF910B1024813F0F4FF08B070BD00BF03
:1041A000E50C020070B5054688B018220E4602A83C
:1041B000002115F0A3FFAC690B2348F2082102A8E7
:1041C000ADF80E3018F03AF902A821881AF0ADFFC8
:1041D000606A836853B102F027FB618802A81AF075
:1041E000A4FF636A02A899781AF097FF002300934E
:1041F00002AA3146284618F04AF910B1024813F0D5
:10420000C0FF08B070BD00BF520D020070B505467A
:1042100088B018220E4602A8002115F06FFFAC6985
:10422000092348F2042102A8ADF80E3018F006F96F
:10423000217802A81AF071FF6069836853B102F017
:10424000F3FA617802A81AF068FF636902A8997806
:104250001AF063FF0023009302AA3146284618F0A3
:1042600016F910B1024813F08CFF08B070BD00BF02
:10427000D00D020070B505468AB01C220E4603A878
:10428000002115F03BFFAC690F2348F2662103A81B
:10429000ADF8123018F0D2F8A18803A81AF045FF43
:1042A00003A821891AF041FF606C836873B102F0A2
:1042B000BBFAE18803A81AF038FF618903A81AF055
:1042C00034FF636C03A899781AF027FF002300934A
:1042D00003AA3146284618F0DAF810B1024813F064
:1042E00050FF0AB070BD00BFC60F020010B50A48EB
:1042F000144613F046FF20461AF093FF0146074884
:1043000013F03FFF20461AF09FFFBDE81040014622
:10431000034813F036BF00BFD3130200F1130200AD
:10432000FD13020070B505468AB01C220E4603A894
:10433000002115F0E3FEAC690E490D23ADF81230F3
:104340000D4B636003A818F079F8218803A81AF0D0
:10435000ECFE616803A81AF009FF0023009303AA8A
:104360003146284618F093F810B1044813F009FFBD
:104370000AB070BD0200C400B3FE78A58F1302001E
:1043800008B50AF017F9014620B10348BDE8084016
:1043900013F0F7BE08BD00BF820E02002DE9F74FF3
:1043A00087690546104692460E461AF03AFF01907C
:1043B00050461AF02EFF83461BF015FC0091397B06
:1043C0005945044615D1F889B188884211D1388AF7
:1043D000F18888420DD1D7E90610009BB4EB0108A3
:1043E00063EB000941F270700021404571EB090355
:1043F00004DABAF8041021B1022942D003B0BDE8B2
:10440000F08F314A92F800808946304A12680021C4
:1044100011602F4A10681BF002FC87F80CB0B288BC
:10442000FA81F2883A82BC61B7F90020BDF90440F4
:10443000BC60144404F30F0424B2009BFB61A2424D
:104440007C802BD04A464146384602F05DFA7A6AB3
:1044500091680029D2D001211170284613F000F98B
:10446000284609F071FF1B4C0188228891421BD11C
:10447000194A02213846117003B0BDE8F04F02F02E
:1044800075BB50461AF0C5FE00F03F013F2980463B
:10449000B4D050461AF0BDFE8146B6E7284603B0B8
:1044A000BDE8F04F13F0DCB8284609F04DFF228A32
:1044B00001889142A2D1084A05213846117003B003
:1044C000BDE8F04F02F06ABBAE200020B806002025
:1044D00080850020047F0020AF20002010B5164802
:1044E000144613F04EFE20461AF09BFE0146134878
:1044F00013F047FE20461AF094FE0146104813F0D0
:1045000040FEA388052B16D120461AF08AFE0146EC
:104510000C4813F036FE20461AF083FE01460A4886
:1045200013F02FFE20461AF074FEBDE8104001463D
:10453000064813F026BE10BD9A100200C4100200F7
:10454000E410020001110200201102003C110200DF
:1045500010B51648144613F014FE20461AF061FEFA
:104560000146134813F00DFE20461AF05AFE01468C
:10457000104813F006FEA388052B16D120461AF02A
:1045800050FE01460C4813F0FCFD20461AF049FE8F
:1045900001460A4813F0F5FD20461AF03AFEBDE840
:1045A00010400146064813F0ECBD10BD660F020036
:1045B0008B0F0200C4100200A90F020001110200BB
:1045C0003C11020010B504461AF02BFE01460648C5
:1045D00013F0D7FD20461AF01CFEBDE8104001463E
:1045E000024813F0CEBD00BF831202003C1102004E
:1045F00010B50A48144613F0C4FD20461AF011FE07
:104600000146074813F0BDFDA388032B04D12046C3
:10461000BDE81040FFF7D6BF10BD00BF9C120200DE
:10462000D012020010B50A48144613F0AAFD204625
:104630001AF0F7FD0146074813F0A3FDA388032BEA
:1046400004D12046BDE81040FFF7BCBF10BD00BF3D
:104650005B130200D012020010B50F48144613F08D
:1046600090FD20461AF0DDFD01460C4813F089FD4F
:10467000A388032B0FD120461AF0D3FD014608482A
:1046800013F07FFD20461AF0C4FDBDE8104001463E
:10469000044813F076BD10BD800D0200A50D020088
:1046A000BB0D02003C11020010B50F48144613F078
:1046B00068FD20461AF0ADFD01460C4813F061FD7F
:1046C000A388022B0FD120461AF0A3FD014608480B
:1046D00013F057FD20461AF09CFDBDE8104001463E
:1046E000044813F04EBD10BDFE0D0200230E020063
:1046F000390E02003C110200F8B5866904461046E6
:104700000F4615461AF085FD00F03F033F2B12D0EF
:104710003378834205D0084B30701870022001F0C6
:10472000CDFD20462A463946FFF716FD2046BDE856
:10473000F840FFF7F5B9F8BDAE20002070B505468A
:1047400088B018220E4602A8002115F0D7FCAC69EB
:104750000B2348F2082102A8ADF80E3017F06EFEC8
:10476000218802A81AF0E1FC636A9B686BB1A36818
:10477000002BB4BF4FF4004147F6FF7102A81AF0B6
:10478000D4FC3F2102A81AF0C8FC0023009302AA1F
:104790003146284617F07BFE10B1024813F0F1FCB9
:1047A00008B070BD520D02002DE9F74F846906462E
:1047B000104615468A461AF034FD019028461AF034
:1047C00028FD83461BF00FFA0091217B59450746CF
:1047D0001ED1E089BAF80410884219D1208ABAF8AB
:1047E0000610884214D1D4E90610009BB7EB0108EB
:1047F00063EB000941F270700021404571EB090341
:1048000006DB5146304603B0BDE8F04FFFF796BFD8
:10481000A98821B1022948D003B0BDE8F08F364AFB
:1048200092F800808946354A126800211160344AA6
:1048300010681BF0F4F984F80CB0BAF80420E28197
:10484000BAF80620BDF904502282B4F90020A56010
:10485000154405F30F052DB2009BA761AA42E36141
:1048600065802FD04A464146204602F04DF8626AE4
:1048700091680029D0D00121117030465146FFF7D0
:104880005DFF304612F0ECFE304609F05DFD1D4D37
:1048900002882B889A421FD11B4B022220461A7095
:1048A00003B0BDE8F04F02F061B928461AF0B1FC40
:1048B00000F03F013F298046AED028461AF0A9FCFF
:1048C0008146B0E730465146FFF738FF304603B027
:1048D000BDE8F04F12F0C4BE304609F035FD2B8A1A
:1048E00002889A4298D1084B052220461A7003B0DC
:1048F000BDE8F04F02F052B9AE200020B80600200B
:1049000080850020047F0020AF2000202DE9F047A3
:104910008469104617460D461AF083FC0646384651
:104920001AF077FC07461BF05EF9237ABB4214D1DC
:104930006289AB889A4210D1A289EB889A420CD145
:10494000D4E90432B0EB030861EB020941F2707262
:104950000023424573EB09031BDA2772AB8863819E
:10496000EB88A381C4E90401266031460A4813F0AC
:1049700008FC2368012B094B586843685C684FF0BA
:104980001202A4460CBF002301230021BDE8F0471A
:104990006047BDE8F08700BFB61302008006002024
:1049A00038B58569044610461AF033FC00F03F0321
:1049B0003F2B0DD02B78834205D0064B2870187002
:1049C000022001F07BFC2046BDE83840FFF7A8B884
:1049D00038BD00BFAE2000202DE9F74FD0F818A059
:1049E0000646104614460D461AF013FC07462046AC
:1049F0001AF00FFC012F834623D81BF0F4F89AF825
:104A000002205A45CDE9000117D1BAF80410AA884E
:104A1000914212D1BAF80610EA8891420DD1DAE932
:104A20000221019BB0EB020841F2707063EB0109B7
:104A30000021404571EB090303DAA28822B1022A62
:104A400036D003B0BDE8F08F254991F800801446B8
:104A5000244A126800211160234A10681BF0DFF815
:104A60008AF802B0AA88AAF80420EA88AAF80620E0
:104A70009AF80020009BCAF80830BA42019BCAF895
:104A80000C308AF8017020D022464146504601F091
:104A900009FFDAF814209168E9B10121304611705C
:104AA00012F029FF504603B0BDE8F04F02F046B8BF
:104AB00020461AF0AEFB00F03F023F2A8046C0D0ED
:104AC00020461AF0A6FB0446C2E7304603B0BDE814
:104AD000F04F12F010BF9AF801108AF80010DCE7CE
:104AE000AE200020B8060020808500202DE9F74F79
:104AF000D0F818A00646104614460D461AF089FB59
:104B0000074620461AF085FB012F83462BD81BF061
:104B10006AF89AF802205A45CDE900011FD1BAF887
:104B20000410AA8891421AD1BAF80610EA88914274
:104B300015D1DAE90221019BB0EB020841F2707055
:104B400063EB01090021404571EB090307DB2246B5
:104B50002946304603B0BDE8F04FFFF757BBA288A7
:104B600022B1022A3BD003B0BDE8F08F2A4991F868
:104B700000809146294A126800211160284A106875
:104B80001BF04DF88AF802B0AA88AAF80420EA8837
:104B9000AAF806209AF80020009BCAF80830BA420A
:104BA000019BCAF80C308AF8017025D04A4641466C
:104BB000504601F077FEDAF81420916839B30121EC
:104BC0001170304622462946FFF720FB304612F08E
:104BD00092FE504603B0BDE8F04F01F0AFBF204653
:104BE0001AF017FB00F03F023F2A8046BBD0204658
:104BF0001AF00FFB8146BDE7304622462946FFF7F3
:104C000005FB304603B0BDE8F04F12F074BE9AF8D1
:104C100001108AF80010D2E7AE200020B80600206C
:104C2000808500202DE9F04F876985B00446104645
:104C300092460E461AF008FB054650461AF0E9FA6D
:104C400083461AF0D0FFCDE90101397B594524D1C3
:104C5000F889B188884220D1388AF18888421CD1ED
:104C6000D7E90610019BB3EB0108029B63EB000937
:104C700041F270700021404571EB09030DDBB9680A
:104C8000A94207D0B7F90480BAF80410A84449B182
:104C9000022946D005B0BDE8F08FB7F90080A7F82B
:104CA0000480F1E7324A92F800900A4631490392B3
:104CB000096800200860304908681AF0B0FF87F8DA
:104CC0000CB0B188F981F188398208F30F08B7F97F
:104CD0000010019BBB610FFA88F8029BFB61414504
:104CE000BD60A7F8028029D0039A4946384601F0F2
:104CF0000BFE7A6A916839B301261670204612F0CD
:104D00001EFE204609F020FB1C4D01882A88914296
:104D10001DD11B4A3846167005B0BDE8F04F01F0B2
:104D200025BF50461AF075FA00F03F013F29814631
:104D3000B0D050461AF06DFA0246B7E7204605B0EB
:104D4000BDE8F04F12F0FBBD79883980D4E72046EA
:104D500009F0FAFA2A8A018891429BD1084A042173
:104D60003846117005B0BDE8F04F01F017BF00BF25
:104D7000AE200020B806002080850020047F00209F
:104D8000AF2000202DE9F04F846985B0054610461C
:104D900016468A461AF058FA074630461AF039FA8B
:104DA00083461AF020FF227B5A45CDE901012CD120
:104DB000E189BAF80420914227D1218ABAF8062065
:104DC000914222D1D4E90621029BB0EB020841F2C4
:104DD000707063EB01090021404571EB090314DB9E
:104DE000A268BA4207D132465146284605B0BDE80E
:104DF000F04FFFF7D7B9B4F90480B288B8444AB18C
:104E0000022A4CD005B0BDE8F08FB4F90080A4F8B8
:104E10000480F2E7374991F8009037490392096816
:104E200000200860354908681AF0F9FE84F80CB0D3
:104E3000BAF80410E181BAF80610218208F30F08CD
:104E4000B4F90010019BA3610FFA88F8029BE3619B
:104E50004145A760A4F802802ED0039A4946204617
:104E600001F052FD626A916889B3012751461770BB
:104E700028463246FFF796F9284612F060FD28468C
:104E800009F062FA1E4E028833889A4222D11D4BE5
:104E900020461F7005B0BDE8F04F01F067BE3046F8
:104EA0001AF0B7F900F03F023F2A8146AAD03046F7
:104EB0001AF0AFF90246B0E7284632465146FFF7EE
:104EC00071F9284605B0BDE8F04F12F038BD618891
:104ED0002180CAE7284609F037FA338A02889A42C5
:104EE00090D1084B042220461A7005B0BDE8F04F5F
:104EF00001F054BEAE200020B806002080850020BE
:104F0000047F0020AF2000202DE9F74F8769044679
:104F1000104615460E461AF084F9019028461AF0FC
:104F200078F983461AF05FFE8A46397B009059452E
:104F300015D1F889B188884211D1388AF188884220
:104F40000DD1D7E90610009BB3EB01086AEB00090D
:104F500041F270700021404571EB090303DAA88823
:104F600020B102283CD003B0BDE8F08F2F4A92F860
:104F700000802F4ABDF904501268002111602D4AAB
:104F8000814610681AF04BFE87F80CB0B288FA819F
:104F9000F2883A82B7F90020009B7D80AA42C7E9D7
:104FA000063A29D04A464146384601F0ADFC7A6AB5
:104FB000916839B301211170204612F0C0FC2046DF
:104FC00009F0C2F91C4D01882A8891421DD11B4A63
:104FD00000213846117003B0BDE8F04F01F0C6BDA6
:104FE00028461AF016F900F03F013F298046BAD052
:104FF00028461AF00EF9BCE7204603B0BDE8F04F92
:1050000012F09DBC79883980D4E7204609F09CF9DC
:105010002A8A01889142A6D1084A03213846117094
:1050200003B0BDE8F04F01F0B9BD00BFAE200020D5
:10503000B806002080850020047F0020AF200020DB
:105040002DE9F74F84690546104616468A461AF040
:10505000E8F8019030461AF0DCF883461AF0C3FDF8
:10506000227B00915A4507461FD1E189BAF80420F6
:1050700091421AD1218ABAF80620914215D1D4E979
:105080000621009BB7EB020841F2707063EB010947
:105090000021404571EB090307DB324651462846A3
:1050A00003B0BDE8F04FFFF77DB8B28822B1022A05
:1050B00045D003B0BDE8F08F364991F800809146A5
:1050C0003549BDF904200968019200200860334980
:1050D00008681AF0A4FD84F80CB0BAF80410E18155
:1050E000BAF80610019A2182B4F90010009BA7615A
:1050F0009142E36162802FD04A464146204601F04A
:1051000003FC626A916891B301211170284632460E
:105110005146FFF747F8284612F011FC284609F0DF
:1051200013F91F4E028833889A4223D11D4B002267
:1051300020461A7003B0BDE8F04F01F017BD3046AD
:105140001AF067F800F03F023F2A8046B1D030469F
:105150001AF05FF88146B3E7284632465146FFF71A
:1051600021F8284603B0BDE8F04F12F0E8BB618893
:105170002180C9E7284609F0E7F8338A02889A4275
:1051800097D1084B032220461A7003B0BDE8F04FB8
:1051900001F004BDAE200020B8060020808500206C
:1051A000047F0020AF2000202DE9F74F87690546D6
:1051B000104692460C461AF034F8064650461AF04D
:1051C00028F883461AF00FFDCDE90001397E5945D4
:1051D00016D1788BA188884212D1B88BE188884299
:1051E0000ED1D7E90810009BB3EB0108019B63EBDC
:1051F000000941F270700021404571EB090304DAA7
:10520000BAF8041021B1022938D003B0BDE8F08FFC
:10521000254A92F800808946244A126800211160CC
:10522000234A10681AF0FBFC87F818B0A288009B8C
:105230007A83E2883B62019BBA837B6216B1F8896C
:10524000B04204D8388A864228BF0646B0B2BA882F
:10525000F88082421FD04A464146384601F096FB0C
:105260003A6B9168E9B101212846117012F08BFB6D
:10527000384603B0BDE8F04F01F0A8BC504619F025
:10528000C8FF00F03F013F298046BED0504619F0CC
:10529000C0FF8146C0E7284603B0BDE8F04F12F0DA
:1052A00072BBF988B980DEE7AE200020B806002086
:1052B000808500202DE9F74F846906461046154683
:1052C0008A4619F0AEFF0746284619F0A2FF83462A
:1052D0001AF089FC227E5A45CDE900011FD1618B6D
:1052E000BAF8042091421AD1A18BBAF80620914253
:1052F00015D1D4E90821019BB0EB020841F270708E
:1053000063EB01090021404571EB090307DB2A46E5
:105310005146304603B0BDE8F04FFEF7C3BEAA8841
:1053200022B1022A3FD003B0BDE8F08F2B4991F89B
:10533000008091462A4A126800211160294A1068AB
:105340001AF06DFC84F818B0BAF80420009B628350
:10535000BAF806202362019BA283636217B1E08939
:10536000B84204D8208A874228BF0746B8B2A2882C
:10537000E080824224D04A464146204601F006FBA6
:10538000226B916839B30121117030462A4651468B
:10539000FEF788FE304612F0F6FA204603B0BDE86C
:1053A000F04F01F013BC284619F033FF00F03F0224
:1053B0003F2A8046B7D0284619F02BFF8146B9E72F
:1053C00030462A465146FEF76DFE304603B0BDE832
:1053D000F04F12F0D8BAE188A180D4E7AE200020C7
:1053E000B8060020808500202DE9F74F8669054624
:1053F000104692460C4619F014FF0746504619F025
:1054000008FF83461AF0EFFBCDE90001317E5945D4
:1054100016D1708BA188884212D1B08BE188884266
:105420000ED1D6E90810009BB3EB0108019B63EB9A
:10543000000941F270700021404571EB090304DA64
:10544000BAF8040020B102282FD003B0BDE8F08FD5
:10545000204A92F80080204A1268002111601F4AF9
:10546000814610681AF0DBFB86F818B0A2887283B8
:10547000E288B2833288009B3362BA42019B736236
:1054800077801ED04A464146304601F0ABFA326B77
:105490009168E1B101212846117012F098FA304666
:1054A00003B0BDE8F04F01F0A9BB504619F0B1FEC2
:1054B00000F03F013F298046C7D0504619F0A9FEB1
:1054C000C9E7284603B0BDE8F04F12F080BA7188F2
:1054D0003180DFE7AE200020B80600208085002064
:1054E0002DE9F74F84690646104615460F4619F018
:1054F00098FE8246284619F08CFE83461AF073FB0C
:10550000227E5A45CDE900011DD1618BBA889142B6
:1055100019D1A18BFA88914215D1D4E90821019BB8
:10552000B0EB020841F2707063EB010900214045C5
:1055300071EB090307DB2A463946304603B0BDE864
:10554000F04FFEF77BBDAA8822B1022A35D003B006
:10555000BDE8F08F264991F800809146254A1268EF
:1055600000211160244A10681AF059FB84F818B021
:10557000BA886283FA88A2832288009B23625245FC
:10558000019B6362A4F802A024D04A46414620460B
:1055900001F028FA226B916839B30121117030466D
:1055A0002A463946FEF74AFD304612F010FA2046E8
:1055B00003B0BDE8F04F01F021BB284619F029FEE9
:1055C00000F03F023F2A8046C1D0284619F021FE54
:1055D0008146C3E730462A463946FEF72FFD30465E
:1055E00003B0BDE8F04F12F0F2B961882180D4E732
:1055F000AE200020B80600208085002083689A88AD
:1056000070B5064652B31C69856948F26021204690
:1056100016F014FF2988204619F087FD2046A98836
:1056200019F083FD686C836873B101F0FDF8698837
:10563000204619F07AFDE988204619F076FD6B6C5A
:105640002046997819F069FD304608F0B3FF01460D
:1056500020B10348BDE8704012F093BD70BD00BF9B
:10566000820E02002DE9F04FD0F8188087B0064670
:10567000104614460D4619F0D4FD8146204619F017
:10568000D0FD0746204619F0CCFD0590204619F0C4
:10569000C0FDA7F5487292B2B2F5964F824626D861
:1056A0001AF0A1FA98F828205245CDE903011AD141
:1056B000B8F82A10AA88914215D1B8F82C10EA88B7
:1056C000914210D1D8E90C21831A0093049B63EB1B
:1056D00001030193DDE9002341F270700021904243
:1056E00071EB030303DAA28822B1022A4ED007B07D
:1056F000BDE8F08F354991F800B01446344A12687D
:1057000000201060334A10681AF089FA88F828A03F
:10571000AA88A8F82A20EA88A8F82C20B8F80E2031
:10572000039BC8F83030BA42049BC8F83430A8F85C
:10573000029005D8B8F81020974228BF1746BAB291
:10574000B8F80050BDF91400A8F806204D45A8F897
:105750000A0007D1B8F80450954203D1B8F90820DF
:10576000824220D022465946404601F067F9D8F8D7
:1057700044209168E9B1012130461170FFF73EFFE6
:10578000404607B0BDE8F04F01F050BA204619F08E
:1057900040FD00F03F023F2A8346A8D0204619F082
:1057A00038FD0446AAE7304607B0BDE8F04FFFF7E2
:1057B00025BFB8F80210A8F80010B8F80610A8F82D
:1057C0000410B8F80A10A8F80810D4E7AE2000209A
:1057D000B8060020808500202DE9F04FD0F818A0F1
:1057E00085B00646104614460D4619F01AFD009085
:1057F000204619F016FD0746204619F012FD0390C9
:10580000204619F006FDA7F5487292B2B2F5964F00
:1058100083462BD81AF0E7F99AF828205A45CDE9A3
:1058200001011FD1BAF82A10AA8891421AD1BAF8F8
:105830002C10EA88914215D1DAE90C21029BB0EBD9
:10584000020841F2707063EB01090021404571EBE1
:10585000090307DB22462946304605B0BDE8F04F74
:10586000FEF734BBA28822B1022A55D005B0BDE8AC
:10587000F08F3C4991F8008091463B4A1268002124
:1058800011603A4A10681AF0CAF98AF828B0AA8852
:10589000AAF82A20EA88019BAAF82C20BAF80E2040
:1058A000CAF83030029BCAF83430BA42009BAAF8DA
:1058B000023005D8BAF81020974228BF1746BAB26E
:1058C000BAF80000009BBDF90C10AAF80620984217
:1058D000AAF80A1007D1BAF80400904203D1BAF925
:1058E00008208A4225D04A464146504601F0A6F893
:1058F000DAF84420916839B301211170304622460C
:105900002946FEF7E3FA3046FFF778FE504605B029
:10591000BDE8F04F01F08AB9204619F07AFC00F09A
:105920003F023F2A8046A1D0204619F072FC8146F2
:10593000A3E7304622462946FEF7C8FA304605B0AE
:10594000BDE8F04FFFF75ABEBAF80210AAF80010EF
:10595000BAF80610AAF80410BAF80A10AAF8081043
:10596000CAE700BFAE200020B806002080850020D6
:1059700083689A8870B5064652B31C69856948F2F7
:105980006621204616F05AFDA988204619F0CDFB65
:105990002046298919F0C9FB686C836873B100F04F
:1059A00043FFE988204619F0C0FB6989204619F0B9
:1059B000BCFB6B6C2046997819F0AFFB304608F0C1
:1059C000F9FD014620B10348BDE8704012F0D9BB93
:1059D00070BD00BF820E02002DE9F04FD0F818A074
:1059E00085B00646104614460D4619F01AFC0746C7
:1059F000204619F016FC0390204619F00AFCA7F582
:105A0000487292B2B2F5964F834623D81AF0EBF85B
:105A10009AF828205A45CDE9010117D1BAF82A1081
:105A2000AA88914212D1BAF82C10EA8891420DD17D
:105A3000DAE90C21029BB0EB020841F2707063EBD3
:105A400001090021404571EB090303DAA28822B164
:105A5000022A48D005B0BDE8F08F314991F80080A6
:105A60001446304A1268002111602F4A10681AF05B
:105A7000D6F88AF828B0BAF80E10AA88019BAAF8BE
:105A80002A20B942EA88CAF83030029BAAF82C20B2
:105A9000CAF8343005D8BAF810108F4228BF0F4624
:105AA000B9B2BAF80400BDF90C20AAF80610884271
:105AB000AAF80A2003D1BAF90810914220D0224650
:105AC0004146504601F000F8DAF844209168E9B107
:105AD000012130461170FFF74BFF504605B0BDE87D
